:020000040800F2
:100000000040002021580008B5550008B7550008E9
:10001000B9550008BB550008BD5500080000000098
:10002000000000000000000000000000BF550008B4
:10003000C155000800000000C3550008C555000860
:10004000695800086958000869580008695800088C
:10005000695800086958000869580008695800087C
:10006000695800086958000869580008C95500080F
:10007000695800086958000869580008695800085C
:10008000695800086958000869580008695800084C
:10009000695800086958000869580008695800083C
:1000A000695800086958000869580008695800082C
:1000B000695800086958000869580008695800081C
:1000C000695800086958000869580008695800080C
:1000D0006958000869580008D5550008E15500081E
:1000E00069580008695800086958000869580008EC
:1000F000695800080000000000000000695800086E
:10010000000000000000000069580008695800085D
:100110006958000869580008695800080000000084
:100120006958000800000000000000000000000006
:0C01300000000000000000005FF808F173
:1001400010B5054C237833B9044B13B10448AFF311
:1001500000800123237010BD9800002000000000E3
:10016000F461000808B5034B1BB103490348AFF322
:10017000008008BD000000009C000020F461000821
:10018000034613F8012B002AFBD1181A01387047D7
:1001900081F0004102E000BF83F0004330B54FEA38
:1001A00041044FEA430594EA050F08BF90EA020FA5
:1001B0001FBF54EA000C55EA020C7FEA645C7FEA38
:1001C000655C00F0E2804FEA5454D4EB5555B8BF5B
:1001D0006D420CDD2C4480EA020281EA030382EACC
:1001E000000083EA010180EA020281EA0303362D5E
:1001F00088BF30BD11F0004F4FEA01314FF4801C31
:100200004CEA113102D0404261EB410113F0004F42
:100210004FEA03334CEA133302D0524263EB4303F9
:1002200094EA050F00F0A780A4F10104D5F1200E97
:100230000DDB02FA0EFC22FA05F2801841F10001F2
:1002400003FA0EF2801843FA05F359410EE0A5F1C6
:1002500020050EF1200E012A03FA0EFC28BF4CF0F7
:10026000020C43FA05F3C01851EBE37101F00045AD
:1002700007D54FF0000EDCF1000C7EEB00006EEBBA
:100280000101B1F5801F1BD3B1F5001F0CD3490844
:100290005FEA30004FEA3C0C04F101044FEA44529B
:1002A00012F5800F80F09A80BCF1004F08BF5FEA22
:1002B000500C50F1000041EB045141EA050130BD02
:1002C0005FEA4C0C404141EB010111F4801FA4F1A5
:1002D0000104E9D191F0000F04BF01460020B1FAFA
:1002E00081F308BF2033A3F10B03B3F120020CDA32
:1002F0000C3208DD02F1140CC2F10C0201FA0CF010
:1003000021FA02F10CE002F11402D8BFC2F1200C74
:1003100001FA02F120FA0CFCDCBF41EA0C0190402A
:10032000E41AA2BF01EB0451294330BD6FEA040473
:100330001F3C1CDA0C340EDC04F11404C4F120025E
:1003400020FA04F001FA02F340EA030021FA04F370
:1003500045EA030130BDC4F10C04C4F1200220FAC7
:1003600002F001FA04F340EA0300294630BD21FA05
:1003700004F0294630BD94F0000F83F4801306BFCB
:1003800081F480110134013D4EE77FEA645C18BFBF
:100390007FEA655C29D094EA050F08BF90EA020F56
:1003A00005D054EA000C04BF1946104630BD91EA4E
:1003B000030F1EBF0021002030BD5FEA545C05D151
:1003C0004000494128BF41F0004130BD14F5800490
:1003D0003CBF01F5801130BD01F0004545F0FE4104
:1003E00041F470014FF0000030BD7FEA645C1ABF39
:1003F000194610467FEA655C1CBF0B46024650EA70
:10040000013406BF52EA033591EA030F41F400219B
:1004100030BD00BF90F0000F04BF0021704730B521
:100420004FF4806404F132044FF000054FF00001F6
:1004300050E700BF90F0000F04BF0021704730B5B7
:100440004FF4806404F1320410F0004548BF40428C
:100450004FF000013EE700BF42004FEAE2014FEAE1
:1004600031014FEA02701FBF12F07F4393F07F4FBC
:1004700081F06051704792F0000F14BF93F07F4FEE
:10048000704730B54FF4607401F0004521F0004131
:1004900020E700BF50EA010208BF704730B54FF0B7
:1004A00000050AE050EA010208BF704730B511F0BC
:1004B000004502D5404261EB41014FF4806404F1F4
:1004C00032045FEA915C3FF4DCAE4FF003025FEA76
:1004D000DC0C18BF03325FEADC0C18BF033202EBFE
:1004E000DC02C2F1200300FA03FC20FA02F001FA58
:1004F00003FE40EA0E0021FA02F11444C1E600BFF7
:1005000070B54FF0FF0C4CF4E06C1CEA11541DBFA9
:100510001CEA135594EA0C0F95EA0C0F00F0DEF874
:100520002C4481EA030621EA4C5123EA4C5350EA59
:10053000013518BF52EA033541F4801143F48013AA
:1005400038D0A0FB02CE4FF00005E1FB02E506F03B
:100550000042E0FB03E54FF00006E1FB03569CF090
:10056000000F18BF4EF0010EA4F1FF04B6F5007F96
:1005700064F5407404D25FEA4E0E6D4146EB060608
:1005800042EAC62141EA55514FEAC52040EA5E5091
:100590004FEACE2EB4F1FD0C88BFBCF5E06F1ED83B
:1005A000BEF1004F08BF5FEA500E50F1000041EB72
:1005B000045170BD06F0004646EA010140EA02001F
:1005C00081EA0301B4EB5C04C2BFD4EB0C0541EA41
:1005D000045170BD41F480114FF0000E013C00F356
:1005E000AB8014F1360FDEBF002001F0004170BD7A
:1005F000C4F10004203C35DA0C341BDC04F1140493
:10060000C4F1200500FA05F320FA04F001FA05F21E
:1006100040EA020001F0004221F0004110EBD370EB
:1006200021FA04F642EB06015EEA430E08BF20EA17
:10063000D37070BDC4F10C04C4F1200500FA04F3BA
:1006400020FA05F001FA04F240EA020001F000414C
:1006500010EBD37041F100015EEA430E08BF20EABF
:10066000D37070BDC4F1200500FA05F24EEA020E07
:1006700020FA04F301FA05F243EA020321FA04F036
:1006800001F0004121FA04F220EA020000EBD370ED
:100690005EEA430E08BF20EAD37070BD94F0000FED
:1006A0000FD101F00046400041EB010111F4801F21
:1006B00008BF013CF7D041EA060195F0000F18BFD2
:1006C000704703F00046520043EB030313F4801F0E
:1006D00008BF013DF7D043EA0603704794EA0C0FC8
:1006E0000CEA135518BF95EA0C0F0CD050EA4106DE
:1006F00018BF52EA4306D1D181EA030101F000415B
:100700004FF0000070BD50EA410606BF1046194682
:1007100052EA430619D094EA0C0F02D150EA01368E
:1007200013D195EA0C0F05D152EA03361CBF1046CF
:1007300019460AD181EA030101F0004141F0FE416E
:1007400041F470014FF0000070BD41F0FE4141F4F2
:10075000780170BD70B54FF0FF0C4CF4E06C1CEAF2
:1007600011541DBF1CEA135594EA0C0F95EA0C0FA7
:1007700000F0A7F8A4EB050481EA030E52EA033562
:100780004FEA013100F088804FEA03334FF0805583
:1007900045EA131343EA12634FEA022245EA1115B0
:1007A00045EA10654FEA00260EF000419D4208BF61
:1007B000964244F1FD0404F5407402D25B084FEA0E
:1007C0003202B61A65EB03055B084FEA32024FF4BA
:1007D00080104FF4002CB6EB020E75EB030E22BF17
:1007E000B61A754640EA0C005B084FEA3202B6EBD7
:1007F000020E75EB030E22BFB61A754640EA5C0086
:100800005B084FEA3202B6EB020E75EB030E22BF15
:10081000B61A754640EA9C005B084FEA3202B6EB16
:10082000020E75EB030E22BFB61A754640EADC00D5
:1008300055EA060E18D04FEA051545EA16754FEA37
:1008400006164FEAC30343EA52734FEAC2025FEA55
:100850001C1CC0D111F4801F0BD141EA00014FF0E4
:1008600000004FF0004CB6E711F4801F04BF0143B5
:100870000020B4F1FD0C88BFBCF5E06F3FF6AFAED1
:10088000B5EB030C04BFB6EB020C5FEA500C50F161
:10089000000041EB045170BD0EF0004E4EEA1131E4
:1008A00014EB5C04C2BFD4EB0C0541EA045170BDEB
:1008B00041F480114FF0000E013C90E645EA060E2F
:1008C0008DE60CEA135594EA0C0F08BF95EA0C0F5D
:1008D0003FF43BAF94EA0C0F0AD150EA01347FF4A5
:1008E00034AF95EA0C0F7FF425AF104619462CE77C
:1008F00095EA0C0F06D152EA03353FF4FDAE1046DF
:10090000194622E750EA410618BF52EA43067FF42F
:10091000C5AE50EA41047FF40DAF52EA43057FF4BF
:10092000EBAE12E74FF0FF3C06E000BF4FF0010CCA
:1009300002E000BF4FF0010C4DF804CD4FEA410C2E
:100940007FEA6C5C4FEA430C18BF7FEA6C5C1BD0FB
:1009500001B050EA410C0CBF52EA430C91EA030F7C
:1009600002BF90EA020F0020704710F1000F91EAD9
:10097000030F58BF994208BF90422CBFD8176FEAA7
:10098000E37040F0010070474FEA410C7FEA6C5C75
:1009900002D150EA013C07D14FEA430C7FEA6C5C7C
:1009A000D6D152EA033CD3D05DF8040B704700BFA8
:1009B0008446104662468C461946634600E000BFF6
:1009C00001B5FFF7B7FF002848BF10F1000F01BDC8
:1009D0004DF808EDFFF7F4FF0CBF012000205DF893
:1009E00008FB00BF4DF808EDFFF7EAFF34BF012018
:1009F00000205DF808FB00BF4DF808EDFFF7E0FFB1
:100A000094BF012000205DF808FB00BF4DF808ED01
:100A1000FFF7CEFF94BF012000205DF808FB00BF68
:100A20004DF808EDFFF7C4FF34BF012000205DF84A
:100A300008FB00BF80F0004002E000BF81F00041F1
:100A400042001FBF5FEA410392EA030F7FEA226C74
:100A50007FEA236C6AD04FEA1262D2EB1363C1BF04
:100A6000D218414048404140B8BF5B42192B88BF73
:100A7000704710F0004F40F4000020F07F4018BF96
:100A8000404211F0004F41F4000121F07F4118BFB6
:100A9000494292EA030F3FD0A2F1010241FA03FC5E
:100AA00010EB0C00C3F1200301FA03F100F0004346
:100AB00002D5494260EB4000B0F5000F13D3B0F10E
:100AC000807F06D340084FEA310102F10102FE2A7D
:100AD00051D2B1F1004F40EBC25008BF20F00100ED
:100AE00040EA03007047490040EB000010F4000F9B
:100AF000A2F10102EDD1B0FA80FCACF1080CB2EB2E
:100B00000C0200FA0CF0AABF00EBC250524218438C
:100B1000BCBFD0401843704792F0000F81F4000131
:100B200006BF80F400000132013BB5E74FEA410304
:100B30007FEA226C18BF7FEA236C21D092EA030F70
:100B400004D092F0000F08BF0846704790EA010FEA
:100B50001CBF0020704712F07F4F04D1400028BF17
:100B600040F00040704712F100723CBF00F50000F9
:100B7000704700F0004343F0FE4040F4000070472F
:100B80007FEA226216BF08467FEA236301464202DB
:100B900006BF5FEA412390EA010F40F480007047EE
:100BA0004FF0000304E000BF10F0004348BF404294
:100BB0005FEA000C08BF704743F0964301464FF0D0
:100BC00000001CE050EA010208BF70474FF000032C
:100BD0000AE000BF50EA010208BF704711F000436D
:100BE00002D5404261EB41015FEA010C02BF84463D
:100BF0000146002043F0B64308BFA3F18053A3F59C
:100C00000003BCFA8CF2083AA3EBC25310DB01FAE2
:100C100002FC634400FA02FCC2F12002BCF1004F66
:100C200020FA02F243EB020008BF20F001007047F7
:100C300002F1200201FA02FCC2F1200250EA4C004B
:100C400021FA02F243EB020008BF20EADC70704791
:100C50004FF0FF0C1CEAD0521EBF1CEAD15392EA9F
:100C60000C0F93EA0C0F6FD01A4480EA010C40027B
:100C700018BF5FEA41211ED04FF0006343EA5010D5
:100C800043EA5111A0FB01310CF00040B1F5000F17
:100C90003EBF490041EAD3715B0040EA010062F1C6
:100CA0007F02FD2A1DD8B3F1004F40EBC25008BFB0
:100CB00020F00100704790F0000F0CF0004C08BFCE
:100CC00049024CEA502040EA51207F3AC2BFD2F19B
:100CD000FF0340EAC250704740F400004FF00003A9
:100CE000013A5DDC12F1190FDCBF00F000407047E3
:100CF000C2F10002410021FA02F1C2F1200200FA21
:100D000002FC5FEA310040F1000053EA4C0308BFE7
:100D100020EADC70704792F0000F00F0004C02BF38
:100D2000400010F4000F013AF9D040EA0C0093F0B3
:100D3000000F01F0004C02BF490011F4000F013B0D
:100D4000F9D041EA0C018FE70CEAD15392EA0C0F7B
:100D500018BF93EA0C0F0AD030F0004C18BF31F0E6
:100D6000004CD8D180EA010000F00040704790F0BC
:100D7000000F17BF90F0004F084691F0000F91F060
:100D8000004F14D092EA0C0F01D142020FD193EA26
:100D90000C0F03D14B0218BF084608D180EA0100AE
:100DA00000F0004040F0FE4040F40000704740F08A
:100DB000FE4040F4400070474FF0FF0C1CEAD05258
:100DC0001EBF1CEAD15392EA0C0F93EA0C0F69D0B4
:100DD000A2EB030280EA010C49024FEA402037D01F
:100DE0004FF0805343EA111143EA10130CF0004016
:100DF0008B4238BF5B0042F17D024FF4000C8B4206
:100E000024BF5B1A40EA0C00B3EB510F24BFA3EBE5
:100E1000510340EA5C00B3EB910F24BFA3EB9103B5
:100E200040EA9C00B3EBD10F24BFA3EBD10340EA0F
:100E3000DC001B0118BF5FEA1C1CE0D1FD2A3FF655
:100E400050AF8B4240EBC25008BF20F0010070470A
:100E50000CF0004C4CEA50207F32C2BFD2F1FF03AD
:100E600040EAC250704740F400004FF00003013ADE
:100E700037E792F0000F00F0004C02BF400010F482
:100E8000000F013AF9D040EA0C0093F0000F01F096
:100E9000004C02BF490011F4000F013BF9D041EAB8
:100EA0000C0195E70CEAD15392EA0C0F08D14202EB
:100EB0007FF47DAF93EA0C0F7FF470AF084676E7BE
:100EC00093EA0C0F04D14B023FF44CAF08466EE797
:100ED00030F0004C18BF31F0004CCAD130F0004265
:100EE0007FF45CAF31F000437FF43CAF5FE700BFBD
:100EF0004FEA4002B2F1FE4F0FD34FF09E03B3EB27
:100F000012620DD94FEA002343F0004310F0004F66
:100F100023FA02F018BF404270474FF000007047BC
:100F200012F1610F01D1420205D110F0004008BF5B
:100F30006FF0004070474FF000007047084B10B54D
:100F4000044618684FF47A73B0FBF3F000F01CFB12
:100F5000002221464FF0FF3000F0D6FA002010BDED
:100F60002C00002008B5032000F0BCFA0020FFF799
:100F7000E5FF04F0FDFA002008BD0000024A1368F6
:100F800001331360704700BFC4000020014B186894
:100F9000704700BFC400002013B50190FFF7F6FFB3
:100FA0000446FFF7F3FF019B001B9842F9D302B000
:100FB00010BD0000F7B5044608B9012092E0C36CEB
:100FC00073B9036580F84830544B1A6A42F0010245
:100FD0001A621B6A03F001030193019B02F066FB96
:100FE000E36CDB06E9D4E36C4D4A23F4885323F029
:100FF000020343F00203E3645368616823F440335F
:101000000B4353604FF4007090FAA0F00223B0FA43
:1010100080F0616A93FAA3F3B3FA83F36569E26837
:1010200001FA03F32A43256A2A43E56B05FA00F027
:1010300002431343626B2569102A1CBFA06B024355
:10104000206818BF1343026812F0400223D1A6693A
:10105000E7693343A668B5F5807F46EA070643D0C3
:10106000012D08BF4FF480723243E66A012E0DD184
:1010700000293BD14FF4604191FAA1F1B1FA81F618
:10108000216B42F400620139B1400A4346682549A8
:1010900031400A4342608168234AB5F5807F02EA05
:1010A000010242EA0302826001D0012D27D1056BC3
:1010B0004FF0F87292FAA2F2B2FA82F1A26A013A01
:1010C0008A4025F0F8710A4302638168174A0A4092
:1010D000934218D100202065E36C23F0030343F012
:1010E0000103E36403B0F0BD2A46BDE7E16C41F0C3
:1010F0002001E164216D41F001012165C6E7026B29
:1011000022F0F872E0E7E36C23F0120343F01003DF
:10111000E364236D43F0010323654EE7003802408A
:1011200000270140FF16FCFC89F1FFC0FEFF80BFD5
:101130007047436A10B5DA6C12F0500F24D1DA6CA4
:1011400042F40072DA641A68916811F0405F17D1B6
:10115000596AA9B9116B11F0F87F02D0916849055D
:101160000ED4516821F020015160DA6C22F48072B3
:10117000DA64DA6CD2045EBFDA6C42F00102DA643F
:101180001846FFF7D5FF10BD5B6CBDE810401B6B28
:101190001847704708B5406AFFF7FBFF08BD704766
:1011A000406A08B5C36C43F04003C364036D43F069
:1011B00004030365FFF7F3FF08BD0000002373B5C8
:1011C000019390F84830012B00F09C8001234D687A
:1011D00080F84830062D04684FEA85030A6821D854
:1011E0002B441F25266C053B9D4026EA050502FA87
:1011F00003F32B432364092A4AD80725636902EBCA
:1012000042068968B54023EA0503B1400B43636198
:10121000A2F11003012B5DD9002380F84830184655
:1012200002B070BD0C2D0BD82B441F25E66B233B61
:101230009D4026EA050502FA03F32B43E363DAE750
:10124000122D0BD82B441F25A66B413B9D4026EA4F
:10125000050502FA03F32B43A363CCE7182D0BD843
:101260002B441F25666B5F3B9D4026EA050502FA6D
:1012700003F32B436363BEE72B441F25266B7D3BA3
:101280009D4026EA050502FA03F32B432363B2E7E8
:10129000132A0DD8072602EB420523691E3D8968F3
:1012A000AE4023EA060301FA05F52B432361AFE7BD
:1012B0001A2A0DD8072602EB4205E3683C3D8968EF
:1012C000AE4023EA060301FA05F52B43E3609FE7EE
:1012D00000BF9DE70C4B596809029DD45968102A3C
:1012E00041F40001596097D1084B094A1B68B3FBD0
:1012F000F2F20A2353430193019B002B8CD0019BF4
:10130000013BF8E702208BE7002701402C0000207A
:1013100040420F00002373B50193036804461A6826
:10132000520602D5002002B070BD9A6842F0010258
:101330009A60134B134A1B68B3FBF2F303EB4303AE
:101340000193019BC3B9FFF721FE064623681D6880
:1013500015F04005E6D1FFF719FE801B0228F5D9EC
:10136000E36C84F8485043F01003E364236D0120DC
:1013700043F001032365D6E7019B013BE0E700BF93
:101380002C00002040420F002DE9D84190F8483051
:101390000446012B0F4690464ED0012380F848307A
:1013A000FFF7B8FF0646002843D1E06C216820F41F
:1013B000E06020F0010040F48070E0644B683A4641
:1013C0005B0548BFE06C01F1580142BF20F440507A
:1013D00040F48050E064E36C606C13F480531CBFF5
:1013E000236D23F006032365002384F84830134B54
:1013F0008362134BC362134B03636FF0220341F804
:10140000583C51F8543C43F0806341F8543C51F847
:10141000503C43F4807341F8503C434600F012F9CD
:1014200023689A6812F0405F03D19A6842F08042C4
:101430009A603046BDE8D8810226FAE733110008E9
:1014400095110008A111000838B5036804461A6810
:10145000520601D4002038BD9A6822F001029A6039
:10146000FFF794FD054623681B685B06F2D5FFF77E
:101470008DFD401B0228F6D9E36C012043F01003D8
:10148000E364236D43F00103236538BD90F84830D1
:1014900010B5012B044622D0012380F84830FFF715
:1014A000D3FFA8B92268606C936823F480739360BB
:1014B00000F006F9E36C78B923F4885323F00103B4
:1014C00043F001032268E364536823F080635360B0
:1014D000002384F8483010BD43F04003F2E70220B7
:1014E00010BD0000074A0002D36800F4E06023F456
:1014F000E0631B041B0C43F0BF6343F4003303435E
:10150000D360704700ED00E0174B30B5DC68C4F3E2
:101510000224C4F10703251D042B28BF0423062D34
:101520004FF0010598BF002405FA03F303F1FF33E0
:1015300088BF033C1940A14005FA04F4013C224055
:10154000002842EA01024FEA0212AFBF00F16040F8
:10155000064B00F00F00D2B2A5BFD2B200F5614039
:101560001A5480F8002330BD00ED00E014ED00E0D7
:101570000123420900F01F0003FA00F0014B43F879
:101580002200704700E100E00138B0F1807F0AD20C
:10159000F021064B064A586082F8231000200722EB
:1015A00098601A6070470120704700BF10E000E0AB
:1015B00000ED00E010B5002839D001681D4B14245F
:1015C00099422CD81C4AA3F207430A44B2FBF4F216
:1015D00092000264C3630223846880F82130436868
:1015E0000A682343C46822F47F522343046922F02B
:1015F000300223434469234384692343C46923435A
:1016000013430B600122002383638362C36203637D
:10161000436380F8212080F82030184610BD074B26
:101620000B44B3FBF4F39B000364054BD2E70120AA
:1016300010BD00BF07640240F89FFDBFF89BFDBFCF
:1016400000640240F0B590F82040012C36D001240F
:1016500090F8215080F82040EDB2A5424FF00006EE
:101660004FF0020428D180F8214004688663266880
:10167000076C26F001062660C66BBD40756063608E
:1016800043680568102BC36A0BBFA260A160E160CC
:10169000E2604BB1236843F00E0323602B68002007
:1016A00043F001032B60F0BD236823F004032360A3
:1016B000236843F00A03F0E780F820600220F0BDC1
:1016C000026803461168C06B21F00E0111601168B9
:1016D00021F00101116001211A6C01FA02F242604D
:1016E000002083F8211083F82000704770B4042490
:1016F000C16B026C0E680368944026421D680ED0D0
:1017000015F0040F0BD01A6892065EBF1A6822F01B
:1017100004021A60C36A4C6073B370BC1847022499
:101720009440264212D015F0020F0FD01A68950689
:1017300006D41A6822F00A021A60012380F82130C8
:1017400000234C6080F82030836AE5E70824944049
:10175000344211D02C070FD51C6824F00E041C60F5
:10176000012303FA02F24A60836380F821300023E8
:1017700080F82030036BCFE770BC704700232DE961
:10178000F74FD1F80080DFF86891574A38FA03F430
:1017900002D103B0BDE8F08F012404FA03FA18EA7D
:1017A0000A0500F099804C6824F0100BBBF1020F81
:1017B00014D10F274FEAD30E00EB8E0E03F0070C67
:1017C000DEF820604FEA8C0C07FA0CF726EA0707D0
:1017D0000E6906FA0CF63E43CEF8206003274FEA66
:1017E000430C07FA0CF7FF43066804F0030E3E4073
:1017F0000EFA0CFE0BF1FF3B4EEA0606BBF1010FA1
:10180000066011D8866806EA070BCE6806FA0CFE59
:101810004EEA0B068660466826EA0A0AC4F30016FA
:101820009E4046EA0A064660C66837408E6806FA59
:101830000CF63743E600C7604ED54FF00F0ED9F8CF
:10184000206023F0030746F00106C9F82060D9F8AC
:10185000206007F1804706F00106019607F5803702
:1018600003F0030C019E4FEA8C0CBE680EFA0CFECE
:1018700026EA0E0E1D4EB04230D006F58066B0420C
:101880002ED006F58066B0422CD006F58066B042B8
:1018900014BF0526032606FA0CF646EA0E06BE60BD
:1018A000EF43166814F4803F0CBF3E402E43166091
:1018B000566814F4003F0CBF3E402E4356609668B5
:1018C00014F4801F0CBF3E402E439660D668A402DD
:1018D00054BF3E402E43D660013357E70026DAE777
:1018E0000126D8E70226D6E70004014000000240A6
:1018F000003802400369194214BF012000207047DC
:101900000AB1816170470904FBE70268536913F467
:1019100080630DD06FF4806353610423202203643D
:101920000023036380F83C3080F83D20012070479D
:10193000184670472DE9F843044617469946C1F307
:1019400007488EB22568B8F1010F0CBF6B69AB690F
:1019500036EA030314BF0120002008B9BDE8F8836C
:101960006B695A0512D52B68202243F400732B6053
:101970006FF480636B6104232364002301202363DD
:1019800084F83C3084F83D20BDE8F8837B1CD9D036
:101990004FB900232022236384F83C3084F83D2093
:1019A0000320BDE8F883FFF7F1FAA0EB09008742B6
:1019B000C8D2EEE72DE9F843044690461F46089E3C
:1019C000C1F307498DB22368B9F1010F0CBF5B6900
:1019D0009B6935EA03030CBF01230023434502D072
:1019E0000020BDE8F8837B1CEDD05FB900232022E6
:1019F000236384F83C3084F83D20032084F83E3093
:101A0000BDE8F883FFF7C2FA801B8742DBD2EDE71F
:101A100070B504460D46164623685B691B0601D562
:101A2000002070BD2046FFF770FFA8B96A1CF3D0F4
:101A300065B9236C202243F0200323640023032094
:101A4000236384F83C3084F83D2070BDFFF79EFA94
:101A5000801B8542E0D2ECE7012070BD70B50446E2
:101A60000D4616462068436913F0400301D000205C
:101A700070BD4269D2060BD56FF010024261202280
:101A8000236484F83C302363012084F83D2070BD3A
:101A90005DB9236C032043F020032364202384F8E2
:101AA0003D30002384F83C3070BDFFF76FFA801B97
:101AB0008542D7D2EDE770B504460D461646236839
:101AC0005B695B0701D5002070BD2046FFF71DFF55
:101AD000A8B96A1CF3D065B9236C202243F0200317
:101AE000236400230320236384F83C3084F83D20E2
:101AF00070BDFFF74BFA801B8542E0D2ECE7012076
:101B000070BD000070B5044608B9012070BD90F8A2
:101B10003D3003F0FF021BB980F83C2002F014F8BE
:101B200001F028F83B4B9842EFD924233A4D84F832
:101B30003D30B0FBF5F5236838491A6822F0010200
:101B40001A605A6822F03F022A435A6062681E6A8D
:101B50008A4281BF4FF4967169434FF47A75B1FBA5
:101B6000F5F194BF691C013126F03F06314319623B
:101B7000DD692A4925F44F458A4225F0FF0530D812
:101B80005200B0FBF2F0C0F30B02032A98BF04200E
:101B90002843D8611968206AE26921F0C001024334
:101BA0000A431A609968E068226921F403410243FC
:101BB00021F0FF010A439A60D968A069626921F0A7
:101BC000FF0102430A43DA601A68002042F0010272
:101BD0001A602023206484F83D30206384F83E009E
:101BE00070BDA16849B902EB4202B0FBF2F0C0F34C
:101BF0000B0262B140F40040CAE719214A43B0FB2E
:101C0000F2F0C0F30B0212B140F44040C0E70120F3
:101C1000BEE700BF7F841E0040420F00A086010087
:101C20002DE9FF4104461F460D469046FFF7AEF9E9
:101C300094F83D300646202B04D00225284604B0F7
:101C4000BDE8F0810090192301224FF002112046D7
:101C5000FFF7B0FE0028F0D194F83C30012BECD017
:101C6000012384F83C3023681A68D2075EBF1A68E3
:101C700042F001021A601A6822F400621A602122FE
:101C800084F83D20102284F83E2000222264A2F530
:101C900080326785E262628DC4F824802285E26A20
:101CA000042A06D0E26A012A03D0E26A12F5803FD4
:101CB00004D11A6842F480721A6002E0226B122A80
:101CC000F7D000960A9B00224FF001112046FFF743
:101CD00071FE28BB23692268B3F5804F12D105F04D
:101CE000FE05156133460A9A36492046FFF722FE63
:101CF0000546A0B9236803905A6903929B69039330
:101D0000039B4FE0EB1103F0060343F0F003136174
:101D10002D4933460A9A2046FFF70CFE48B1236C42
:101D2000236C042B4FF0000307D184F83C300125CD
:101D300084E72368EDB21D61D4E784F83C300325C5
:101D40007CE732460A992046FFF762FE40B1236CD9
:101D5000042BF4D12268136843F400731360E6E7A0
:101D6000616A20684B1C63620B78228D0361638D6E
:101D7000013B9BB26385531E238543695B070AD5EC
:101D80004FB18B1C63624B78023A0361638D2285ED
:101D9000013B9BB2638532460A992046FFF78BFED2
:101DA0000028D4D1238D002BCBD121680A6842F4BE
:101DB00000720A60202284F83C3084F83D2084F8C8
:101DC0003E303BE702000100080001002DE9F0432E
:101DD000044689B098460D469146109FFFF7D6F805
:101DE00094F83D300646202B04D00225284609B041
:101DF000BDE8F0830090192301224FF00211204624
:101E0000FFF7D8FD0028F0D194F83C30012BECD03E
:101E1000012384F83C3023681A68D2075EBF1A6831
:101E200042F001021A601A6822F400621A6022224B
:101E300084F83D20102284F83E2000222264A2F57E
:101E40008032A4F82A80E262628DC4F82490228550
:101E50001A6842F480621A60E26A042A06D0E26AD2
:101E6000012A03D0E26A12F5803F04D11A6842F4D5
:101E700080721A6002E0226B112AF7D000963B466E
:101E800000224FF001112046FFF794FD00284AD1AF
:101E90002369B3F5804F236836D145F00105EDB2D3
:101EA0001D6133463A4682492046FFF743FD054609
:101EB000002837D1228D2368002A66D0012A77D1E5
:101EC0001A6822F480621A6004955A6904929A6929
:101ED0000492049A1A6842F400721A60DFF8D881FA
:101EE000238D002B5BD0032B00F2C380012B7AD112
:101EF000324639462046FFF7B1FD002800F09080B9
:101F0000236C202B16D13EE04FEAE51808F00608B6
:101F100048F0F0021A61674933463A462046FFF717
:101F200009FD48B1236C236C042B4FF0000328D12A
:101F300084F83C30012559E72368EDB21D613A462B
:101F400033465B492046FFF7F5FC02460028E9D1FD
:101F50002368079059692046079199690791079965
:101F6000196841F48071196000963B464FF00111E9
:101F7000FFF720FD0028D6D1226848F0F103136155
:101F80008FE784F83C30032530E703955A690392C4
:101F90009A690392039A1A6842F400721A60202325
:101FA00084F83D30002384F83E3084F83C301DE74F
:101FB000022A1A680DD122F480621A601A6842F46B
:101FC00000621A6005955A6905929B690593059B05
:101FD00084E742F480621A6006955A6906929B690A
:101FE0000693069B7AE7022B00963B464FF00002D1
:101FF0004146204622D1FFF7DDFC0028C3D12368EB
:102000001A6842F400721A60626A1B69511C6162AC
:102010001370238D013B2385638D013B9BB2638548
:10202000636A5A1C6262226812691A70238D013B2E
:102030002385638D013B9BB2638551E7FFF7BAFCB3
:10204000024600289FD12368196821F48061196035
:10205000616A1B69481C60620B70238D0096013B0E
:102060002385638D4146013B9BB2638520463B46F9
:10207000C1E7324639462046FFF7F0FC00287FF4DE
:102080003FAF636A5A1C6262226812691A70238D1C
:102090002268013B2385638D013B9BB263855369B5
:1020A0005B077FF51DAF636A591C6162BCE700BF27
:1020B0000200010008000100040001002DE9FF47B3
:1020C00004461F468A469146FEF760FF94F83D306D
:1020D0000646202B03D0022004B0BDE8F087009014
:1020E000192301224FF002112046FFF763FC00285C
:1020F000F1D194F83C30012BEDD0012384F83C3031
:10210000236800251A680AF0FE0AD1075EBF1A6824
:1021100042F001021A601A6822F400621A60242355
:1021200084F83D30364B2564E36222684FF001119C
:102130001368204643F48073136000963B460022E8
:10214000FFF738FC08B10320C6E723684FF0A0086A
:10215000C3F810A0FEF71AFF064623685A699007D5
:1021600026D54FF0200884F83D805A6991072DD577
:102170001A684FF0021142F400721A6000220392B2
:102180005A69204603929B6901220393039B0096A0
:102190001923FFF70FFC0028D5D184F83D8084F87F
:1021A0003C0099E7FEF7F2FE801B87420BD3D4E791
:1021B0005A695205D5D494F83D20A02AD1D07A1C72
:1021C000CCD0002FEED184F83D80C6E71A684FF0DE
:1021D000021142F400721A606FF4806220465A6164
:1021E000009619230122FFF7E5FB0028ABD101354A
:1021F000A9459AD884F83C0084F83D8001206BE71B
:102200000000FFFF1C4B82B09A6812F0F00F0CD058
:1022100000221A490B6823F0010313430B6008687E
:1022200000F00100504002B070475A6A144912F0A1
:10223000805F0FD00A6802F4C052B2F5C05FE7D1E8
:10224000B0F5404FE4D10D4A136843F00403136026
:102250000122DEE75A6A42F080525A625A6A02F05C
:1022600080520192019A0A68596A02F4C05221F020
:1022700080515962E1E700BF00380240003C024053
:102280000070004003682DE9F743D90704466AD47B
:1022900023689A0700F1E6802368DE0655D5C14D14
:1022A000AB6813F00C0F40F083814FF4007393FA86
:1022B000A3F2296893FAA3F3B3FA83F3012203F09C
:1022C0001F0302FA03F30B4202D0A369002B6ED066
:1022D000B44D206A6B6803F46043984240F24A812F
:1022E000FFF790FF002862D16B68226A23F46043F5
:1022F00013436B6069684FF07F4393FAA3F3B3FA1B
:1023000083F2E369934021F07F4213436B604FF403
:10231000604393FAA3F3B3FA83F0A24BF0219A68D7
:1023200091FAA1F1B1FA81F1236A02F0F002C340FF
:10233000581C4FF40043CA409B4983408A5C0020EC
:10234000D3409A4A1360FEF7F9FD23681D0700F198
:1023500091812368580700F1D381626A002A40F016
:102360005782002024E08F4B9A6802F00C02082A62
:1023700007D09A6802F00C020C2A1CD19B68DB0380
:1023800019D54FF4003393FAA3F2864A116893FAF1
:10239000A3F3B3FA83F3012203F01F0302FA03F35A
:1023A0000B423FF475AF6368002B7FF471AF0120DF
:1023B00003B0BDE8F08363687A4D012B20D12B6810
:1023C00043F480332B60FEF7E1FD4FF40035804687
:1023D0000126744F95FAA5F33A6895FAA5F3B3FA76
:1023E00083F303F01F0306FA03F313427FF450AFA5
:1023F000FEF7CCFDA0EB08006428EBD90320D7E75B
:1024000013BB2B684FF4003623F480332B602B680A
:10241000012723F480232B60FEF7B8FD804696FA4F
:10242000A6F32A6896FAA6F3B3FA83F303F01F0320
:1024300007FA03F313423FF42BAFFEF7A7FDA0EB1F
:1024400008006428EBD9D9E7052B2B6803D143F4A6
:1024500080232B60B3E723F480332B602B6823F4B5
:102460008023AFE74F4B9A6802F00C02042A07D092
:102470009A6802F00C020C2A24D19B68DF0321D455
:10248000022393FAA3F2474A106893FAA3F3B3FA2C
:1024900083F3012103F01F0301FA03F30342134600
:1024A00002D0E2688A4282D158684FF4F85292FA18
:1024B000A2F2B2FA82F122698A4020F4F8510A436A
:1024C0005A60E9E6E268012582B395FAA5F3B3FA0A
:1024D00083F303F1845303F58E139B001D60FEF715
:1024E00055FD022780462F4E97FAA7F3326897FAD8
:1024F000A7F3B3FA83F303F01F0305FA03F31342C0
:102500000DD071684FF4F85393FAA3F3B3FA83F242
:102510002369934021F4F85213437360BCE6FEF73D
:1025200035FDA0EB08000228DED967E795FAA5F390
:10253000B3FA83F303F1845303F58E139B001A60FF
:10254000FEF724FD02268046164F96FAA6F33A6857
:1025500096FAA6F3B3FA83F303F01F0305FA03F325
:1025600013423FF499AEFEF711FDA0EB08000228DC
:10257000EBD943E76B6823F4604303436B606968FE
:102580004FF07F4393FAA3F3B3FA83F2E3699340E6
:1025900021F07F4213436B60FFF734FE00283FF4C5
:1025A000B6AE04E700380240B86700082C000020EF
:1025B000A2694FF48073002A37D093FAA3F3B3FAD9
:1025C00083F3012603F1845303F58E139B001E60F1
:1025D000FEF7DCFC4FF40077804697FAA7F32A68F1
:1025E00097FAA7F3B3FA83F303F01F0306FA03F392
:1025F000134213D06B68226A23F4604313436B6069
:1026000069684FF07F4393FAA3F3B3FA83F2E36967
:10261000934021F07F4213436B6096E6FEF7B6FCD1
:10262000A0EB08000228D8D9E8E693FAA3F3B3FA9E
:1026300083F303F1845303F58E139B001A60FEF7B6
:10264000A5FC4FF400768046012796FAA6F32A6887
:1026500096FAA6F3B3FA83F303F01F0307FA03F322
:1026600013423FF472AEFEF791FCA0EB0800022883
:10267000EBD9C3E662690125A94902B395FAA5F32E
:10268000B3FA83F30B449B001D60FEF77FFC022628
:102690008046A44F96FAA6F37A6B96FAA6F3B3FA9D
:1026A00083F303F01F0305FA03F313427FF451AEE3
:1026B000FEF76CFCA0EB08000228EBD99EE695FA29
:1026C000A5F3B3FA83F30B449B001A60FEF75EFC9C
:1026D00002268046934F96FAA6F37A6B96FAA6F3F3
:1026E000B3FA83F303F01F0305FA03F313423FF435
:1026F00030AEFEF74BFCA0EB08000228EBD97DE6DC
:10270000884B5A6AD10034D401265A6A42F080526A
:102710005A625B6A03F080530193019B824D2B68E0
:10272000DA0528D5A3687F4D012B34D16B6B43F4B8
:1027300080736B63FEF72AFC4FF400758146012716
:10274000DFF8E08195FAA5F3D8F8342095FAA5F3DF
:10275000B3FA83F303F01F0307FA03F313424ED0D7
:10276000002E3FF4FAAD6F4A536A23F08053536250
:10277000F3E50026D2E72B6843F480732B60FEF765
:1027800005FC07462B68DB05CCD4FEF7FFFBC01B1E
:102790006428F7D932E623BB6B6B4FF4007723F440
:1027A00080736B636B6B4FF0010823F480636B6382
:1027B000FEF7ECFB814697FAA7F36A6B97FAA7F34B
:1027C000B3FA83F303F01F0308FA03F31342C7D0ED
:1027D000FEF7DCFB41F28833A0EB09009842EAD90E
:1027E0000CE6052B6B6B03D143F480636B639DE7B1
:1027F00023F480736B636B6B23F4806399E7FEF7BC
:10280000C5FB41F28833A0EB090098429AD9F5E55F
:10281000444DAB6803F00C030C2B3FF4C8AD022A07
:102820004FF0807356D193FAA3F3B3FA83F30022E7
:1028300003F1845303F58E139B001A60FEF7A6FB89
:102840002E4680464FF00077012597FAA7F33268AD
:1028500097FAA7F3B3FA83F303F01F0305FA03F320
:10286000134230D1B268A36AE16A22F47D020B43BD
:102870001343226B1343B3604FF0807393FAA3F3B7
:10288000B3FA83F303F1845303F58E139B001D60A9
:10289000FEF77CFB4FF0007407460125214E94FAA9
:1028A000A4F3326894FAA4F3B3FA83F303F01F039A
:1028B00005FA03F313427FF454ADFEF767FBC01B28
:1028C0000228ECD99AE5FEF761FBA0EB080002288C
:1028D000BBD993E593FAA3F3B3FA83F3002203F190
:1028E000845303F58E139B001A60FEF74FFB4FF0E5
:1028F00000740746012694FAA4F32A6894FAA4F314
:10290000B3FA83F303F01F0306FA03F313423FF411
:1029100028ADFEF73BFBC01B0228ECD96EE500BFDB
:10292000A0C1911000380240007000401E4910B54F
:102930008B6803F00C02082A05D00C2A05D0042A63
:1029400022D11A4810BD1A4810BD4FF4701292FAE5
:10295000A2F2B2FA82F203F4701020FA02F21548E1
:10296000845C4FF4400090FAA0F0B0FA80F203F4D7
:1029700040008B68D040DB034CBF0D4B0B4B01304C
:102980006343B3FBF0F010BD48684FF4604393FA23
:10299000A3F3B3FA83F300F46040D840431C4FF430
:1029A0000040984010BD00BF003802400024F400F1
:1029B00000127A00D06700086A4B2DE9F0411A68CE
:1029C000064602F001028A420D4630D3326894076F
:1029D00040D4D00746D4634B1A6802F001029542F6
:1029E000C0F0AE803268510700F1B380130707D5FD
:1029F0005D4A3169936823F4605343EAC1039360ED
:102A0000FFF794FF584BF0229B6892FAA2F2B2FAB9
:102A100082F203F0F003D340544AD35CD840544BC5
:102A200018600020FEF78AFA0020BDE8F081012935
:102A300002BF1A6842F004021A601A6822F001020A
:102A40000A431A601B6803F001039942BED00120BB
:102A5000BDE8F0814449B0688B6823F0F00303437C
:102A60008B60B6E772684049022A0FD14FF40033F9
:102A700093FAA3F0086893FAA3F3B3FA83F301215E
:102A800003F01F0301FA03F3034213E0032A02D108
:102A90004FF00073ECE7012A29D1022393FAA3F047
:102AA000096893FAA3F3B3FA83F303F01F0302FA5E
:102AB00003F30B42CBD02C4C41F28838A36823F0AF
:102AC00003031A43A260FEF761FA73680746022BFC
:102AD00010D1A36803F00C03082B3FF47CAFFEF782
:102AE00055FAC01B4045F4D90320BDE8F0814FF4EE
:102AF0000073BDE7032B0BD1A36803F00C030C2B71
:102B00003FF469AFFEF742FAC01B4045F4D9EBE74A
:102B1000012B10D1A36803F00C03042B3FF45BAF2F
:102B2000FEF734FAC01B4045F4D9DDE7FEF72EFA74
:102B3000C01B4045D8D8A36813F00C0FF6D14AE764
:102B40001A6822F001021A601B68DA073FF57FAFAE
:102B500048E70549F0688B6823F4E06303438B6022
:102B600044E700BF003C024000380240B86700085C
:102B70002C000020084B4FF4E0629B6892FAA2F20E
:102B8000B2FA82F203F4E063D340044AD35C044A0D
:102B90001068D840704700BF00380240C86700087E
:102BA0002C000020084B4FF460529B6892FAA2F26E
:102BB000B2FA82F203F46053D340044AD35C044A6D
:102BC0001068D840704700BF00380240C86700084E
:102BD0002C00002003682DE9F7430446980701D133
:102BE000002055E04F4B5A6AD1003FD401255A6A64
:102BF00042F080525A625B6A03F080530193019B5A
:102C0000494E3368DA0533D5464B6268196802F0DD
:102C1000C04001F0C041814204D1A06800F0C04032
:102C2000814207D002F44031B1F5403F02D119682A
:102C3000880375D45B6B13F440332CD16068394B37
:102C400000F44031B1F5403F06D11A6800F0C040B1
:102C500022F0C04202431A605A6B11435963002D9F
:102C6000BED05A6A22F080525A62B9E70025C7E7FF
:102C7000336843F480733360FEF788F9074633689E
:102C8000DB05C1D4FEF782F9C01B6428F7D9032005
:102C900003B0BDE8F08302F44032934202D02268D0
:102CA000D10707D4A26802F440329342C6D0236809
:102CB0009A07C3D51B4E4FF40003716B21F44030CB
:102CC00093FAA3F2B2FA82F20127DFF860E07244CD
:102CD0009200176093FAA3F3B3FA83F300227344CC
:102CE0009B001A60CB057063A8D5FEF74FF94FF42F
:102CF0000078814698FAA8F3726B98FAA8F3B3FAB1
:102D000083F303F01F0307FA03F3134296D1FEF790
:102D10003DF941F28833A0EB09009842EAD9B6E7C1
:102D20000120B5E70038024000700040A0C19110BA
:102D300038B503680446DA68520601D5002038BD6C
:102D40004FF0FF32DA60FEF721F905462368DB68B1
:102D50005B06F3D4FEF71AF9401BB0F57A7FF5D97C
:102D6000032038BD38B50446B0B1437F03F0FF02FD
:102D700013B9027702F068F90223CA226377236845
:102D800020465A6253225A62FFF7D2FF236828B1C5
:102D9000FF225A6204236377012038BD9A682569AF
:102DA00022F4E00222F040029A60626899682A43A5
:102DB00065692A430A439A60E268A1681A611A6940
:102DC00042EA01421A61DA68A16922F08002DA60FF
:102DD0001A6C22F480221A641A6C0A431A64FF22C5
:102DE0005A620123637738BD0023092803D840EADB
:102DF0000310C0B270470A380133C0B2F5E7F8B526
:102E0000037F0646012B0F464FF002005ED00123E0
:102E100033773368707708784D788C789B683ABB45
:102E200013F0400308BFCB70FFF7DEFF01462846D2
:102E3000FFF7DAFF02462046FFF7D6FFFB7840EAAD
:102E4000034040EA014040EA0224CA223368304687
:102E50005A6253225A62FFF76BFF33680546A0B1EE
:102E6000FF225A6204237377002333770120F8BDD1
:102E700013F040034FEA052508BFCB7045EA004038
:102E80002043CC7840EA0444DFE704F07F3424F0A8
:102E9000FE441C609A68386922F480229A60FA68BD
:102EA000996802430A439A60DA68304622F0800249
:102EB000DA6000F0B7F8FF2233685A6218B10423D1
:102EC00035777377D2E7012330777377F8BDF8B59C
:102ED000037F0546012B4FF0020050D00123687795
:102EE0002B774B78C8788E780C78002A40D1DA0698
:102EF00003D523F010030A334B70FFF775FF074625
:102F00004878FFF771FF02463046FFF76DFF40EA51
:102F1000443040EA074040EA0224CA222B6828468F
:102F20005A6253225A62FFF703FF2B68064638B1F4
:102F3000FF225A6204236B7700232B770120F8BD10
:102F400024F07F4424F0C0045C60DA68284622F054
:102F50008002DA6000F066F8FF222B685A6218B12E
:102F600004232E776B77E9E7012328776B77F8BD89
:102F70001B0243EA0040304340EA4434CDE7F8BD49
:102F80000A22030900F00F0002FB0300C0B27047E1
:102F900038B503685C6824F07F4323F0C003180C45
:102FA000C3F3042504F03F04C3F34233C8704D70EB
:102FB0008C700B7052B9FFF7E3FFC8702846FFF71B
:102FC000DFFF48702046FFF7DBFF8870002038BD28
:102FD00038B50C460368996A89B2616019691D6841
:102FE000C1F30E0105F07F3323F0FE43A160190CFD
:102FF00001F03F00C3F3062305F07F0501F0400117
:1030000020706370A570E17052B9FFF7B9FF2070AE
:103010006078FFF7B5FF6070A078FFF7B1FFA07090
:10302000002038BD38B5036804469A68920601D579
:10303000002038BDDA6822F0A002DA60FDF7A6FFB2
:1030400005462368DB689B06F2D4FDF79FFF401B13
:10305000B0F57A7FF5D9032038BD00002DE9F0479F
:1030600081460568C2682B69C16923F44053134344
:103070002B6183680069EA680343D9F8140022F4DD
:103080001642034322F00C020B431343EB606B69BF
:10309000D9F8182023F440731343B1F5004F6B6146
:1030A0007E4B7FD19D424FF0190447D1FFF77AFD47
:1030B00004FB00F3D9F804704FF064087F00B3FB01
:1030C000F7F3B3FBF8F31F01FFF76CFD6043D9F88A
:1030D00004305B00B0FBF3F6FFF764FD6043D9F802
:1030E00004305B00B0FBF3F3B3FBF8F308FB1363AE
:1030F000DB003233B3FBF8F35B0003F4F876FFF741
:1031000051FD6043D9F804205200B0FBF2FAFFF7FA
:1031100049FD6043D9F804305B00B0FBF3F3B3FB27
:10312000F8F308FB13A3DB003233B3FBF8F303F02F
:1031300007033B443344AB60BDE8F087FFF71AFD5B
:1031400004FB00F3D9F804704FF064087F00B3FB70
:10315000F7F3B3FBF8F31F01FFF70CFD6043D9F859
:1031600004305B00B0FBF3F6FFF704FD6043D9F8D1
:1031700004305B00B0FBF3F3B3FBF8F308FB13631D
:10318000DB003233B3FBF8F35B0003F4F876FFF7B0
:10319000F1FC6043D9F804205200B0FBF2FAFFF7CB
:1031A000E9FCB6E79D424FF0190443D1FFF7FAFC62
:1031B00004FB00F3D9F804604FF06408B600B3FBD9
:1031C000F6F3B3FBF8F31E01FFF7ECFC6043D9F80C
:1031D00004309B00B0FBF3F7FFF7E4FC6043D9F841
:1031E00004309B00B0FBF3F3B3FBF8F308FB13735D
:1031F0001B013233B3FBF8F303F0F007FFF7D2FC07
:103200006043D9F804209200B0FBF2FAFFF7CAFC41
:103210006043D9F804309B00B0FBF3F3B3FBF8F341
:1032200008FB13A31B013233B3FBF8F303F00F03C6
:103230003B437FE7FFF79EFC04FB00F3D9F80460F3
:103240004FF06408B600B3FBF6F3B3FBF8F31E01CE
:10325000FFF790FC6043D9F804309B00B0FBF3F714
:10326000FFF788FC6043D9F804309B00B0FBF3F310
:10327000B3FBF8F308FB13731B013233B3FBF8F312
:1032800003F0F007FFF776FC6043D9F804209200C2
:10329000B0FBF2FAFFF76EFCBAE700BF003801405E
:1032A000F8B504460E461546FDF770FE074622683F
:1032B000136836EA030301D10020F8BD6B1CF7D078
:1032C000C5B923680320DA6822F08002DA60DA6880
:1032D00022F02002DA60DA6822F48072DA605A6939
:1032E00022F001025A61012384F83930002384F866
:1032F0003830F8BDFDF74AFEC01B8542D7D2E0E763
:1033000010B5044630B390F8393003F0FF021BB912
:1033100080F8382002F000FA0223226884F839305D
:10332000D368204623F40053D360FFF797FE236849
:1033300000201A6922F490421A615A6922F02A0286
:103340005A61DA6842F40052DA600123E06384F8DB
:10335000393010BD012010BD70B50D4690F8391000
:103360000446C9B201291E4601D022294DD1002DA3
:1033700049D0002A47D094F83830012B45D001239A
:1033800084F838300023E36394F83930A284222B88
:103390000CBF32231223E28484F83930E28C8AB9DC
:1033A000324640212046FFF77BFFC0B994F8393000
:1033B000322B0CBF2223012384F83930002384F8F8
:1033C000383070BDA368013AB3F5805FE2844FF0F6
:1033D0008001324620460DD1FFF762FF08B103207D
:1033E00070BD2B882268C3F308035360236943B977
:1033F0000235D3E7FFF754FF0028F0D123682A787D
:103400005A600135CAE7012070BD022070BD90F8F6
:103410003930DBB2012B01D0122B28D129B322B3D2
:1034200090F83830012B22D0012380F83830002367
:10343000C3638285C28590F8392080F83830122A1B
:103440000CBF32222222036880F83920DA688162B8
:1034500042F48072DA605A69002042F001025A6137
:10346000DA6842F02002DA607047012070470220DB
:10347000704770477047026813B511680446C90762
:10348000D36805D5DB0542BFC36B43F00103C363BB
:1034900011685369880703F0010304D51BB1E16B80
:1034A00041F00401E1631168490704D51BB1E16BE8
:1034B00041F00201E1631168080704D51BB1E36B19
:1034C00043F00803E3631168D368890633D598068F
:1034D00031D594F8393003F0EF03222B2BD1A368B8
:1034E0002169B3F5805FA36A76D1526800296FD154
:1034F000C2F3080223F8022BA362E38D013B9BB2C7
:10350000E385C3B923682046DA6822F02002DA6036
:1035100094F83920322A17BFDA68122322F4807215
:10352000DA601FBF5A6922F001025A61012384F850
:10353000393001F0EDFC23681968DA68090622D5F4
:10354000100620D594F8392002F0DF02122A1AD191
:10355000A268B2F5805F226A4CD11188C1F30801DC
:1035600059602169002943D102322262E28C013A7A
:1035700092B2E2843AB9DA6822F08002DA60DA685C
:1035800042F04002DA601968DA68490610D552063E
:103590000ED5DA68204622F04002DA6094F839301D
:1035A000322B0CBF2223012384F83930FFF761FF4F
:1035B000E36B5BB1236820461A6801925B68019354
:1035C000019B012384F83930FFF754FF02B010BD8E
:1035D000D2B223F8012B8FE721B9591C5268A1629E
:1035E0001A708AE75268591CA16202F07F02F7E75D
:1035F0000132BAE7511C216212785A60B6E7000026
:1036000030B500242748284B012580E818004FF4E6
:10361000807303614FF4806343610423836210234A
:1036200085B00194029403948460C4608461C46191
:1036300004624562C46243638463C563FDF7BAFCF8
:1036400008B101F0B9FC062301A9164801940295BE
:103650000393FDF7B3FD08B101F0AEFC0123019324
:10366000022301A90F480293FDF7A8FD08B101F05C
:10367000A3FC0A230193032301A90A480293FDF73F
:103680009DFD08B101F098FC0B230193042305482C
:103690000DEB03010293FDF791FD08B101F08CFCE5
:1036A00005B030BD0C0100200024014070B5064675
:1036B00088B01422002103A802F00AF93268254BD1
:1036C0009A4244D10324002503F58A331A6A03A9D8
:1036D00042F400721A621A6A1F4802F400720092E1
:1036E000009ADA6942F00402DA61DA6902F004024F
:1036F0000192019ADA6942F00102DA61DB6903940E
:1037000003F001030293029B0494FEF737F8134879
:1037100003A9039404940595114CFEF72FF8114B5F
:10372000204684E828008023E3604FF480732361FF
:103730004FF4806363614FF48053A560A561E3613A
:10374000FDF738FF08B101F037FC7464666208B019
:1037500070BD00BF0024014000080240000002408C
:10376000C8000020086002401FB50E4B03AA187065
:10377000430943F040038DF80C300A2300F01F008A
:1037800040F060008DF80D000748009346210223A9
:103790000068FEF745FA003018BF012005B05DF85B
:1037A00004FB00BF68010020640100201FB507234F
:1037B00004AA02F8013D0A2306480093462101238A
:1037C0000068FEF72DFA003018BF012005B05DF843
:1037D00004FB00BF6401002008B5074B1860FFF729
:1037E000E5FF30B94520FFF7BFFF003018BF0120CB
:1037F00008BD012008BD00BF640100201FB50030D6
:1038000018BF01200A2304AA02F8010D06480093FC
:10381000462101230068FEF703FA003018BF01209B
:1038200005B05DF804FB00BF640100201FB503096B
:103830008DF80F0015D000F00F03032B11D80A4BA1
:103840000DF10F0218700A23084800934621012346
:103850000068FEF7E5F9003018BF012005B05DF8FB
:1038600004FB0120FAE700BF600100206401002092
:103870000A2330B5054685B01A48009303AA0223EF
:1038800046210068FEF7A2FA48BBBDF80C0040BA1A
:1038900080B2FDF789F9144B0446187845280AD000
:1038A000FDF77EF901461148FDF786FA01462046EC
:1038B000FDF7CEF904460E4B1B78212B01D0112BBE
:1038C00005D120464FF07C51FDF7C2F90446094965
:1038D0002046FDF771FA2860002005B030BD0120B8
:1038E000FBE700BF640100206801002000008A425D
:1038F000600100209A99993F0A4B07B5DA690B20BD
:1039000042F08072DA610022DB69114603F08073B5
:103910000193019BFDF7F8FD0B20FDF729FE03B095
:103920005DF804FB00380240137830B513F0010451
:1039300013681DD01488C4F3470431F81450C5EB44
:103940005325C5F31605054465F35F23136021F87D
:103950001400138803F4FF71B1F5FF7F16BF013423
:103960006FF3480364F3480313801068400C30BDC4
:1039700000EB532565F35F231360C3F3470321F87E
:103980001300118801F4FF70B0F5FF7F05BF64F3E9
:10399000480111800133C9B20BBF41F0010163F34B
:1039A000480111701180E0E714222DE9F0438BB03B
:1039B0000DEB0200002101F08BFF4E4B4E4EDA69F9
:1039C000DFF83C8142F00402DA61DA694B4F02F021
:1039D00004020092009ADA69304642F02002DA616D
:1039E000DA694FF2074102F020020192019ADA6986
:1039F000DFF8109142F00102DA61DA69002402F086
:103A000001020292029ADA69012542F00202DA61A9
:103A1000DA6902F002020392039ADA6942F00802BC
:103A2000DA61DB69002203F008030493049BFDF7CD
:103A300067FF404600224FF47071FDF761FF384682
:103A400000224FF41941FDF75BFF00224846042194
:103A5000FDF756FF4FF4DE6305A93846059306943B
:103A60000794FDF78BFE41F6300305A94046059308
:103A700006940794FDF782FE4FF2030305A9304632
:103A80000593069507940894FDF778FE40F20443E9
:103A90000593022305A93046079306950894FDF780
:103AA0006DFE4FF4707305A9404605930695079483
:103AB0000894FDF763FE4FF4194305A938460593B2
:103AC000069507940894FDF759FE042305A9484676
:103AD0000593069507940894FDF750FEF02305A979
:103AE0003046059306940794FDF748FE0BB0BDE8F9
:103AF000F08300BF00380240000402400000024092
:103B000000080240000C024008B50C480C4BDFF8DE
:103B100034E04FF4804280E8084000230261836073
:103B2000C36043618361C3610362FDF7EBFF18B1BA
:103B3000BDE8084001F040BA08BD00BF6C0100209C
:103B400000540040801A060010B5044688B01422C4
:103B5000002103A801F0BCFE2268134B9A4221D138
:103B6000124C03A9E369124843F00203E361E369DD
:103B700003F002030193019B4FF44073039312235C
:103B80000493012305930323069304230793FDF76E
:103B9000F5FD636A43F400136362636A03F4001380
:103BA0000293029B08B010BD005400400038024050
:103BB0000004024010B5154C86B001A90022204631
:103BC000FFF706FA9DF80420114B69461A709DF81C
:103BD0000520104B20461A709DF806200E4B1A70D7
:103BE0000022FFF7D5F99DF800200C4B1A709DF8C4
:103BF00003200B4B1A709DF801200A4B1A709DF898
:103C00000220094B1A7006B010BD00BF480B0020FF
:103C1000F90A0020070800203D0B00201E0B0020A1
:103C2000E1030020E3030020D0010020F0B50746A7
:103C30000E46154687B01422002101A81C4601F04B
:103C400047FE9DF838300022694611488DF8003053
:103C50008DF803708DF801608DF80250FFF737F989
:103C6000024690B99DF8303001A98DF805309DF8D5
:103C7000343007488DF804408DF80630FFF7BFF860
:103C8000003018BF012007B0F0BD0120FBE700BFE6
:103C9000480B0020044B1A7802B101224FF48051E6
:103CA0000248FDF72DBE00BF080B002000000240B7
:103CB000044B1A7802B101224FF400610248FDF76B
:103CC0001FBE00BFE403002000000240044B1A782E
:103CD00002B101224FF480710248FDF711BE00BF0E
:103CE00005080020000002402DE9F0411A4D1B4C50
:103CF0002846FDF7CBFB2088194BDFF8A080188001
:103D00006388184FA8F80030A388174E3B80E388DB
:103D1000164A17493380FFF707FE164B164A1880DC
:103D20001649B8F80000FFF7FFFD154B154A18803B
:103D300015493888FFF7F8FD144B154A18801549C6
:103D40003088FFF7F1FD144B2146188004222846E5
:103D5000BDE8F041FDF718BB0C0100200808002069
:103D60001C0B0020C2010020C0010020340B0020E9
:103D7000D8010020EA030020D4010020F008002030
:103D80003A0B0020000B0020F00500207E080020E8
:103D90000C0B0020EC030020FC0A0020000800208F
:103DA0002DE9F8432F4C002001F064FC2E4D2046F5
:103DB000FFF75EFD012001F05DFCDFF8CC802846B6
:103DC000FFF756FD032001F055FC284E4046FFF753
:103DD0004FFD042001F04EFC3046FFF749FD2468FA
:103DE0002F6820463946FCF72BFE4FF07C51FCF73C
:103DF0002FFFFDF77DF81E4BD8F80090D6F8008015
:103E000005B21D8041464846FCF71AFE4FF07C5132
:103E1000FCF71EFFFDF76CF8164B06B21E804946F4
:103E20002046FCF70DFE4FF07C51FCF711FFFDF72B
:103E30005FF8114B04B21C8041463846FCF700FE87
:103E40004FF07C51FCF704FFFDF752F80B4B00B22A
:103E500018800B4BAD1B1D800A4B241A1C80BDE83B
:103E6000F88300BFEC050020C8010020100B0020E3
:103E700080080020E8030020F0070020E60300206F
:103E8000CE010020140B0020180B002000000000C1
:103E900008B54FF400612048FDF72CFD20BB01223E
:103EA0001E4B1A704FF480511B48FDF723FD20BBB9
:103EB00001221B4B1A701B4B1888FCF7BBFA14A38A
:103EC000D3E90023FCF71CFB174BC3E90001174B98
:103ED0001888FCF7AFFA0EA3D3E90023FCF710FB18
:103EE000134BC3E9000108BD4FF400610A48FDF718
:103EF00001FD0128D6D10022D2E74FF480510648B7
:103F0000FDF7F8FC0128D6D10022D2E7AFF30080FC
:103F100053333553339B493F00080240070B0020C1
:103F2000060800207E080020200B0020FC0A00204C
:103F3000D80300200000000038B51D4B1888FCF79E
:103F400079FA15A3D3E90023FCF7DAFA14A3D3E92D
:103F50000023FCF7FFFB04460D46164BC3E9004562
:103F600011A3D3E90023FCF75BFDA0B10EA3D3E9B5
:103F7000002320462946FCF70FF90F4B0022C3E926
:103F800000010E4BFCF7BCFA0B460246FCF706F9A3
:103F90000B4BC3E9000138BD53333553339B493FC5
:103FA00057AE39D505C5E03F000000A099990D40F6
:103FB000EA030020F00A0020F80700200000594022
:103FC000100800200000000038B51D4B1888FCF7D1
:103FD00031FA15A3D3E90023FCF792FA14A3D3E92D
:103FE0000023FCF7B7FB04460D46164BC3E900451A
:103FF00011A3D3E90023FCF713FDA0B10EA3D3E96D
:10400000002320462946FCF7C7F80F4B0022C3E9DE
:1040100000010E4BFCF774FA0B460246FCF7BEF8A3
:104020000B4BC3E9000138BD53333553339B493F34
:1040300024FCE442D4CDE03F000000A099990D405B
:104040003A0B0020E8080020400B002000005940F7
:10405000280B0020F0B597B001AA1546204B03F1BC
:104060001006144618685968083303C4B342224640
:10407000F7D119889B782180A3702846FCF780F837
:10408000294682B24FF0FF331648FFF765F9002446
:10409000154D164E134F610089B20A23012228469E
:1040A000FEF70CF878B923463246402106A801F005
:1040B0000BFD06A8FCF764F84FF0FF3382B206A9A7
:1040C0003846FFF749F90134802CE4D14FF0FF3333
:1040D000022207490348FFF73FF917B0F0BD00BFC0
:1040E00046620008EC0C00206C0100203E620008D3
:1040F0006C660008134B197859B9134A1278022AD2
:1041000016D1124B197070470221104A117001220A
:104110001A701978022914D10B4A1278022A0CD18C
:1041200001220A4B1A707047084A11700322F9E7FE
:10413000012AE6D0002AE7D07047002AF0D0012AF1
:10414000F2D070470000002001000020060000208F
:10415000134B197859B9134A1278022A16D1124B07
:10416000197070470221104A117001221A701978D3
:10417000022914D10B4A1278022A0CD101220A4BCF
:104180001A707047084A11700322F9E7012AE6D035
:10419000002AE7D07047002AF0D0012AF2D07047F9
:1041A000020000200300002007000020134B1A78B3
:1041B00062B9134A1278022A15D10122114B1A70E2
:1041C000704702210F4A117001221A7019780229D2
:1041D00012D10B4A1278022A0AD10022EEE7094ACC
:1041E00011700322EBE7012AE8D0002AE9D07047DA
:1041F000002AE3D0012AF2D0704700BF040000205B
:10420000050000200B000020244A30B51378032B52
:1042100042D1234BB3F90040A3B203F1090189B2A3
:104220001229204904D802251F4805700120087072
:104230000A339BB2142B05D90020844208701A4B14
:1042400026DD1870194BB3F90040A3B203F1090041
:1042500080B2122807D80220154D2870154D2870FD
:104260000125154805700A339BB2142B08D9002389
:1042700011489C4203700E4C0E480BDD23700370F6
:104280000B784BB10C4B1B7833B10223137030BD4C
:104290000120D6E70123F1E730BD00BF0C0000206C
:1042A000140B0020FA0A002008000020CE01002094
:1042B000090000200A000020E00300200F490A78CE
:1042C000DAB90F4B1878012818BF1A701B78012B28
:1042D00013D10C4A1378012B1CBF002313700A4B17
:1042E0001278187801281CBF00201870012A04D108
:1042F0001B78012B04BF05230B7070470C000020B6
:1043000004000020000000200200002010B5194C1D
:104310002278012A2DD1184A1378032B1CBF0223BF
:104320001370164B1278197803291CBF02211970DB
:10433000032A1ED11B78032B1BD1114B11491B786B
:10434000114A53B901230B70137010BD0870137814
:10435000032B0ED10623237010BD022313700B4ACA
:104360000B7010780A490B4A0028EFD00B701370BD
:10437000EDE710BD0C00002000000020020000202E
:10438000380B0020090000200A000020040B002048
:10439000080000200400002038B5144C2378022BBC
:1043A00005D100224FF480611148FDF7A9FA257864
:1043B00055B901224FF480610D48FDF7A1FA2A4654
:1043C00004210B48FDF79CFA2478012C0CD12246DD
:1043D0004FF480610648FDF793FA2246BDE8384065
:1043E00004210348FDF78CBA38BD00BF0600002049
:1043F0000004024038B5124C2178022903D1002272
:104400001048FDF77DFA25784DB9012202210D48AB
:10441000FDF776FA2A4601210A48FDF771FA247859
:10442000012C0BD1224602210648FDF769FA2246EB
:104430002146BDE838400348FDF762BA38BD00BFE9
:10444000070000200004024038B5134C2378022BEB
:1044500004D1002280211148FDF752FA257855B980
:10446000012280210D48FDF74BFA2A464FF4807156
:104470000A48FDF745FA2478012C0CD12246802108
:104480000648FDF73DFA2246BDE838404FF48071FA
:104490000248FDF735BA38BD080000200008024088
:1044A00038B5144C2378022B05D100224FF48051EB
:1044B0001148FDF725FA257855B901224FF48051AE
:1044C0000D48FDF71DFA2A4640210C48FDF718FA61
:1044D0002478012C0CD122464FF480510648FDF778
:1044E0000FFA2246BDE8384040210448FDF708BADB
:1044F00038BD00BF0900002000040240000802404F
:1045000038B5154C2378022B05D100224FF4005109
:104510001248FDF7F5F925785DB901224FF40051F5
:104520000E48FDF7EDF92A464FF480410B48FDF7A0
:10453000E7F92478012C0DD122464FF400510748A9
:10454000FDF7DEF92246BDE838404FF480410348CC
:10455000FDF7D6B938BD00BF0A00002000040240B4
:1045600038B5144C2378022B05D100224FF40041BA
:104570001148FDF7C5F9257855B901224FF40041DE
:104580000D48FDF7BDF92A4604210C48FDF7B8F99E
:104590002478012C0CD122464FF400410648FDF747
:1045A000AFF92246BDE8384004210448FDF7A8B918
:1045B00038BD00BF0B00002000000240000C02408C
:1045C000084B1A78084B2AB91A78084B42B90222CC
:1045D0001A7070471B78002BFBD1044A1370704788
:1045E0000122F5E7E2030020300B0020010000204B
:1045F000084B1A78084B2AB91A78084B42B902229C
:104600001A7070471B78002BFBD1044A1370704757
:104610000122F5E73C0B0020CC0100200300002024
:10462000084B1A78084B2AB91A78084B42B902226B
:104630001A7070471B78002BFBD1044A1370704727
:104640000122F5E7F80A00200208002005000020FA
:1046500008B510210648FDF74DF910B9054B187043
:1046600005E010210248FDF745F90128F6D008BD04
:1046700000000240E203002008B520210648FDF7B3
:1046800039F910B9054B187005E020210248FDF7F3
:1046900031F90128F6D008BD00000240300B00209F
:1046A00008B540210648FDF725F910B9054B1870EB
:1046B00005E040210248FDF71DF90128F6D008BDAC
:1046C000000002403C0B002008B580210648FDF7A1
:1046D00011F910B9054B187005E080210248FDF76B
:1046E00009F90128F6D008BD00000240CC010020E5
:1046F00008B520210648FDF7FDF810B9054B1870E4
:1047000005E020210248FDF7F5F80128F6D008BDA4
:1047100000080240F80A002008B510210648FDF7FD
:10472000E9F810B9054B187005E010210248FDF7B3
:10473000E1F80128F6D008BD000802400208002078
:1047400008B54FF400710748FDF7D4F810B9064BCF
:10475000187006E04FF400710248FDF7CBF801280D
:10476000F5D008BD00000240380B002008B54FF41A
:1047700080610748FDF7BEF810B9064B187006E0D7
:104780004FF480610248FDF7B5F80128F5D008BD67
:1047900000000240040B0020F0B58F4A8F4B1278C6
:1047A000CBB01B7806928E4A4021127808A8059259
:1047B0008C4A127804928C4A127803928B4A1278AF
:1047C00002928B4A127801928A4A127800928A4A9F
:1047D00001F07AF908A8FBF7D3FC4FF0FF3382B25F
:1047E00008A98648FEF7B8FD4FF0FF330D22844933
:1047F0008248FEF7B1FD834B1B78002B00F0C98087
:10480000814A824E012B08BF1646814B1B78002B34
:1048100000F0C1807C4A7D4D012B08BF15467D4BC1
:104820001B78002B00F0B980774A784C012B08BF29
:104830001446794918A801F08AF9314618A801F000
:1048400077F9764918A801F073F9754918A801F0AD
:104850006FF9294618A801F06BF9704918A801F002
:1048600067F9704918A801F063F9214618A801F00A
:104870005FF96A4918A801F05BF918A8FBF780FCFA
:104880004FF0FF3382B218A95C48FEF765FD4FF088
:10489000FF33102264495948FEF75EFD634B1B78D5
:1048A000022B7CD0042B7CD0012B7CD0604A614F42
:1048B000032B08BF1746604B1B78022B75D0042BC7
:1048C00075D0012B75D05A4A5A4E032B08BF164695
:1048D0005A4B1B78022B6ED0042B6ED0012B6ED05E
:1048E000534A544D032B08BF1546554B1B78062BD6
:1048F00067D0002B67D0012B67D0042B67D0032B28
:1049000067D0504C504A022B08BF14464F4931A87B
:1049100001F01DF9394631A801F00AF93F4931A8E3
:1049200001F006F94A4931A801F002F9314631A8EF
:1049300001F0FEF8394931A801F0FAF8454931A8EB
:1049400001F0F6F8294631A801F0F2F8334931A810
:1049500001F0EEF8404931A801F0EAF8214631A80B
:1049600001F0E6F82D4931A801F0E2F831A8FBF793
:1049700007FC31A982B24FF0FF332048FEF7ECFC70
:104980004FF0FF33022235491C48FEF7E5FC4BB0DF
:10499000F0BD334E39E7324D41E7314C49E7314FF5
:1049A00089E7314F87E7314F85E72E4E90E72E4E4E
:1049B0008EE72E4E8CE72B4D97E72B4D95E72B4D31
:1049C00093E72B4CA2E72B4CA0E72B4C9EE72B4CFC
:1049D0009CE72B4C9AE700BF040B0020E203002069
:1049E000380B002002080020F80A0020CC0100202B
:1049F0003C0B0020300B0020E6620008EC0C00208D
:104A00002963000801000020606200085962000864
:104A100003000020050000203763000876630008CB
:104A20003F630008476300084F6300080000002050
:104A3000706200086B620008020000200400002081
:104A40000C0000209F620008AB6200086063000851
:104A5000676300086E630008786300086C660008EE
:104A6000676200087E620008B06200087762000892
:104A70009462000884620008D7620008C9620008D6
:104A8000B662000808B540210E48FCF733FF10B9A4
:104A900003220D4B1A7080210A48FCF72BFF08B93E
:104AA0000A4B187020210748FCF724FF08B9064B71
:104AB000187010210348FCF71DFF10B90122024BAA
:104AC0001A7008BD000402400C00002008000020FD
:104AD0002DE9F0414FF0FF33DAB0112269496A48FD
:104AE000FEF73AFC4FF0FF33022268496648FEF7B2
:104AF00033FC674B02AF93E807004FF0FF3387E8C2
:104B000007000C2263496048FEF726FC4FF0FF3394
:104B100002225E495C48FEF71FFC5F4B1B78002BAE
:104B20007CD15E4905A801F012F85D4B1B78002B83
:104B300040F0858059490DF1210001F008F8594BEA
:104B40001B78002B40F08C8054490DF12E0000F0B2
:104B5000FEFF4FF0FF330C2253494B48FEF7FCFB9E
:104B60004FF0FF33022249494748FEF7F5FB002585
:104B7000454EDFF8588164244FF0FF330C224B4937
:104B80003046FEF7E9FB02224FF0FF333F49304643
:104B9000FEF7E2FB0FAB04FB05344549204600F06D
:104BA000D6FF4146204600F0C3FF57F825102046A7
:104BB00000F0BEFF4146204600F0BAFF3D492046C6
:104BC00000F0B6FF4146204600F0B2FF0D2105ABD4
:104BD00001FB0531204600F0ABFF4146204600F0C6
:104BE000A7FF2046FBF7CCFA4FF0FF3382B22146F5
:104BF0003046FEF7B1FB4FF0FF3302222349304627
:104C0000FEF7AAFB2C4B684601350094019300F097
:104C10005DFC032DAFD15AB0BDE8F081022B01D16C
:104C200026497FE7042B01D125497BE7012B01D1E0
:104C3000244977E7032B7FF478AF234972E7022BEF
:104C400001D11E4977E7042B01D11D4973E7012BE0
:104C500001D11C496FE7032B7FF471AF1A496AE752
:104C6000022B01D1154970E7042B01D114496CE7DF
:104C7000012B01D1134968E7032B7FF46AAF124976
:104C800063E700BFAE630008EC0C00206C66000810
:104C900030620008C063000800000020CD630008F7
:104CA00002000020040000200E6400081B640008BD
:104CB00095630008286400082C620008DA63000885
:104CC000E7630008F463000801640008A2630008B9
:104CD00010B5084C237863B100F0CAF9642000F0E5
:104CE0003BFC00F0FDFAFFF7F3FE00F0C3FB0023EE
:104CF000237010BD0308002030B5002497B0342283
:104D0000002109A800F0E4FD0021142204A800F00D
:104D1000DFFD184A0194029403941368012523F4DB
:104D2000C05343F4006313600A23099310230D93C7
:104D3000022312934FF4002314934FF4000309A8A5
:104D400015930C950E951394FDF79CFA0F2304937D
:104D50000323294604A80593069407940894FDF7B5
:104D60002BFE4FF4003301A801950293FDF732FFAB
:104D700017B030BD0070004000251FB50124594B0D
:104D800003261D60584B1D60584B1D60584B1D601D
:104D9000FCF7E8F8FFF7B0FFFEF706FEFEF7ACFD04
:104DA000FEF72EFCFEF7B0FE00F07EFC00F006F9E8
:104DB00000F096FC4F4B1C704F4B1C704F4B1C70FF
:104DC0004F4B1D70FEF766FFFEF772FFFEF77EFF8A
:104DD0004FF4FA60FCF7E0F807231A22062100934B
:104DE0000296122301951320FEF720FFFFF732F9F8
:104DF000444800F039FC284600F03CFC4148FEF7EE
:104E0000EBFC2046FEF7FAFC1120FEF70FFD2046D2
:104E100000F030FC2046FEF7F1FC1120FEF706FD05
:104E2000304600F027FC2046FEF7E8FC1120FEF794
:104E3000FDFC042000F01EFC2046FEF7DFFC1120E4
:104E4000FEF7F4FC4FF4FA60FCF7A6F802222E49B4
:104E50002E48FCF799FAFFF73BFFFEF7ABFEFEF793
:104E600019FFFEF725FFFEF731FFFEF73DFFFFF7C5
:104E700063F8FFF7A9F8FEF793FFFFF709F8FFF7CC
:104E800001FEFFF7E5FBFFF7F7FBFFF709FCFFF774
:104E90001BFCFFF72DFCFFF73FFCFFF751FCFFF772
:104EA00065FCFFF78DFBFFF7A3FBFFF7B9FBFFF7EF
:104EB00021F9FFF74DF9FFF779F9FFF7FFF9FFF750
:104EC00025FAFFF7A1F9FFF767FAFFF793FAFFF763
:104ED000BBFAFFF7E5FAFFF713FBFFF741FBFFF71C
:104EE0005BFCB8E7340B0020D4010020000B00204D
:104EF0000C0B0020080B0020E40300200508002014
:104F0000030800206C010020080800200C0100208C
:104F10000268204B10B59A423AD11F4A1F491378B4
:104F20008BBB1846C8540133642BFBD110781C4C42
:104F3000431C2478DBB20C541944137011F8043C60
:104F4000184C4F2B09D111F8033C4B2B05D10123F1
:104F5000154923700B7000211170237863B10F493C
:104F6000124800F0F4FD4FF47A7364220F491048A0
:104F7000FEF7F2F9002323700122BDE81040084932
:104F80000C48FEF744BA642B84BF00231370CDE7AE
:104F900010BD00BF00480040B400002018080020E9
:104FA000050B0020C4010020160B00208208002001
:104FB000EC0C0020AC0C0020704700007FB51422E0
:104FC000002101A800F084FC00231D481D4A009325
:104FD00080E80C007F228260FF220361C26043618F
:104FE0008361FDF7BFFE08B1FFF7E6FF16238DF8DA
:104FF000043056238DF805300023012201A9104802
:105000008DF8063004930593FDF7F9FE08B1FFF71C
:10501000D3FF03238DF8003006238DF801302623BB
:105020008DF8023019230122694605488DF80330B6
:10503000FDF74DFF08B1FFF7BFFF07B05DF804FBB8
:10504000480B0020002800400268074B9A420AD112
:105050004FF4800292FAA2F2B2FA82F2034B1344A6
:1050600001229B001A60704700280040A0C19110E7
:10507000F0B589B001AA15461C4B03F11806144679
:1050800018685968083303C4B3422246F7D1186838
:105090001A2620602846FBF773F8154C82B2294681
:1050A0004FF0FF332068FEF757F90025114F00F04D
:1050B000C1FC90FBF6F303FB16006130E8550135A7
:1050C0000C2DF4D10B48FBF75BF84FF0FF3382B2A5
:1050D00008492068FEF740F94FF0FF3302220649E5
:1050E0002068FEF739F909B0F0BD00BF4566000839
:1050F000800C0020220C00206C6600082DE9FF4186
:10510000002307461946304E304A33709954013314
:10511000642BFBD16A46E8462D4B03F10805144683
:1051200018685968083303C4AB422246F7D19988FE
:1051300018689B792060A180A3714046FBF720F896
:10514000244D82B241464FF0FF332868FEF704F940
:105150003846FBF715F8204C82B239464FF0FF3342
:105160002068FEF7F9F84FF0FF3302221B49206850
:10517000FEF7F2F801221A492068FEF748F90027E5
:10518000DFF86880D8F80020FBB2934208DD4FF0CA
:10519000FF330A2213492868FEF7DEF800200BE0EF
:1051A00034780137012C0AD14FF0FF330A220E491F
:1051B0002868FEF7D1F8204604B0BDE8F0816420ED
:1051C000FBF7EAFEDEE700BF160B00201808002000
:1051D000A9670008800C0020C40B00206C66000842
:1051E000050B00209F670008946700082800002036
:1051F000F0B585B004466A466E46154B03F10807C4
:10520000154618685968083303C5BB422A46F7D1CA
:1052100018689B882860AB803046FAF7B1FF82B2ED
:105220000C484FF0FF3331460068FEF795F8043C18
:1052300054F8045F2846FAF7A3FF012801D801209B
:1052400004E02846FFF75AFF0128F1D005B0F0BD71
:1052500061660008800C002070B586B06A466D4615
:105260001A4B03F11006144618685968083303C432
:10527000B3422246F7D118689B882060A380284655
:10528000FAF77EFF82B212484FF0FF3329460068DA
:10529000FEF762F80F48FFF7ABFF012802D0C0B25B
:1052A00006B070BD00230C490133581810F8012CCA
:1052B0000A2AF9D10023094AC15C0A2903D1002135
:1052C0000120D154ECE7D1540133F5E7A46600087E
:1052D000800C00202000002082080020F00B00201D
:1052E00070B5A0B003AA1646534B03F10805144647
:1052F00018685968083303C4AB422246F7D199882D
:1053000018689B792060A180A3713046FAF738FFB6
:105310004A4D82B207AC4FF0FF3331462868FEF7A2
:105320001BF84749204600F012FC4649204600F091
:10533000FFFB4549204600F0FBFB4449204600F0B6
:10534000F7FB4149204600F0F3FB4149204600F0BD
:10535000EFFB4049204600F0EBFB3D49204600F0C2
:10536000E7FB3949204600F0E3FB3B49204600F0CB
:10537000DFFB3549204600F0DBFB3249204600F0D8
:10538000D7FB3149204600F0D3FB2E49204600F0E0
:10539000CFFB2D49204600F0CBFB2D49204600F0E5
:1053A000C7FB2E4B2046196800F0C2FB2849204657
:1053B00000F0BEFB2449204600F0BAFB24492046F9
:1053C00000F0B6FB264B2046196800F0B1FB2049DF
:1053D000204600F0ADFB234B204602930194FAF7E0
:1053E000CFFE4FF0FF3382B221462868FDF7B4FFAD
:1053F0004FF0FF3302221C492868FDF7ADFF01A8DA
:10540000FFF7F6FE012802D0C0B220B070BD002325
:1054100016490133581810F8012C0A2AF9D1002333
:10542000134AC15C0A2903D100210120D154ECE7C1
:10543000D1540133F5E700BF7E660008800C0020E0
:105440006F66000815660008A0630008266400085F
:10545000A2630008220C00207A66000810000020D9
:10546000140000203C6200086C66000882080020DE
:105470002E0C002070B586B06A466D46104B03F1C5
:105480001006144618685968083303C4B34222460C
:10549000F7D1998818689B792060A180A37128466C
:1054A000FAF76EFE82B207484FF0FF3329460068D4
:1054B000FDF752FF0448FFF79BFEC0B206B070BD77
:1054C0008D660008800C002018000020F0B585B023
:1054D00006466A466D461C4B03F1080714461868D9
:1054E0005968083303C4BB422246F7D1998818682B
:1054F0009B792060A180A3712846FAF741FE82B211
:1055000012484FF0FF3329460068FDF725FF30466B
:10551000FFF76EFE012802D0C0B205B0F0BD002337
:105520000B490133581810F8012C0A2AF9D100232D
:10553000084AC15C0A2903D100210120D154ECE7BB
:10554000D1540133F5E700BFBA660008800C002093
:1055500082080020780B002038B505460024AC42B4
:1055600005D0FFF779FE012804F10104F7D138BD19
:105570000F4B84B05A6A42F000425A625A6A02F0F3
:1055800000420192019A1A6A42F001021A621A6AF2
:1055900002F001020292029A5A6A42F080525A6262
:1055A0005B6A03F080530393039B04B0704700BF12
:1055B000003802407047FEE7FEE7FEE7FEE770476F
:1055C00070477047FBF7DABC0148FCF78FB800BFA3
:1055D000C80000200148FDF74EBF00BFEC0C0020C2
:1055E0000148FDF748BF00BFAC0C002008B50A4BCE
:1055F0000246196809B909491960694618680244E0
:105600008A4206D900F032F90C2303604FF0FF30D4
:1056100008BD1A6008BD00BFB8000020300D002092
:105620000E4B1A6842F480721A6099680C4A0A405C
:105630009A601A6822F0885222F001121A601A68E1
:1056400022F480221A609A6822F47D029A60002275
:10565000DA604FF00062034B9A60704700380240F6
:105660000CC0FF8800ED00E0014B1860704700BFE0
:10567000A40C002007281FB512D8642340F00800AE
:1056800004AA02F8010D07480093E02101230068F5
:10569000FCF7C6FAB0FA80F0400905B05DF804FBEB
:1056A0000020FAE7A40C002008B54FF4E13E0A48B8
:1056B0000A4B0C2280E80840002342618360C360EB
:1056C00003618361C361FDF71BFE18B1BDE80840AB
:1056D000FFF772BC08BD00BFEC0C00200044004086
:1056E00008B54FF4165E0A480A4B0C2280E80840C1
:1056F000002342618360C36003618361C361FDF77E
:10570000FFFD18B1BDE80840FFF756BC08BD00BF5B
:10571000AC0C0020004800401422F0B504468BB0C9
:105720000DEB0200002100F0D3F82368364A9342C3
:105730002AD1364B05A95A6A354842F400325A62DA
:105740005A6A02F400320092009ADA6942F00102C9
:10575000DA61DB6903F001030193019B0C230593DC
:105760000223069301230793032308930723099336
:10577000FCF704F8002226201146FBF7C5FE262080
:10578000FBF7F6FE0BB0F0BD224A9342FAD11F4B55
:1057900002275A6A012642F480225A625A6A032575
:1057A00002F480220292029ADA69072442F002028D
:1057B000DA61DA6905A902F002020392039ADA6952
:1057C000154842F00402DA61DB69069703F004032E
:1057D0000493049B4FF4006307960593089509947E
:1057E000FBF7CCFF4FF4806305A90C48059306979F
:1057F000079608950994FBF7C1FF00222720114660
:10580000FBF782FE2720BBE700440040003802403F
:10581000000002400048004000040240000802402E
:10582000002103E00B4B5B58435004310A480B4BFB
:1058300042189A42F6D30A4A02E0002342F8043B97
:10584000084B9A42F9D3FFF7EBFE00F015F8FFF78B
:1058500093FA7047146800080000002094000020AC
:1058600098000020300D0020FEE70000014B186872
:10587000704700BF3000002070B500250C4E0D4C65
:10588000A41BA410A54209D100F0B4FC00250A4EC7
:105890000A4CA41BA410A54205D170BD56F82530B2
:1058A00098470135EEE756F8253098470135F2E77D
:1058B0000C6800080C6800080C68000810680008F4
:1058C000024B0146186800F057B800BF30000020B6
:1058D00003460244934200D1704703F8011BF9E7E5
:1058E00038B50546002943D051F8043C0C1F002B65
:1058F000B8BFE41800F033F91E4A1368104633B9F4
:10590000636014602846BDE8384000F029B9A3421E
:105910000BD921686218934201BF1A685B6852185C
:10592000226063600460EDE713465A680AB1A24240
:10593000FAD919685818A0420BD1206801445818A8
:1059400082421960DED110685268014419605A60C1
:10595000D8E702D90C232B60D4E7206821188A42AB
:1059600001BF116852680918216062605C60C9E774
:1059700038BD00BFBC00002070B5CD1C25F003056C
:1059800008350C2D38BF0C25002D064601DBA94239
:1059900003D90C233360002070BD00F0E0F8234AE7
:1059A0001468214691B9224C23681BB9304600F097
:1059B0007BF820602946304600F076F8431C26D15B
:1059C0000C233046336000F0CBF8E4E70B685B1B38
:1059D0001AD40B2B0FD90B60CC18CD50304600F0E9
:1059E000BFF804F10B00231D20F00700C31A1BD0E1
:1059F0005A42E25070BD8C420BBF63684B68136023
:105A0000636018BF0C46E9E70C464968CAE7C41C46
:105A100024F00304A04205D0211A304600F044F8D7
:105A20000130CDD02560D9E770BD00BFBC0000209B
:105A3000C0000020194B10B51C68A36BD3B9182007
:105A4000FFF73EFF43F20E33A06303804AF6CD33E7
:105A5000438041F2342383804EF26D63C3804DF660
:105A6000EC630381052343810B23012283810023FF
:105A7000C0E90423A16B0A480A694B695043094CE9
:105A800004FB0300A2FB04230132034443F100039F
:105A9000C1E9042323F0004010BD00BF3000002006
:105AA0002DF451582D7F954C38B50023054C0546F3
:105AB00008462360FFF79AFD431C02D1236803B117
:105AC0002B6038BD2C0D00200CB430B5174B0C1ECC
:105AD0009DB01D6808DA8B234FF0FF302B601DB09E
