:020000040800F2
:1000000000400020995500082153000823530008A0
:10001000255300082753000829530008000000005A
:100020000000000000000000000000002B5300084A
:100030002D530008000000002F5300083153000822
:10004000E1550008E1550008E1550008E1550008B8
:10005000E1550008E1550008E1550008E1550008A8
:10006000E1550008E1550008E15500083553000846
:10007000E1550008E1550008E1550008E155000888
:10008000E1550008E1550008E1550008E155000878
:10009000E1550008E1550008E1550008E155000868
:1000A000E1550008E1550008E1550008E155000858
:1000B000E1550008E1550008E1550008E155000848
:1000C000E1550008E1550008E1550008E155000838
:1000D000E1550008E1550008415300084D53000860
:1000E000E1550008E1550008E1550008E155000818
:1000F000E15500080000000000000000E155000884
:100100000000000000000000E1550008E155000873
:10011000E1550008E1550008E15500080000000025
:10012000E155000800000000000000000000000091
:0C01300000000000000000005FF808F173
:1001400010B5054C237833B9044B13B10448AFF311
:1001500000800123237010BD9800002000000000E3
:100160003C5F000808B5034B1BB103490348AFF3DC
:10017000008008BD000000009C0000203C5F0008DB
:10018000034613F8012B002AFBD1181A01387047D7
:1001900081F0004102E000BF83F0004330B54FEA38
:1001A00041044FEA430594EA050F08BF90EA020FA5
:1001B0001FBF54EA000C55EA020C7FEA645C7FEA38
:1001C000655C00F0E2804FEA5454D4EB5555B8BF5B
:1001D0006D420CDD2C4480EA020281EA030382EACC
:1001E000000083EA010180EA020281EA0303362D5E
:1001F00088BF30BD11F0004F4FEA01314FF4801C31
:100200004CEA113102D0404261EB410113F0004F42
:100210004FEA03334CEA133302D0524263EB4303F9
:1002200094EA050F00F0A780A4F10104D5F1200E97
:100230000DDB02FA0EFC22FA05F2801841F10001F2
:1002400003FA0EF2801843FA05F359410EE0A5F1C6
:1002500020050EF1200E012A03FA0EFC28BF4CF0F7
:10026000020C43FA05F3C01851EBE37101F00045AD
:1002700007D54FF0000EDCF1000C7EEB00006EEBBA
:100280000101B1F5801F1BD3B1F5001F0CD3490844
:100290005FEA30004FEA3C0C04F101044FEA44529B
:1002A00012F5800F80F09A80BCF1004F08BF5FEA22
:1002B000500C50F1000041EB045141EA050130BD02
:1002C0005FEA4C0C404141EB010111F4801FA4F1A5
:1002D0000104E9D191F0000F04BF01460020B1FAFA
:1002E00081F308BF2033A3F10B03B3F120020CDA32
:1002F0000C3208DD02F1140CC2F10C0201FA0CF010
:1003000021FA02F10CE002F11402D8BFC2F1200C74
:1003100001FA02F120FA0CFCDCBF41EA0C0190402A
:10032000E41AA2BF01EB0451294330BD6FEA040473
:100330001F3C1CDA0C340EDC04F11404C4F120025E
:1003400020FA04F001FA02F340EA030021FA04F370
:1003500045EA030130BDC4F10C04C4F1200220FAC7
:1003600002F001FA04F340EA0300294630BD21FA05
:1003700004F0294630BD94F0000F83F4801306BFCB
:1003800081F480110134013D4EE77FEA645C18BFBF
:100390007FEA655C29D094EA050F08BF90EA020F56
:1003A00005D054EA000C04BF1946104630BD91EA4E
:1003B000030F1EBF0021002030BD5FEA545C05D151
:1003C0004000494128BF41F0004130BD14F5800490
:1003D0003CBF01F5801130BD01F0004545F0FE4104
:1003E00041F470014FF0000030BD7FEA645C1ABF39
:1003F000194610467FEA655C1CBF0B46024650EA70
:10040000013406BF52EA033591EA030F41F400219B
:1004100030BD00BF90F0000F04BF0021704730B521
:100420004FF4806404F132044FF000054FF00001F6
:1004300050E700BF90F0000F04BF0021704730B5B7
:100440004FF4806404F1320410F0004548BF40428C
:100450004FF000013EE700BF42004FEAE2014FEAE1
:1004600031014FEA02701FBF12F07F4393F07F4FBC
:1004700081F06051704792F0000F14BF93F07F4FEE
:10048000704730B54FF4607401F0004521F0004131
:1004900020E700BF50EA010208BF704730B54FF0B7
:1004A00000050AE050EA010208BF704730B511F0BC
:1004B000004502D5404261EB41014FF4806404F1F4
:1004C00032045FEA915C3FF4DCAE4FF003025FEA76
:1004D000DC0C18BF03325FEADC0C18BF033202EBFE
:1004E000DC02C2F1200300FA03FC20FA02F001FA58
:1004F00003FE40EA0E0021FA02F11444C1E600BFF7
:1005000070B54FF0FF0C4CF4E06C1CEA11541DBFA9
:100510001CEA135594EA0C0F95EA0C0F00F0DEF874
:100520002C4481EA030621EA4C5123EA4C5350EA59
:10053000013518BF52EA033541F4801143F48013AA
:1005400038D0A0FB02CE4FF00005E1FB02E506F03B
:100550000042E0FB03E54FF00006E1FB03569CF090
:10056000000F18BF4EF0010EA4F1FF04B6F5007F96
:1005700064F5407404D25FEA4E0E6D4146EB060608
:1005800042EAC62141EA55514FEAC52040EA5E5091
:100590004FEACE2EB4F1FD0C88BFBCF5E06F1ED83B
:1005A000BEF1004F08BF5FEA500E50F1000041EB72
:1005B000045170BD06F0004646EA010140EA02001F
:1005C00081EA0301B4EB5C04C2BFD4EB0C0541EA41
:1005D000045170BD41F480114FF0000E013C00F356
:1005E000AB8014F1360FDEBF002001F0004170BD7A
:1005F000C4F10004203C35DA0C341BDC04F1140493
:10060000C4F1200500FA05F320FA04F001FA05F21E
:1006100040EA020001F0004221F0004110EBD370EB
:1006200021FA04F642EB06015EEA430E08BF20EA17
:10063000D37070BDC4F10C04C4F1200500FA04F3BA
:1006400020FA05F001FA04F240EA020001F000414C
:1006500010EBD37041F100015EEA430E08BF20EABF
:10066000D37070BDC4F1200500FA05F24EEA020E07
:1006700020FA04F301FA05F243EA020321FA04F036
:1006800001F0004121FA04F220EA020000EBD370ED
:100690005EEA430E08BF20EAD37070BD94F0000FED
:1006A0000FD101F00046400041EB010111F4801F21
:1006B00008BF013CF7D041EA060195F0000F18BFD2
:1006C000704703F00046520043EB030313F4801F0E
:1006D00008BF013DF7D043EA0603704794EA0C0FC8
:1006E0000CEA135518BF95EA0C0F0CD050EA4106DE
:1006F00018BF52EA4306D1D181EA030101F000415B
:100700004FF0000070BD50EA410606BF1046194682
:1007100052EA430619D094EA0C0F02D150EA01368E
:1007200013D195EA0C0F05D152EA03361CBF1046CF
:1007300019460AD181EA030101F0004141F0FE416E
:1007400041F470014FF0000070BD41F0FE4141F4F2
:10075000780170BD70B54FF0FF0C4CF4E06C1CEAF2
:1007600011541DBF1CEA135594EA0C0F95EA0C0FA7
:1007700000F0A7F8A4EB050481EA030E52EA033562
:100780004FEA013100F088804FEA03334FF0805583
:1007900045EA131343EA12634FEA022245EA1115B0
:1007A00045EA10654FEA00260EF000419D4208BF61
:1007B000964244F1FD0404F5407402D25B084FEA0E
:1007C0003202B61A65EB03055B084FEA32024FF4BA
:1007D00080104FF4002CB6EB020E75EB030E22BF17
:1007E000B61A754640EA0C005B084FEA3202B6EBD7
:1007F000020E75EB030E22BFB61A754640EA5C0086
:100800005B084FEA3202B6EB020E75EB030E22BF15
:10081000B61A754640EA9C005B084FEA3202B6EB16
:10082000020E75EB030E22BFB61A754640EADC00D5
:1008300055EA060E18D04FEA051545EA16754FEA37
:1008400006164FEAC30343EA52734FEAC2025FEA55
:100850001C1CC0D111F4801F0BD141EA00014FF0E4
:1008600000004FF0004CB6E711F4801F04BF0143B5
:100870000020B4F1FD0C88BFBCF5E06F3FF6AFAED1
:10088000B5EB030C04BFB6EB020C5FEA500C50F161
:10089000000041EB045170BD0EF0004E4EEA1131E4
:1008A00014EB5C04C2BFD4EB0C0541EA045170BDEB
:1008B00041F480114FF0000E013C90E645EA060E2F
:1008C0008DE60CEA135594EA0C0F08BF95EA0C0F5D
:1008D0003FF43BAF94EA0C0F0AD150EA01347FF4A5
:1008E00034AF95EA0C0F7FF425AF104619462CE77C
:1008F00095EA0C0F06D152EA03353FF4FDAE1046DF
:10090000194622E750EA410618BF52EA43067FF42F
:10091000C5AE50EA41047FF40DAF52EA43057FF4BF
:10092000EBAE12E74FF0FF3C06E000BF4FF0010CCA
:1009300002E000BF4FF0010C4DF804CD4FEA410C2E
:100940007FEA6C5C4FEA430C18BF7FEA6C5C1BD0FB
:1009500001B050EA410C0CBF52EA430C91EA030F7C
:1009600002BF90EA020F0020704710F1000F91EAD9
:10097000030F58BF994208BF90422CBFD8176FEAA7
:10098000E37040F0010070474FEA410C7FEA6C5C75
:1009900002D150EA013C07D14FEA430C7FEA6C5C7C
:1009A000D6D152EA033CD3D05DF8040B704700BFA8
:1009B0008446104662468C461946634600E000BFF6
:1009C00001B5FFF7B7FF002848BF10F1000F01BDC8
:1009D0004DF808EDFFF7F4FF0CBF012000205DF893
:1009E00008FB00BF4DF808EDFFF7EAFF34BF012018
:1009F00000205DF808FB00BF4DF808EDFFF7E0FFB1
:100A000094BF012000205DF808FB00BF4DF808ED01
:100A1000FFF7CEFF94BF012000205DF808FB00BF68
:100A20004DF808EDFFF7C4FF34BF012000205DF84A
:100A300008FB00BF4FEA410212F5001215D211D592
:100A40006FF47873B3EB625212D94FEAC12343F0CB
:100A5000004343EA505311F0004F23FA02F018BF4D
:100A6000404270474FF00000704750EA013005D116
:100A700011F0004008BF6FF0004070474FF00000D9
:100A8000704700BF4FEA4102B2F1E04324BFB3F523
:100A9000001CDCF1FE5C0DD901F0004C4FEAC002F5
:100AA0004CEA5070B2F1004F40EB830008BF20F0D9
:100AB0000100704711F0804F21D113F13872BCBF93
:100AC00001F00040704741F480114FEA5252C2F1E8
:100AD0001802C2F1200C10FA0CF320FA02F018BF31
:100AE00040F001004FEAC1234FEAD32303FA0CFC84
:100AF00040EA0C0023FA02F34FEA4303CCE77FEA13
:100B0000625307D150EA01331EBF4FF0FE4040F45C
:100B10004000704701F0004040F0FE4040F400000B
:100B2000704700BF80F0004002E000BF81F000414C
:100B300042001FBF5FEA410392EA030F7FEA226C83
:100B40007FEA236C6AD04FEA1262D2EB1363C1BF13
:100B5000D218414048404140B8BF5B42192B88BF82
:100B6000704710F0004F40F4000020F07F4018BFA5
:100B7000404211F0004F41F4000121F07F4118BFC5
:100B8000494292EA030F3FD0A2F1010241FA03FC6D
:100B900010EB0C00C3F1200301FA03F100F0004355
:100BA00002D5494260EB4000B0F5000F13D3B0F11D
:100BB000807F06D340084FEA310102F10102FE2A8C
:100BC00051D2B1F1004F40EBC25008BF20F00100FC
:100BD00040EA03007047490040EB000010F4000FAA
:100BE000A2F10102EDD1B0FA80FCACF1080CB2EB3D
:100BF0000C0200FA0CF0AABF00EBC250524218439C
:100C0000BCBFD0401843704792F0000F81F4000140
:100C100006BF80F400000132013BB5E74FEA410313
:100C20007FEA226C18BF7FEA236C21D092EA030F7F
:100C300004D092F0000F08BF0846704790EA010FF9
:100C40001CBF0020704712F07F4F04D1400028BF26
:100C500040F00040704712F100723CBF00F5000008
:100C6000704700F0004343F0FE4040F4000070473E
:100C70007FEA226216BF08467FEA236301464202EA
:100C800006BF5FEA412390EA010F40F480007047FD
:100C90004FF0000304E000BF10F0004348BF4042A3
:100CA0005FEA000C08BF704743F0964301464FF0DF
:100CB00000001CE050EA010208BF70474FF000033B
:100CC0000AE000BF50EA010208BF704711F000437C
:100CD00002D5404261EB41015FEA010C02BF84464C
:100CE0000146002043F0B64308BFA3F18053A3F5AB
:100CF0000003BCFA8CF2083AA3EBC25310DB01FAF2
:100D000002FC634400FA02FCC2F12002BCF1004F75
:100D100020FA02F243EB020008BF20F00100704706
:100D200002F1200201FA02FCC2F1200250EA4C005A
:100D300021FA02F243EB020008BF20EADC707047A0
:100D40004FF0FF0C1CEAD0521EBF1CEAD15392EAAE
:100D50000C0F93EA0C0F6FD01A4480EA010C40028A
:100D600018BF5FEA41211ED04FF0006343EA5010E4
:100D700043EA5111A0FB01310CF00040B1F5000F26
:100D80003EBF490041EAD3715B0040EA010062F1D5
:100D90007F02FD2A1DD8B3F1004F40EBC25008BFBF
:100DA00020F00100704790F0000F0CF0004C08BFDD
:100DB00049024CEA502040EA51207F3AC2BFD2F1AA
:100DC000FF0340EAC250704740F400004FF00003B8
:100DD000013A5DDC12F1190FDCBF00F000407047F2
:100DE000C2F10002410021FA02F1C2F1200200FA30
:100DF00002FC5FEA310040F1000053EA4C0308BFF7
:100E000020EADC70704792F0000F00F0004C02BF47
:100E1000400010F4000F013AF9D040EA0C0093F0C2
:100E2000000F01F0004C02BF490011F4000F013B1C
:100E3000F9D041EA0C018FE70CEAD15392EA0C0F8A
:100E400018BF93EA0C0F0AD030F0004C18BF31F0F5
:100E5000004CD8D180EA010000F00040704790F0CB
:100E6000000F17BF90F0004F084691F0000F91F06F
:100E7000004F14D092EA0C0F01D142020FD193EA35
:100E80000C0F03D14B0218BF084608D180EA0100BD
:100E900000F0004040F0FE4040F40000704740F099
:100EA000FE4040F4400070474FF0FF0C1CEAD05267
:100EB0001EBF1CEAD15392EA0C0F93EA0C0F69D0C3
:100EC000A2EB030280EA010C49024FEA402037D02E
:100ED0004FF0805343EA111143EA10130CF0004025
:100EE0008B4238BF5B0042F17D024FF4000C8B4215
:100EF00024BF5B1A40EA0C00B3EB510F24BFA3EBF5
:100F0000510340EA5C00B3EB910F24BFA3EB9103C4
:100F100040EA9C00B3EBD10F24BFA3EBD10340EA1E
:100F2000DC001B0118BF5FEA1C1CE0D1FD2A3FF664
:100F300050AF8B4240EBC25008BF20F00100704719
:100F40000CF0004C4CEA50207F32C2BFD2F1FF03BC
:100F500040EAC250704740F400004FF00003013AED
:100F600037E792F0000F00F0004C02BF400010F491
:100F7000000F013AF9D040EA0C0093F0000F01F0A5
:100F8000004C02BF490011F4000F013BF9D041EAC7
:100F90000C0195E70CEAD15392EA0C0F08D14202FA
:100FA0007FF47DAF93EA0C0F7FF470AF084676E7CD
:100FB00093EA0C0F04D14B023FF44CAF08466EE7A6
:100FC00030F0004C18BF31F0004CCAD130F0004274
:100FD0007FF45CAF31F000437FF43CAF5FE700BFCC
:100FE0004FEA4002B2F1FE4F0FD34FF09E03B3EB36
:100FF00012620DD94FEA002343F0004310F0004F76
:1010000023FA02F018BF404270474FF000007047CB
:1010100012F1610F01D1420205D110F0004008BF6A
:101020006FF0004070474FF000007047084B10B55C
:10103000044618684FF47A73B0FBF3F000F01CFB21
:10104000002221464FF0FF3000F0D6FA002010BDFC
:101050002C00002008B5032000F0BCFA0020FFF7A8
:10106000E5FF04F03BF9002008BD0000024A1368C8
:1010700001331360704700BFC0000020014B1868A7
:10108000704700BFC000002013B50190FFF7F6FFC6
:101090000446FFF7F3FF019B001B9842F9D302B00F
:1010A00010BD0000F7B5044608B9012092E0C36CFA
:1010B00073B9036580F84830544B1A6A42F0010254
:1010C0001A621B6A03F001030193019B02F04EFBBD
:1010D000E36CDB06E9D4E36C4D4A23F4885323F038
:1010E000020343F00203E3645368616823F440336E
:1010F0000B4353604FF4007090FAA0F00223B0FA53
:1011000080F0616A93FAA3F3B3FA83F36569E26846
:1011100001FA03F32A43256A2A43E56B05FA00F036
:1011200002431343626B2569102A1CBFA06B024364
:10113000206818BF1343026812F0400223D1A66949
:10114000E7693343A668B5F5807F46EA070643D0D2
:10115000012D08BF4FF480723243E66A012E0DD193
:1011600000293BD14FF4604191FAA1F1B1FA81F627
:10117000216B42F400620139B1400A4346682549B7
:1011800031400A4342608168234AB5F5807F02EA14
:10119000010242EA0302826001D0012D27D1056BD2
:1011A0004FF0F87292FAA2F2B2FA82F1A26A013A10
:1011B0008A4025F0F8710A4302638168174A0A40A1
:1011C000934218D100202065E36C23F0030343F021
:1011D0000103E36403B0F0BD2A46BDE7E16C41F0D2
:1011E0002001E164216D41F001012165C6E7026B38
:1011F00022F0F872E0E7E36C23F0120343F01003EF
:10120000E364236D43F0010323654EE70038024099
:1012100000270140FF16FCFC89F1FFC0FEFF80BFE4
:101220007047436A10B5DA6C12F0500F24D1DA6CB3
:1012300042F40072DA641A68916811F0405F17D1C5
:10124000596AA9B9116B11F0F87F02D0916849056C
:101250000ED4516821F020015160DA6C22F48072C2
:10126000DA64DA6CD2045EBFDA6C42F00102DA644E
:101270001846FFF7D5FF10BD5B6CBDE810401B6B37
:101280001847704708B5406AFFF7FBFF08BD704775
:10129000406A08B5C36C43F04003C364036D43F078
:1012A00004030365FFF7F3FF08BD0000002373B5D7
:1012B000019390F84830012B00F09C8001234D6889
:1012C00080F84830062D04684FEA85030A6821D863
:1012D0002B441F25266C053B9D4026EA050502FA96
:1012E00003F32B432364092A4AD80725636902EBD9
:1012F00042068968B54023EA0503B1400B436361A8
:10130000A2F11003012B5DD9002380F84830184664
:1013100002B070BD0C2D0BD82B441F25E66B233B70
:101320009D4026EA050502FA03F32B43E363DAE75F
:10133000122D0BD82B441F25A66B413B9D4026EA5E
:10134000050502FA03F32B43A363CCE7182D0BD852
:101350002B441F25666B5F3B9D4026EA050502FA7C
:1013600003F32B436363BEE72B441F25266B7D3BB2
:101370009D4026EA050502FA03F32B432363B2E7F7
:10138000132A0DD8072602EB420523691E3D896802
:10139000AE4023EA060301FA05F52B432361AFE7CC
:1013A0001A2A0DD8072602EB4205E3683C3D8968FE
:1013B000AE4023EA060301FA05F52B43E3609FE7FD
:1013C00000BF9DE70C4B596809029DD45968102A4B
:1013D00041F40001596097D1084B094A1B68B3FBDF
:1013E000F2F20A2353430193019B002B8CD0019B03
:1013F000013BF8E702208BE7002701402C0000208A
:1014000040420F00002373B50193036804461A6835
:10141000520602D5002002B070BD9A6842F0010267
:101420009A60134B134A1B68B3FBF2F303EB4303BD
:101430000193019BC3B9FFF721FE064623681D688F
:1014400015F04005E6D1FFF719FE801B0228F5D9FB
:10145000E36C84F8485043F01003E364236D0120EB
:1014600043F001032365D6E7019B013BE0E700BFA2
:101470002C00002040420F002DE9D84190F8483060
:101480000446012B0F4690464ED0012380F8483089
:10149000FFF7B8FF0646002843D1E06C216820F42E
:1014A000E06020F0010040F48070E0644B683A4650
:1014B0005B0548BFE06C01F1580142BF20F4405089
:1014C00040F48050E064E36C606C13F480531CBF04
:1014D000236D23F006032365002384F84830134B63
:1014E0008362134BC362134B03636FF0220341F813
:1014F000583C51F8543C43F0806341F8543C51F857
:10150000503C43F4807341F8503C434600F012F9DC
:1015100023689A6812F0405F03D19A6842F08042D3
:101520009A603046BDE8D8810226FAE72312000807
:10153000851200089112000838B5036804461A683D
:10154000520601D4002038BD9A6822F001029A6048
:10155000FFF794FD054623681B685B06F2D5FFF78D
:101560008DFD401B0228F6D9E36C012043F01003E7
:10157000E364236D43F00103236538BD90F84830E0
:1015800010B5012B044622D0012380F84830FFF724
:10159000D3FFA8B92268606C936823F480739360CA
:1015A00000F006F9E36C78B923F4885323F00103C3
:1015B00043F001032268E364536823F080635360BF
:1015C000002384F8483010BD43F04003F2E70220C6
:1015D00010BD0000074A0002D36800F4E06023F465
:1015E000E0631B041B0C43F0BF6343F4003303436D
:1015F000D360704700ED00E0174B30B5DC68C4F3F2
:101600000224C4F10703251D042B28BF0423062D43
:101610004FF0010598BF002405FA03F303F1FF33EF
:1016200088BF033C1940A14005FA04F4013C224064
:10163000002842EA01024FEA0212AFBF00F1604007
:10164000064B00F00F00D2B2A5BFD2B200F5614048
:101650001A5480F8002330BD00ED00E014ED00E0E6
:101660000123420900F01F0003FA00F0014B43F888
:101670002200704700E100E00138B0F1807F0AD21B
:10168000F021064B064A586082F8231000200722FA
:1016900098601A6070470120704700BF10E000E0BA
:1016A00000ED00E010B5002839D001681D4B14246E
:1016B00099422CD81C4AA3F207430A44B2FBF4F225
:1016C00092000264C3630223846880F82130436877
:1016D0000A682343C46822F47F522343046922F03A
:1016E000300223434469234384692343C469234369
:1016F00013430B600122002383638362C36203638D
:10170000436380F8212080F82030184610BD074B35
:101710000B44B3FBF4F39B000364054BD2E70120B9
:1017200010BD00BF07640240F89FFDBFF89BFDBFDE
:1017300000640240F0B590F82040012C36D001241E
:1017400090F8215080F82040EDB2A5424FF00006FD
:101750004FF0020428D180F821400468866326688F
:10176000076C26F001062660C66BBD40756063609D
:1017700043680568102BC36A0BBFA260A160E160DB
:10178000E2604BB1236843F00E0323602B68002016
:1017900043F001032B60F0BD236823F004032360B2
:1017A000236843F00A03F0E780F820600220F0BDD0
:1017B000026803461168C06B21F00E0111601168C8
:1017C00021F00101116001211A6C01FA02F242605C
:1017D000002083F8211083F82000704770B404249F
:1017E000C16B026C0E680368944026421D680ED0DF
:1017F00015F0040F0BD01A6892065EBF1A6822F02B
:1018000004021A60C36A4C6073B370BC18470224A8
:101810009440264212D015F0020F0FD01A68950698
:1018200006D41A6822F00A021A60012380F82130D7
:1018300000234C6080F82030836AE5E70824944058
:10184000344211D02C070FD51C6824F00E041C6004
:10185000012303FA02F24A60836380F821300023F7
:1018600080F82030036BCFE770BC704700232DE970
:10187000F74FD1F80080DFF86891574A38FA03F43F
:1018800002D103B0BDE8F08F012404FA03FA18EA8C
:101890000A0500F099804C6824F0100BBBF1020F90
:1018A00014D10F274FEAD30E00EB8E0E03F0070C76
:1018B000DEF820604FEA8C0C07FA0CF726EA0707DF
:1018C0000E6906FA0CF63E43CEF8206003274FEA75
:1018D000430C07FA0CF7FF43066804F0030E3E4082
:1018E0000EFA0CFE0BF1FF3B4EEA0606BBF1010FB0
:1018F000066011D8866806EA070BCE6806FA0CFE69
:101900004EEA0B068660466826EA0A0AC4F3001609
:101910009E4046EA0A064660C66837408E6806FA68
:101920000CF63743E600C7604ED54FF00F0ED9F8DE
:10193000206023F0030746F00106C9F82060D9F8BB
:10194000206007F1804706F00106019607F5803711
:1019500003F0030C019E4FEA8C0CBE680EFA0CFEDD
:1019600026EA0E0E1D4EB04230D006F58066B0421B
:101970002ED006F58066B0422CD006F58066B042C7
:1019800014BF0526032606FA0CF646EA0E06BE60CC
:10199000EF43166814F4803F0CBF3E402E431660A0
:1019A000566814F4003F0CBF3E402E4356609668C4
:1019B00014F4801F0CBF3E402E439660D668A402EC
:1019C00054BF3E402E43D660013357E70026DAE786
:1019D0000126D8E70226D6E70004014000000240B5
:1019E000003802400369194214BF012000207047EB
:1019F0000AB1816170470904FBE70268536913F477
:101A000080630DD06FF4806353610423202203644C
:101A10000023036380F83C3080F83D2001207047AC
:101A2000184670472DE9F843044617469946C1F316
:101A300007488EB22568B8F1010F0CBF6B69AB691E
:101A400036EA030314BF0120002008B9BDE8F8837B
:101A50006B695A0512D52B68202243F400732B6062
:101A60006FF480636B6104232364002301202363EC
:101A700084F83C3084F83D20BDE8F8837B1CD9D045
:101A80004FB900232022236384F83C3084F83D20A2
:101A90000320BDE8F883FFF7F1FAA0EB09008742C5
:101AA000C8D2EEE72DE9F843044690461F46089E4B
:101AB000C1F307498DB22368B9F1010F0CBF5B690F
:101AC0009B6935EA03030CBF01230023434502D081
:101AD0000020BDE8F8837B1CEDD05FB900232022F5
:101AE000236384F83C3084F83D20032084F83E30A2
:101AF000BDE8F883FFF7C2FA801B8742DBD2EDE72F
:101B000070B504460D46164623685B691B0601D571
:101B1000002070BD2046FFF770FFA8B96A1CF3D003
:101B200065B9236C202243F02003236400230320A3
:101B3000236384F83C3084F83D2070BDFFF79EFAA3
:101B4000801B8542E0D2ECE7012070BD70B50446F1
:101B50000D4616462068436913F0400301D000206B
:101B600070BD4269D2060BD56FF01002426120228F
:101B7000236484F83C302363012084F83D2070BD49
:101B80005DB9236C032043F020032364202384F8F1
:101B90003D30002384F83C3070BDFFF76FFA801BA6
:101BA0008542D7D2EDE770B504460D461646236848
:101BB0005B695B0701D5002070BD2046FFF71DFF64
:101BC000A8B96A1CF3D065B9236C202243F0200326
:101BD000236400230320236384F83C3084F83D20F1
:101BE00070BDFFF74BFA801B8542E0D2ECE7012085
:101BF00070BD000070B5044608B9012070BD90F8B2
:101C00003D3003F0FF021BB980F83C2001F0E2FFF9
:101C100001F028F83B4B9842EFD924233A4D84F841
:101C20003D30B0FBF5F5236838491A6822F001020F
:101C30001A605A6822F03F022A435A6062681E6A9C
:101C40008A4281BF4FF4967169434FF47A75B1FBB4
:101C5000F5F194BF691C013126F03F06314319624A
:101C6000DD692A4925F44F458A4225F0FF0530D821
:101C70005200B0FBF2F0C0F30B02032A98BF04201D
:101C80002843D8611968206AE26921F0C001024343
:101C90000A431A609968E068226921F4034102430B
:101CA00021F0FF010A439A60D968A069626921F0B6
:101CB000FF0102430A43DA601A68002042F0010281
:101CC0001A602023206484F83D30206384F83E00AD
:101CD00070BDA16849B902EB4202B0FBF2F0C0F35B
:101CE0000B0262B140F40040CAE719214A43B0FB3D
:101CF000F2F0C0F30B0212B140F44040C0E7012003
:101D0000BEE700BF7F841E0040420F00A086010096
:101D10002DE9FF4104461F460D469046FFF7AEF9F8
:101D200094F83D300646202B04D00225284604B006
:101D3000BDE8F0810090192301224FF002112046E6
:101D4000FFF7B0FE0028F0D194F83C30012BECD026
:101D5000012384F83C3023681A68D2075EBF1A68F2
:101D600042F001021A601A6822F400621A6021220D
:101D700084F83D20102284F83E2000222264A2F53F
:101D800080326785E262628DC4F824802285E26A2F
:101D9000042A06D0E26A012A03D0E26A12F5803FE3
:101DA00004D11A6842F480721A6002E0226B122A8F
:101DB000F7D000960A9B00224FF001112046FFF752
:101DC00071FE28BB23692268B3F5804F12D105F05C
:101DD000FE05156133460A9A36492046FFF722FE72
:101DE0000546A0B9236803905A6903929B6903933F
:101DF000039B4FE0EB1103F0060343F0F003136184
:101E00002D4933460A9A2046FFF70CFE48B1236C51
:101E1000236C042B4FF0000307D184F83C300125DC
:101E200084E72368EDB21D61D4E784F83C300325D4
:101E30007CE732460A992046FFF762FE40B1236CE8
:101E4000042BF4D12268136843F400731360E6E7AF
:101E5000616A20684B1C63620B78228D0361638D7D
:101E6000013B9BB26385531E238543695B070AD5FB
:101E70004FB18B1C63624B78023A0361638D2285FC
:101E8000013B9BB2638532460A992046FFF78BFEE1
:101E90000028D4D1238D002BCBD121680A6842F4CD
:101EA00000720A60202284F83C3084F83D2084F8D7
:101EB0003E303BE702000100080001002DE9F0433D
:101EC000044689B098460D469146109FFFF7D6F814
:101ED00094F83D300646202B04D00225284609B050
:101EE000BDE8F0830090192301224FF00211204633
:101EF000FFF7D8FD0028F0D194F83C30012BECD04E
:101F0000012384F83C3023681A68D2075EBF1A6840
:101F100042F001021A601A6822F400621A6022225A
:101F200084F83D20102284F83E2000222264A2F58D
:101F30008032A4F82A80E262628DC4F8249022855F
:101F40001A6842F480621A60E26A042A06D0E26AE1
:101F5000012A03D0E26A12F5803F04D11A6842F4E4
:101F600080721A6002E0226B112AF7D000963B467D
:101F700000224FF001112046FFF794FD00284AD1BE
:101F80002369B3F5804F236836D145F00105EDB2E2
:101F90001D6133463A4682492046FFF743FD054618
:101FA000002837D1228D2368002A66D0012A77D1F4
:101FB0001A6822F480621A6004955A6904929A6938
:101FC0000492049A1A6842F400721A60DFF8D88109
:101FD000238D002B5BD0032B00F2C380012B7AD121
:101FE000324639462046FFF7B1FD002800F09080C8
:101FF000236C202B16D13EE04FEAE51808F00608C6
:1020000048F0F0021A61674933463A462046FFF726
:1020100009FD48B1236C236C042B4FF0000328D139
:1020200084F83C30012559E72368EDB21D613A463A
:1020300033465B492046FFF7F5FC02460028E9D10C
:102040002368079059692046079199690791079974
:10205000196841F48071196000963B464FF00111F8
:10206000FFF720FD0028D6D1226848F0F103136164
:102070008FE784F83C30032530E703955A690392D3
:102080009A690392039A1A6842F400721A60202334
:1020900084F83D30002384F83E3084F83C301DE75E
:1020A000022A1A680DD122F480621A601A6842F47A
:1020B00000621A6005955A6905929B690593059B14
:1020C00084E742F480621A6006955A6906929B6919
:1020D0000693069B7AE7022B00963B464FF00002E0
:1020E0004146204622D1FFF7DDFC0028C3D12368FA
:1020F0001A6842F400721A60626A1B69511C6162BC
:102100001370238D013B2385638D013B9BB2638557
:10211000636A5A1C6262226812691A70238D013B3D
:102120002385638D013B9BB2638551E7FFF7BAFCC2
:10213000024600289FD12368196821F48061196044
:10214000616A1B69481C60620B70238D0096013B1D
:102150002385638D4146013B9BB2638520463B4608
:10216000C1E7324639462046FFF7F0FC00287FF4ED
:102170003FAF636A5A1C6262226812691A70238D2B
:102180002268013B2385638D013B9BB263855369C4
:102190005B077FF51DAF636A591C6162BCE700BF36
:1021A0000200010008000100040001002DE9FF47C2
:1021B00004461F468A469146FEF760FF94F83D307C
:1021C0000646202B03D0022004B0BDE8F087009023
:1021D000192301224FF002112046FFF763FC00286B
:1021E000F1D194F83C30012BEDD0012384F83C3040
:1021F000236800251A680AF0FE0AD1075EBF1A6834
:1022000042F001021A601A6822F400621A60242364
:1022100084F83D30364B2564E36222684FF00111AB
:102220001368204643F48073136000963B460022F7
:10223000FFF738FC08B10320C6E723684FF0A00879
:10224000C3F810A0FEF71AFF064623685A699007E4
:1022500026D54FF0200884F83D805A6991072DD586
:102260001A684FF0021142F400721A6000220392C1
:102270005A69204603929B6901220393039B0096AF
:102280001923FFF70FFC0028D5D184F83D8084F88E
:102290003C0099E7FEF7F2FE801B87420BD3D4E7A0
:1022A0005A695205D5D494F83D20A02AD1D07A1C81
:1022B000CCD0002FEED184F83D80C6E71A684FF0ED
:1022C000021142F400721A606FF4806220465A6173
:1022D000009619230122FFF7E5FB0028ABD1013559
:1022E000A9459AD884F83C0084F83D8001206BE72A
:1022F0000000FFFF1C4B82B09A6812F0F00F0CD068
:1023000000221A490B6823F0010313430B6008688D
:1023100000F00100504002B070475A6A144912F0B0
:10232000805F0FD00A6802F4C052B2F5C05FE7D1F7
:10233000B0F5404FE4D10D4A136843F00403136035
:102340000122DEE75A6A42F080525A625A6A02F06B
:1023500080520192019A0A68596A02F4C05221F02F
:1023600080515962E1E700BF00380240003C024062
:102370000070004003682DE9F743D90704466AD48A
:1023800023689A0700F1E6802368DE0655D5C14D23
:10239000AB6813F00C0F40F083814FF4007393FA95
:1023A000A3F2296893FAA3F3B3FA83F3012203F0AB
:1023B0001F0302FA03F30B4202D0A369002B6ED075
:1023C000B44D206A6B6803F46043984240F24A813E
:1023D000FFF790FF002862D16B68226A23F4604304
:1023E00013436B6069684FF07F4393FAA3F3B3FA2A
:1023F00083F2E369934021F07F4213436B604FF413
:10240000604393FAA3F3B3FA83F0A24BF0219A68E6
:1024100091FAA1F1B1FA81F1236A02F0F002C3400E
:10242000581C4FF40043CA409B4983408A5C0020FB
:10243000D3409A4A1360FEF7F9FD23681D0700F1A7
:1024400091812368580700F1D381626A002A40F025
:102450005782002024E08F4B9A6802F00C02082A71
:1024600007D09A6802F00C020C2A1CD19B68DB038F
:1024700019D54FF4003393FAA3F2864A116893FA00
:10248000A3F3B3FA83F3012203F01F0302FA03F369
:102490000B423FF475AF6368002B7FF471AF0120EE
:1024A00003B0BDE8F08363687A4D012B20D12B681F
:1024B00043F480332B60FEF7E1FD4FF40035804696
:1024C0000126744F95FAA5F33A6895FAA5F3B3FA85
:1024D00083F303F01F0306FA03F313427FF450AFB4
:1024E000FEF7CCFDA0EB08006428EBD90320D7E76A
:1024F00013BB2B684FF4003623F480332B602B681A
:10250000012723F480232B60FEF7B8FD804696FA5E
:10251000A6F32A6896FAA6F3B3FA83F303F01F032F
:1025200007FA03F313423FF42BAFFEF7A7FDA0EB2E
:1025300008006428EBD9D9E7052B2B6803D143F4B5
:1025400080232B60B3E723F480332B602B6823F4C4
:102550008023AFE74F4B9A6802F00C02042A07D0A1
:102560009A6802F00C020C2A24D19B68DF0321D464
:10257000022393FAA3F2474A106893FAA3F3B3FA3B
:1025800083F3012103F01F0301FA03F3034213460F
:1025900002D0E2688A4282D158684FF4F85292FA27
:1025A000A2F2B2FA82F122698A4020F4F8510A4379
:1025B0005A60E9E6E268012582B395FAA5F3B3FA19
:1025C00083F303F1845303F58E139B001D60FEF724
:1025D00055FD022780462F4E97FAA7F3326897FAE7
:1025E000A7F3B3FA83F303F01F0305FA03F31342CF
:1025F0000DD071684FF4F85393FAA3F3B3FA83F252
:102600002369934021F4F85213437360BCE6FEF74C
:1026100035FDA0EB08000228DED967E795FAA5F39F
:10262000B3FA83F303F1845303F58E139B001A600E
:10263000FEF724FD02268046164F96FAA6F33A6866
:1026400096FAA6F3B3FA83F303F01F0305FA03F334
:1026500013423FF499AEFEF711FDA0EB08000228EB
:10266000EBD943E76B6823F4604303436B6069680D
:102670004FF07F4393FAA3F3B3FA83F2E3699340F5
:1026800021F07F4213436B60FFF734FE00283FF4D4
:10269000B6AE04E700380240AD6100082C0000200F
:1026A000A2694FF48073002A37D093FAA3F3B3FAE8
:1026B00083F3012603F1845303F58E139B001E6000
:1026C000FEF7DCFC4FF40077804697FAA7F32A6800
:1026D00097FAA7F3B3FA83F303F01F0306FA03F3A1
:1026E000134213D06B68226A23F4604313436B6078
:1026F00069684FF07F4393FAA3F3B3FA83F2E36977
:10270000934021F07F4213436B6096E6FEF7B6FCE0
:10271000A0EB08000228D8D9E8E693FAA3F3B3FAAD
:1027200083F303F1845303F58E139B001A60FEF7C5
:10273000A5FC4FF400768046012796FAA6F32A6896
:1027400096FAA6F3B3FA83F303F01F0307FA03F331
:1027500013423FF472AEFEF791FCA0EB0800022892
:10276000EBD9C3E662690125A94902B395FAA5F33D
:10277000B3FA83F30B449B001D60FEF77FFC022637
:102780008046A44F96FAA6F37A6B96FAA6F3B3FAAC
:1027900083F303F01F0305FA03F313427FF451AEF2
:1027A000FEF76CFCA0EB08000228EBD99EE695FA38
:1027B000A5F3B3FA83F30B449B001A60FEF75EFCAB
:1027C00002268046934F96FAA6F37A6B96FAA6F302
:1027D000B3FA83F303F01F0305FA03F313423FF444
:1027E00030AEFEF74BFCA0EB08000228EBD97DE6EB
:1027F000884B5A6AD10034D401265A6A42F080527A
:102800005A625B6A03F080530193019B824D2B68EF
:10281000DA0528D5A3687F4D012B34D16B6B43F4C7
:1028200080736B63FEF72AFC4FF400758146012725
:10283000DFF8E08195FAA5F3D8F8342095FAA5F3EE
:10284000B3FA83F303F01F0307FA03F313424ED0E6
:10285000002E3FF4FAAD6F4A536A23F0805353625F
:10286000F3E50026D2E72B6843F480732B60FEF774
:1028700005FC07462B68DB05CCD4FEF7FFFBC01B2D
:102880006428F7D932E623BB6B6B4FF4007723F44F
:1028900080736B636B6B4FF0010823F480636B6391
:1028A000FEF7ECFB814697FAA7F36A6B97FAA7F35A
:1028B000B3FA83F303F01F0308FA03F31342C7D0FC
:1028C000FEF7DCFB41F28833A0EB09009842EAD91D
:1028D0000CE6052B6B6B03D143F480636B639DE7C0
:1028E00023F480736B636B6B23F4806399E7FEF7CB
:1028F000C5FB41F28833A0EB090098429AD9F5E56F
:10290000444DAB6803F00C030C2B3FF4C8AD022A16
:102910004FF0807356D193FAA3F3B3FA83F30022F6
:1029200003F1845303F58E139B001A60FEF7A6FB98
:102930002E4680464FF00077012597FAA7F33268BC
:1029400097FAA7F3B3FA83F303F01F0305FA03F32F
:10295000134230D1B268A36AE16A22F47D020B43CC
:102960001343226B1343B3604FF0807393FAA3F3C6
:10297000B3FA83F303F1845303F58E139B001D60B8
:10298000FEF77CFB4FF0007407460125214E94FAB8
:10299000A4F3326894FAA4F3B3FA83F303F01F03A9
:1029A00005FA03F313427FF454ADFEF767FBC01B37
:1029B0000228ECD99AE5FEF761FBA0EB080002289B
:1029C000BBD993E593FAA3F3B3FA83F3002203F19F
:1029D000845303F58E139B001A60FEF74FFB4FF0F4
:1029E00000740746012694FAA4F32A6894FAA4F323
:1029F000B3FA83F303F01F0306FA03F313423FF421
:102A000028ADFEF73BFBC01B0228ECD96EE500BFEA
:102A1000A0C1911000380240007000401E4910B55E
:102A20008B6803F00C02082A05D00C2A05D0042A72
:102A300022D11A4810BD1A4810BD4FF4701292FAF4
:102A4000A2F2B2FA82F203F4701020FA02F21548F0
:102A5000845C4FF4400090FAA0F0B0FA80F203F4E6
:102A600040008B68D040DB034CBF0D4B0B4B01305B
:102A70006343B3FBF0F010BD48684FF4604393FA32
:102A8000A3F3B3FA83F300F46040D840431C4FF43F
:102A90000040984010BD00BF003802400024F40000
:102AA00000127A00C56100086A4B2DE9F0411A68EE
:102AB000064602F001028A420D4630D3326894077E
:102AC00040D4D00746D4634B1A6802F00102954205
:102AD000C0F0AE803268510700F1B380130707D50C
:102AE0005D4A3169936823F4605343EAC1039360FC
:102AF000FFF794FF584BF0229B6892FAA2F2B2FAC9
:102B000082F203F0F003D340544AD35CD840544BD4
:102B100018600020FEF78AFA0020BDE8F081012944
:102B200002BF1A6842F004021A601A6822F0010219
:102B30000A431A601B6803F001039942BED00120CA
:102B4000BDE8F0814449B0688B6823F0F00303438B
:102B50008B60B6E772684049022A0FD14FF4003308
:102B600093FAA3F0086893FAA3F3B3FA83F301216D
:102B700003F01F0301FA03F3034213E0032A02D117
:102B80004FF00073ECE7012A29D1022393FAA3F056
:102B9000096893FAA3F3B3FA83F303F01F0302FA6D
:102BA00003F30B42CBD02C4C41F28838A36823F0BE
:102BB00003031A43A260FEF761FA73680746022B0B
:102BC00010D1A36803F00C03082B3FF47CAFFEF791
:102BD00055FAC01B4045F4D90320BDE8F0814FF4FD
:102BE0000073BDE7032B0BD1A36803F00C030C2B80
:102BF0003FF469AFFEF742FAC01B4045F4D9EBE75A
:102C0000012B10D1A36803F00C03042B3FF45BAF3E
:102C1000FEF734FAC01B4045F4D9DDE7FEF72EFA83
:102C2000C01B4045D8D8A36813F00C0FF6D14AE773
:102C30001A6822F001021A601B68DA073FF57FAFBD
:102C400048E70549F0688B6823F4E06303438B6031
:102C500044E700BF003C024000380240AD6100087C
:102C60002C000020084B4FF4E0629B6892FAA2F21D
:102C7000B2FA82F203F4E063D340044AD35C044A1C
:102C80001068D840704700BF00380240BD6100089E
:102C90002C000020084B4FF460529B6892FAA2F27D
:102CA000B2FA82F203F46053D340044AD35C044A7C
:102CB0001068D840704700BF00380240BD6100086E
:102CC0002C00002003682DE9F7430446980701D142
:102CD000002055E04F4B5A6AD1003FD401255A6A73
:102CE00042F080525A625B6A03F080530193019B69
:102CF000494E3368DA0533D5464B6268196802F0ED
:102D0000C04001F0C041814204D1A06800F0C04041
:102D1000814207D002F44031B1F5403F02D1196839
:102D2000880375D45B6B13F440332CD16068394B46
:102D300000F44031B1F5403F06D11A6800F0C040C0
:102D400022F0C04202431A605A6B11435963002DAE
:102D5000BED05A6A22F080525A62B9E70025C7E70E
:102D6000336843F480733360FEF788F907463368AD
:102D7000DB05C1D4FEF782F9C01B6428F7D9032014
:102D800003B0BDE8F08302F44032934202D02268DF
:102D9000D10707D4A26802F440329342C6D0236818
:102DA0009A07C3D51B4E4FF40003716B21F44030DA
:102DB00093FAA3F2B2FA82F20127DFF860E07244DC
:102DC0009200176093FAA3F3B3FA83F300227344DB
:102DD0009B001A60CB057063A8D5FEF74FF94FF43E
:102DE0000078814698FAA8F3726B98FAA8F3B3FAC0
:102DF00083F303F01F0307FA03F3134296D1FEF7A0
:102E00003DF941F28833A0EB09009842EAD9B6E7D0
:102E10000120B5E70038024000700040A0C19110C9
:102E200038B503680446DA68520601D5002038BD7B
:102E30004FF0FF32DA60FEF721F905462368DB68C0
:102E40005B06F3D4FEF71AF9401BB0F57A7FF5D98B
:102E5000032038BD38B50446B0B1437F03F0FF020C
:102E600013B9027701F0EAFE0223CA2263772368CE
:102E700020465A6253225A62FFF7D2FF236828B1D4
:102E8000FF225A6204236377012038BD9A682569BE
:102E900022F4E00222F040029A60626899682A43B4
:102EA00065692A430A439A60E268A1681A611A694F
:102EB00042EA01421A61DA68A16922F08002DA600E
:102EC0001A6C22F480221A641A6C0A431A64FF22D4
:102ED0005A620123637738BD0023092803D840EAEA
:102EE0000310C0B270470A380133C0B2F5E7F8B535
:102EF000037F0646012B0F464FF002005ED00123F0
:102F000033773368707708784D788C789B683ABB54
:102F100013F0400308BFCB70FFF7DEFF01462846E1
:102F2000FFF7DAFF02462046FFF7D6FFFB7840EABC
:102F3000034040EA014040EA0224CA223368304696
:102F40005A6253225A62FFF76BFF33680546A0B1FD
:102F5000FF225A6204237377002333770120F8BDE0
:102F600013F040034FEA052508BFCB7045EA004047
:102F70002043CC7840EA0444DFE704F07F3424F0B7
:102F8000FE441C609A68386922F480229A60FA68CC
:102F9000996802430A439A60DA68304622F0800258
:102FA000DA6000F0B7F8FF2233685A6218B10423E0
:102FB00035777377D2E7012330777377F8BDF8B5AB
:102FC000037F0546012B4FF0020050D001236877A4
:102FD0002B774B78C8788E780C78002A40D1DA06A7
:102FE00003D523F010030A334B70FFF775FF074634
:102FF0004878FFF771FF02463046FFF76DFF40EA61
:10300000443040EA074040EA0224CA222B6828469E
:103010005A6253225A62FFF703FF2B68064638B103
:10302000FF225A6204236B7700232B770120F8BD1F
:1030300024F07F4424F0C0045C60DA68284622F063
:103040008002DA6000F066F8FF222B685A6218B13D
:1030500004232E776B77E9E7012328776B77F8BD98
:103060001B0243EA0040304340EA4434CDE7F8BD58
:103070000A22030900F00F0002FB0300C0B27047F0
:1030800038B503685C6824F07F4323F0C003180C54
:10309000C3F3042504F03F04C3F34233C8704D70FA
:1030A0008C700B7052B9FFF7E3FFC8702846FFF72A
:1030B000DFFF48702046FFF7DBFF8870002038BD37
:1030C00038B50C460368996A89B2616019691D6850
:1030D000C1F30E0105F07F3323F0FE43A160190C0C
:1030E00001F03F00C3F3062305F07F0501F0400126
:1030F00020706370A570E17052B9FFF7B9FF2070BE
:103100006078FFF7B5FF6070A078FFF7B1FFA0709F
:10311000002038BD38B5036804469A68920601D588
:10312000002038BDDA6822F0A002DA60FDF7A6FFC1
:1031300005462368DB689B06F2D4FDF79FFF401B22
:10314000B0F57A7FF5D9032038BD00002DE9F047AE
:1031500081460568C2682B69C16923F44053134353
:103160002B6183680069EA680343D9F8140022F4EC
:103170001642034322F00C020B431343EB606B69CE
:10318000D9F8182023F440731343B1F5004F6B6155
:103190007E4B7FD19D424FF0190447D1FFF77AFD56
:1031A00004FB00F3D9F804704FF064087F00B3FB10
:1031B000F7F3B3FBF8F31F01FFF76CFD6043D9F899
:1031C00004305B00B0FBF3F6FFF764FD6043D9F811
:1031D00004305B00B0FBF3F3B3FBF8F308FB1363BD
:1031E000DB003233B3FBF8F35B0003F4F876FFF750
:1031F00051FD6043D9F804205200B0FBF2FAFFF70A
:1032000049FD6043D9F804305B00B0FBF3F3B3FB36
:10321000F8F308FB13A3DB003233B3FBF8F303F03E
:1032200007033B443344AB60BDE8F087FFF71AFD6A
:1032300004FB00F3D9F804704FF064087F00B3FB7F
:10324000F7F3B3FBF8F31F01FFF70CFD6043D9F868
:1032500004305B00B0FBF3F6FFF704FD6043D9F8E0
:1032600004305B00B0FBF3F3B3FBF8F308FB13632C
:10327000DB003233B3FBF8F35B0003F4F876FFF7BF
:10328000F1FC6043D9F804205200B0FBF2FAFFF7DA
:10329000E9FCB6E79D424FF0190443D1FFF7FAFC71
:1032A00004FB00F3D9F804604FF06408B600B3FBE8
:1032B000F6F3B3FBF8F31E01FFF7ECFC6043D9F81B
:1032C00004309B00B0FBF3F7FFF7E4FC6043D9F850
:1032D00004309B00B0FBF3F3B3FBF8F308FB13736C
:1032E0001B013233B3FBF8F303F0F007FFF7D2FC16
:1032F0006043D9F804209200B0FBF2FAFFF7CAFC51
:103300006043D9F804309B00B0FBF3F3B3FBF8F350
:1033100008FB13A31B013233B3FBF8F303F00F03D5
:103320003B437FE7FFF79EFC04FB00F3D9F8046002
:103330004FF06408B600B3FBF6F3B3FBF8F31E01DD
:10334000FFF790FC6043D9F804309B00B0FBF3F723
:10335000FFF788FC6043D9F804309B00B0FBF3F31F
:10336000B3FBF8F308FB13731B013233B3FBF8F321
:1033700003F0F007FFF776FC6043D9F804209200D1
:10338000B0FBF2FAFFF76EFCBAE700BF003801406D
:10339000F8B504460E461546FDF770FE074622684E
:1033A000136836EA030301D10020F8BD6B1CF7D087
:1033B000C5B923680320DA6822F08002DA60DA688F
:1033C00022F02002DA60DA6822F48072DA605A6948
:1033D00022F001025A61012384F83930002384F875
:1033E0003830F8BDFDF74AFEC01B8542D7D2E0E772
:1033F00010B5044630B390F8393003F0FF021BB922
:1034000080F8382002F044F80223226884F839302A
:10341000D368204623F40053D360FFF797FE236858
:1034200000201A6922F490421A615A6922F02A0295
:103430005A61DA6842F40052DA600123E06384F8EA
:10344000393010BD012010BD70B50D4690F839100F
:103450000446C9B201291E4601D022294DD1002DB2
:1034600049D0002A47D094F83830012B45D00123A9
:1034700084F838300023E36394F83930A284222B97
:103480000CBF32231223E28484F83930E28C8AB9EB
:10349000324640212046FFF77BFFC0B994F839300F
:1034A000322B0CBF2223012384F83930002384F807
:1034B000383070BDA368013AB3F5805FE2844FF005
:1034C0008001324620460DD1FFF762FF08B103208C
:1034D00070BD2B882268C3F308035360236943B986
:1034E0000235D3E7FFF754FF0028F0D123682A788C
:1034F0005A600135CAE7012070BD022070BD90F806
:103500003930DBB2012B01D0122B28D129B322B3E1
:1035100090F83830012B22D0012380F83830002376
:10352000C3638285C28590F8392080F83830122A2A
:103530000CBF32222222036880F83920DA688162C7
:1035400042F48072DA605A69002042F001025A6146
:10355000DA6842F02002DA607047012070470220EA
:1035600070477047026813B511680446C907D368ED
:1035700005D5DB0542BFC36B43F00103C36311688C
:103580005369880703F0010304D51BB1E16B41F0D7
:103590000401E1631168490704D51BB1E16B41F0F7
:1035A0000201E1631168080704D51BB1E36B43F026
:1035B0000803E3631168D368890633D5980631D5CB
:1035C00094F8393003F0EF03222B2BD1A368216943
:1035D000B3F5805FA36A76D1526800296FD1C2F338
:1035E000080223F8022BA362E38D013B9BB2E38523
:1035F000C3B923682046DA6822F02002DA6094F822
:103600003920322A17BFDA68122322F48072DA6076
:103610001FBF5A6922F001025A61012384F8393030
:1036200001F0AEFA23681968DA68090622D5100697
:1036300020D594F8392002F0DF02122A1AD1A268AC
:10364000B2F5805F226A4CD11188C1F3080159603C
:103650002169002943D102322262E28C013A92B2FE
:10366000E2843AB9DA6822F08002DA60DA6842F07D
:103670004002DA601968DA68490610D552060ED59C
:10368000DA68204622F04002DA6094F83930322BB2
:103690000CBF2223012384F8393001F06FFAE36B69
:1036A0005BB1236820461A6801925B680193019B15
:1036B000012384F83930FFF754FF02B010BDD2B2B5
:1036C00023F8012B8FE721B9591C5268A1621A70A7
:1036D0008AE75268591CA16202F07F02F7E70132C3
:1036E000BAE7511C216212785A60B6E730B500245F
:1036F0001C481D4B012580E818004FF480730361BE
:103700004FF48063436102238362102385B00194E8
:10371000029403948460C4608461C461046245625D
:10372000C46243638463C563FDF7BCFC08B101F068
:103730003DFA062301A90B48019402950393FDF776
:10374000B5FD08B101F032FA01230193022301A96A
:1037500004480293FDF7AAFD08B101F027FA05B06D
:1037600030BD00BF080100200024014030B50546EF
:1037700089B01422002103A801F07AFF2A681D4BAA
:103780009A4234D103F58A331A6A1B4842F4007214
:103790001A621A6A03A902F400720192019ADA69A4
:1037A000164C42F00102DA61DB6903F00103029377
:1037B000029B032303930493FEF758F88022104BD7
:1037C000E26023604FF48072002322616360A36093
:1037D0004FF48062A3614FF4805320466261E3613D
:1037E000FDF760FF08B101F0E1F96C64656209B0B2
:1037F00030BD00BF0024014000000240C400002092
:10380000086002401FB50E4B03AA1870430943F02D
:1038100040038DF80C300A2300F01F0040F06000D8
:103820008DF80D0007480093462102230068FEF73B
:103830006FFA003018BF012005B05DF804FB00BF2F
:1038400064010020600100201FB5072304AA02F8CC
:10385000013D0A2306480093462101230068FEF734
:1038600057FA003018BF012005B05DF804FB00BF17
:103870006001002008B5074B1860FFF7E5FF30B97D
:103880004520FFF7BFFF003018BF012008BD012011
:1038900008BD00BF600100201FB503098DF80F00AF
:1038A00015D000F00F03032B11D80A4B0DF10F02B6
:1038B00018700A2308480093462101230068FEF788
:1038C00027FA003018BF012005B05DF804FB012085
:1038D000FAE700BF5C010020600100200A2330B538
:1038E000054685B01A48009303AA022346210068C2
:1038F000FEF7E4FA48BBBDF80C0040BA80B2FDF711
:10390000CBF9144B0446187845280AD0FDF7C0F9C6
:1039100001461148FDF7C8FA01462046FDF710FAA6
:1039200004460E4B1B78212B01D0112B05D12046CC
:103930004FF07C51FDF704FA044609492046FDF793
:10394000B3FA2860002005B030BD0120FBE700BFBE
:10395000600100206401002000008A425C01002018
:103960009A99993F0A4B07B5DA690B2042F08072A9
:10397000DA610022DB69114603F080730193019B39
:10398000FDF73AFE0B20FDF76BFE03B05DF804FB7C
:1039900000380240137830B513F0010413681DD0CD
:1039A0001488C4F3470431F81450C5EB5325C5F30C
:1039B0001605054465F35F23136021F8140013888E
:1039C00003F4FF71B1F5FF7F16BF01346FF34803B5
:1039D00064F3480313801068400C30BD00EB53259E
:1039E00065F35F231360C3F3470321F813001188C5
:1039F00001F4FF70B0F5FF7F05BF64F3480111804B
:103A00000133C9B20BBF41F0010163F348011170EA
:103A10001180E0E714222DE9F0478AB00DEB020097
:103A2000002101F025FE564B564DDA69DFF8608122
:103A300042F00402DA61DA69534E02F004020092A5
:103A4000009ADA69284642F02002DA61DA694FF218
:103A5000074102F020020192019ADA69002442F043
:103A60000102DA61DA694FF0030902F00102029201
:103A7000029ADA694FF0F00A42F00202DA61DA697A
:103A8000012702F002020392039ADA6942F0080267
:103A9000DA61DB69002203F008030493049BFDF75D
:103AA000A7FF404600224FF47071FDF7A1FF0022EE
:103AB00030464FF4F851FDF79BFF42F2300305A961
:103AC00040460593CDF818900794FDF7CFFE41F6D8
:103AD0000F0305A94046059306940794FDF7C6FE1B
:103AE00005A93046CDF814A006940794FDF7BEFE54
:103AF0004FF2030305A928460593069707940894F7
:103B0000FDF7B4FE40F204430593022305A92846BD
:103B1000079306970894FDF7A9FE4FF4707305A963
:103B200040460593069707940894FDF79FFE4FF4CF
:103B3000F85305A930460593069707940894FDF7B6
:103B400095FE4FF4004305A930460593CDF8189033
:103B50000794FDF78BFE042305A90C480593CDF8C7
:103B600018900794FDF782FE05A92846CDF814A009
:103B700006940794FDF77AFE0AB0BDE8F08700BF0F
:103B8000003802400004024000000240000C0240E5
:103B90000008024008B50C480C4BDFF834E04FF445
:103BA000804280E80840002302618360C360436173
:103BB0008361C3610362FEF71DF818B1BDE80840D8
:103BC00000F0F4BF08BD00BF6801002000540040B1
:103BD000801A060010B5044688B01422002103A8FC
:103BE00001F046FD2268134B9A4221D1124C03A9E1
:103BF000E369124843F00203E361E36903F002035F
:103C00000193019B4FF44073039312230493012308
:103C100005930323069304230793FDF727FE636AA6
:103C200043F400136362636A03F400130293029B7C
:103C300008B010BD005400400038024000040240AB
:103C400038B5054601F00CFD044610B9012001F01D
:103C5000CFFC2A46002101F00BFD204638BD0000B4
:103C600010B5154C86B001A900222046FFF728FAAE
:103C70009DF80420114B69461A709DF80520104BE1
:103C800020461A709DF806200E4B1A700022FFF78E
:103C9000F7F99DF800200C4B1A709DF803200B4B90
:103CA0001A709DF801200A4B1A709DF80220094BEA
:103CB0001A7006B010BD00BF600600202906002063
:103CC000F4030020530600203A060020D103002010
:103CD000D3030020C8010020F0B507460E46154664
:103CE00087B01422002101A81C4601F0C1FC9DF8F8
:103CF00038300022694611488DF800308DF8037085
:103D00008DF801608DF80250FFF759F9024690B91D
:103D10009DF8303001A98DF805309DF83430074802
:103D20008DF804408DF80630FFF7E1F8003018BF39
:103D3000012007B0F0BD0120FBE700BF60060020B6
:103D4000044B1A7802B101224FF480510248FDF76A
:103D50004FBE00BF2B06002000000240044B1A7823
:103D600002B101224FF400610248FDF741BE00BFDD
:103D7000D403002000000240044B1A7802B1012253
:103D80004FF400710248FDF733BE00BF0804002065
:103D900000000240044B1A7802B101224FF4806106
:103DA0000248FDF725BE00BFF203002000000240DC
:103DB000044B1A7802B101224FF480710248FDF7DA
:103DC00017BE00BFF30300200000024070B50F4D86
:103DD0000F4C2846FDF7D2FB20880E4B0E4E188064
:103DE00063880E4A0E493380FFF7D4FD0D4B0E4A0F
:103DF00018800E493088FFF7CDFD0D4B2146188005
:103E000002222846BDE87040FDF736BB08010020BD
:103E1000F603002038060020F00300204C060020A6
:103E2000D0010020DA030020CC0100202004002073
:103E3000500600202DE9F8432F4C002001F0D6FA5F
:103E40002E4D2046FFF74AFD012001F0CFFADFF8A2
:103E5000CC802846FFF742FD032001F0C7FA284E28
:103E60004046FFF73BFD042001F0C0FA3046FFF763
:103E700035FD24682F6820463946FCF759FE4FF07F
:103E80007C51FCF75DFFFDF7ABF81E4BD8F80090B6
:103E9000D6F8008005B21D8041464846FCF748FE32
:103EA0004FF07C51FCF74CFFFDF79AF8164B06B229
:103EB0001E8049462046FCF73BFE4FF07C51FCF744
:103EC0003FFFFDF78DF8114B04B21C804146384688
:103ED000FCF72EFE4FF07C51FCF732FFFDF780F827
:103EE0000B4B00B218800B4BAD1B1D800A4B241AE4
:103EF0001C80BDE8F88300BFDC030020C001002067
:103F00002C0600200A040020D8030020E003002033
:103F1000D6030020C6010020300600203406002011
:103F2000244A30B51378002B42D0234BB3F900005C
:103F300083B203F14F0189B29E29204906D8022499
:103F40001F4D2C701F4D2C7001240C7050339BB2F0
:103F5000A02B07D9002398420B70194C194823DD78
:103F600023700370184BB3F90040A3B203F127008C
:103F700080B24E2805D80225144805700125144842
:103F8000057028339BB2502B06D90020104B844279
:103F900018700E4B0ADD18700B784BB10C4B1B7868
:103FA00033B10023137030BD0123D9E70120F2E7BC
:103FB00030BD00BF10040020C6010020D003002047
:103FC0000600002007000020300600200500002029
:103FD0002A0600200000000038B51D4B1888FCF7A9
:103FE00029FA15A3D3E90023FCF78AFA14A3D3E92D
:103FF0000023FCF7AFFB04460D46164BC3E9004512
:1040000011A3D3E90023FCF70BFDA0B10EA3D3E964
:10401000002320462946FCF7BFF80F4B0022C3E9D6
:1040200000010E4BFCF76CFA0B460246FCF7B6F8A3
:104030000B4BC3E9000138BDB9900BB990534A3F0F
:1040400057AE39D505C5E03F000000A099990D4055
:10405000DA03002020060020E80300200000594079
:10406000000400200000000038B51D4B1888FCF744
:10407000E1F915A3D3E90023FCF742FA14A3D3E92D
:104080000023FCF767FB04460D46164BC3E90045C9
:1040900011A3D3E90023FCF7C3FCA0B10EA3D3E91D
:1040A000002320462946FCF777F80F4B0022C3E98E
:1040B00000010E4BFCF724FA0B460246FCF76EF8A3
:1040C0000B4BC3E9000138BDB9900BB990534A3F7F
:1040D00024FCE442D4CDE03F000000A099990D40BB
:1040E0005006002018040020580600200000594007
:1040F00040060020F0B597B06A466D46224B03F1AA
:104100001006144618685968083303C4B34222469F
:10411000F7D118689B882060A3802846FCF730F808
:10412000294682B24FF0FF331848FFF78DF900247B
:10413000174E184F154D610089B20A2301223046EF
:10414000FEF734F8D8B92346134A402106A801F0F7
:1041500051FB06A8FCF714F84FF0FF3382B206A912
:1041600028460134FFF770F9802CE4D14FF0FF337B
:1041700002220A490548FFF767F917B0F0BD4FF072
:10418000FF3301223946EBE75F5F00083807002064
:10419000680100205D5F0008565F000805600008A8
:1041A0000E4B1B7853B90E4A1278022A11D10D4AD0
:1041B0001370704702220B4B1A707047012B07D106
:1041C000074A1278022AF2D0002AF0D0012AF1D050
:1041D0007047012AEBD0002AECD070470200002083
:1041E00000000020030000200E4B1B7853B90E4A3C
:1041F0001278022A11D10D4A1370704702220B4B1C
:104200001A707047012B07D1074A1278022AF2D0A0
:10421000002AF0D0012AF1D07047012AEBD0002A01
:10422000ECD07047020000200100002004000020B4
:1042300038B5134C2378022B04D1002204211148F5
:10424000FDF7D6FB257855B9012204210D48FDF76D
:10425000CFFB2A464FF480610A48FDF7C9FB24785A
:10426000012C0CD1224604210648FDF7C1FB224651
:10427000BDE838404FF480610248FDF7B9BB38BD56
:10428000030000200004024038B5124C2378022BB2
:1042900004D1002201211048FDF7AAFB25784DB971
:1042A00001220D481146FDF7A3FB2A4602210A48C8
:1042B000FDF79EFB2478012C0BD1224621460648AF
:1042C000FDF796FB2246BDE8384002210248FDF783
:1042D0008FBB38BD040000200004024038B5144CE8
:1042E0002378022B05D100224FF480711148FDF78D
:1042F0007FFB257855B901224FF480710D48FDF7F9
:1043000077FB2A4680210B48FDF772FB2478012CAD
:104310000CD122464FF480710648FDF769FB224616
:10432000BDE8384080210348FDF762BB38BD00BFBF
:10433000050000200008024038B5134C2378022BFA
:1043400004D1002240211148FDF752FB257855B9D0
:10435000012240210D48FDF74BFB2A464FF48051C6
:104360000B48FDF745FB2478012C0CD12246402157
:104370000648FDF73DFB2246BDE838404FF480512A
:104380000348FDF735BB38BD060000200008024099
:104390000004024038B5154C2378022B05D10022C9
:1043A0004FF480411248FDF723FB25785DB90122C7
:1043B0004FF480410E48FDF71BFB2A464FF4005195
:1043C0000B48FDF715FB2478012C0DD122464FF444
:1043D00080410748FDF70CFB2246BDE838404FF40A
:1043E00000510348FDF704BB38BD00BF07000020A3
:1043F00000040240084B1A78084B2AB91A78084B77
:1044000042B902221A7070471B78002BFBD1044A74
:10441000137070470122F5E7D20300204806002000
:1044200000000020084B1A78084B2AB91A78084B6C
:1044300042B902221A7070471B78002BFBD1044A44
:10444000137070470122F5E752060020C4010020D6
:104450000100002008B510210648FDF7C3FA10B985
:10446000054B187005E010210248FDF7BBFA012842
:10447000F6D008BD00000240D203002008B520217C
:104480000648FDF7AFFA10B9054B187005E020217A
:104490000248FDF7A7FA0128F6D008BD0000024047
:1044A0004806002008B540210648FDF79BFA10B9E0
:1044B000054B187005E040210248FDF793FA0128EA
:1044C000F6D008BD000002405206002008B5802149
:1044D0000648FDF787FA10B9054B187005E08021F2
:1044E0000248FDF77FFA0128F6D008BD000002401F
:1044F000C40100202DE9F047C94ACA4B1278B8B070
:104500001B780292C84A4021127818A80192C74A23
:10451000C74C1278C74D0092C74A01F06BF918A832
:10452000FBF72EFE18A982B24FF0FF332046FEF7AC
:104530008BFF4FF0FF330122C0492046FEF784FF76
:10454000BF4AC04B12781B780192BF4A40211278B3
:1045500028A80092BD4A01F04DF928A8FBF710FEEB
:1045600028A982B24FF0FF332046FEF76DFF0122EB
:1045700029464FF0FF332046FEF766FFB44BD3E9E0
:10458000006739463046FCF755FA8046FBF752FF84
:1045900002460B4630463946FBF7FEFDFCF772FA41
:1045A000AC49FCF7CDFBFCF71BFDAB4F0346424685
:1045B000394604A801F052F904A8FBF7E1FD04A96B
:1045C00082B24FF0FF332046FEF73EFF012229461C
:1045D0004FF0FF332046FEF737FFA04BA04ED3E944
:1045E000008949464046FCF725FA8246FBF722FF40
:1045F00002460B4640464946FBF7CEFDFCF742FA21
:104600009449FCF79DFBFCF7EBFC52460346314610
:1046100006A801F023F906A8FBF7B2FD06A982B2AD
:104620004FF0FF332046FEF70FFF012229464FF0DF
:10463000FF332046FEF708FF8A4BD3E9008949463D
:104640004046FCF7F7F98246FBF7F4FE02460B46BC
:1046500040464946FBF7A0FDFCF714FA7D49FCF7FC
:104660006FFBFCF7BDFC52460346394608A801F033
:10467000F5F808A8FBF784FD08A982B24FF0FF33D4
:104680002046FEF7E1FE012229464FF0FF33204687
:10469000FEF7DAFE744BD3E9008949464046FCF741
:1046A000C9F90746FBF7C6FE02460B464046494697
:1046B000FBF772FDFCF7E6F96649FCF741FBFCF7F6
:1046C0008FFC3A46034631460AA801F0C7F80AA80B
:1046D000FBF756FD0AA982B24FF0FF332046FEF7E2
:1046E000B3FE294602224FF0FF332046FEF7ACFE10
:1046F0005E4B5F4E1868FCF773FC314602B20CA8A3
:1047000001F0ACF85B4B1868FCF76AFC314602B26A
:104710000EA801F0A3F8584B1868FCF761FC31466D
:1047200002B210A801F09AF8544B1868FCF758FC34
:10473000314602B212A801F091F80CA8FBF720FD57
:104740000CA982B24FF0FF332046FEF77DFE2946CA
:104750004FF0FF3301222046FEF776FE0EA8FBF74E
:104760000FFD0EA982B24FF0FF332046FEF76CFE1C
:1047700029464FF0FF3301222046FEF765FE10A8C0
:10478000FBF7FEFC10A982B24FF0FF332046FEF784
:104790005BFE29464FF0FF3301222046FEF754FE10
:1047A00012A8FBF7EDFC12A982B24FF0FF332046AE
:1047B000FEF74AFE29464FF0FF3303222046FEF75C
:1047C00043FE2F4B3146B3F9002014A801F046F800
:1047D0002C4B3146B3F9002016A801F03FF814A87D
:1047E000FBF7CEFC14A982B24FF0FF332046FEF750
:1047F0002BFE29464FF0FF3301222046FEF724FE10
:1048000016A8FBF7BDFC16A982B24FF0FF33204675
:10481000FEF71AFE29464FF0FF33012234E000BFB5
:104820003A060020C8010020D1030020D303002055
:10483000380700208C5F0008755F0008815F000862
:104840005306002029060020F4030020835F00089F
:10485000200600200000C8428E5F000800040020EF
:10486000985F00081804002040060020DC030020A8
:104870007E5F0008C0010020340600202C060020C6
:10488000C6010020300600202046FEF7DDFD4FF077
:10489000FF33022203492046FEF7D6FD38B0BDE8BB
:1048A000F08700BF0560000808B540212748FDF7E4
:1048B00099F808B9264B187080212448FDF792F822
:1048C00010B90122224B1A7020212048FDF78AF8E6
:1048D00010B901221F4B1A7010211C48FDF782F8F5
:1048E00008B91C4B187004211B48FDF77BF820B950
:1048F00001221A4B1A701A4B187008211648FDF73E
:1049000071F820B90122154B1870154B1A7001214E
:104910001148FDF767F820B90122124B1870124BAD
:104920001A7002210C48FDF75DF820B901220D4BE9
:104930001A700D4B18704FF400610748FDF752F8DC
:1049400010B90122094B1A7008BD00BF00040240D3
:1049500002000020F30300200008024008040020A9
:10496000F20300202B060020D403002010040020B6
:1049700030B5002497B03422002109A800F078FE59
:104980000021142204A800F073FE184A0194029436
:1049900003941368012523F4C05343F400631360A8
:1049A0000A23099310230D93022312934FF400233B
:1049B00014934FF4000309A815930C950E951394C6
:1049C000FDF7D8FC0F2304930323294604A805937D
:1049D000069407940894FEF767F84FF4003301A893
:1049E00001950293FEF76EF917B030BD00700040DC
:1049F0001FB500240125534B03261C60524B1C603D
:104A0000FCF728FBFFF7B4FFFFF704F8FEF7AAFF57
:104A1000FEF76CFEFFF7BEF800F002FD00F0C8F8EC
:104A200000F01AFD494B1D70494B1D70494B1C701D
:104A3000494B1C70494B1C70494B1C70FFF780F9A7
:104A4000FFF78CF9FFF7B4F9FFF796F9FFF7A2F932
:104A500007231A22009306211223029601941320A1
:104A6000FFF73AF93F49404800F0FCF800F064F9DC
:104A700000F002F93220FFF7E3F83C4B186000F039
:104A800097FA00F0F7FA00F059FB00F0B9FBFFF7D6
:104A900031FB374800F0A4FC204600F0A7FC344866
:104AA000FEF7E8FE1120FEF7F7FE284600F09EFC18
:104AB0001120FEF7F1FE304600F098FC1120FEF7C1
:104AC000EBFE042000F092FC1120FEF7E5FE02222E
:104AD00028492948FCF7D0FCFFF7C2F8FFF730F966
:104AE000FFF73CF9FFF748F9FFF754F9FFF760F9D2
:104AF000FFF76CF9FFF770FAFFF7B6FAFFF79AF9CC
:104B0000FFF7D2FEFFF7A6FCFFF7B8FCFFF7CAFCE1
:104B1000FFF7DCFCFFF76EFCFFF784FCFFF740FBC0
:104B2000FFF762FBFFF784FBFFF7AEFBFFF7F8F937
:104B3000FFF7D4FBFFF700FCFFF72CFCFFF7DAFCD4
:104B4000CAE700BF4C060020CC0100202B06002045
:104B5000D4030020F303002008040020F203002007
:104B60001004002038070020F80600200C04002064
:104B700068010020F60300200801002070470000B3
:104B8000064A074B18681378591C117005490A78B2
:104B9000C25401220448FEF7B2BC00BFFA03002051
:104BA0000C04002028060020F806002070470000B2
:104BB0007FB51422002101A800F05AFD00231D48F2
:104BC0001D4A009380E80C007F228260FF2203616F
:104BD000C26043618361FEF73DF908B1FFF7E6FF6C
:104BE00016238DF8043056238DF80530002301225A
:104BF00001A910488DF8063004930593FEF777F964
:104C000008B1FFF7D3FF03238DF8003006238DF89A
:104C1000013026238DF80230192301226946054808
:104C20008DF80330FEF7CBF908B1FFF7BFFF07B0EF
:104C30005DF804FB60060020002800400268074B76
:104C40009A420AD14FF4800292FAA2F2B2FA82F2A8
:104C5000034B134401229B001A6070470028004058
:104C6000A0C19110024B1860024B1960704700BF41
:104C700080060020CC060020F0B58DB006AA1546AF
:104C8000294B03F11006144618685968083303C409
:104C9000B3422246F7D118681B7920602371284659
:104CA000FBF76EFA214C4FF0FF3382B229462068A1
:104CB000FEF7CAFB01224FF400411D48FCF798FEA5
:104CC0004FF4FA60FCF7E0F900224FF40041184875
:104CD000FCF78EFE4FF4FA60FCF7D6F901224FF490
:104CE00000411348FCF784FE4FF4FA60FCF7CCF95E
:104CF00001AA16460F4B03F11007154618685968AC
:104D0000083303C5BB422A46F7D1186828603046ED
:104D1000FBF736FA4FF0FF3382B231462068FEF7D8
:104D200093FB0DB0F0BD00BF1F600008CC06002053
:104D3000000402403460000810B5174A86B01068BD
:104D4000516803AB03C39068144C186003A8FBF7C9
:104D500017FA4FF0FF3382B203A92068FEF774FB05
:104D600000224FF400710E48FCF742FE6B460D4ADC
:104D70001068516803C31189927A684619809A7045
:104D8000FBF7FEF94FF0FF3382B269462068FEF769
:104D90005BFB06B010BD00BF08600008CC06002019
:104DA0000008024014600008F0B500238DB003AA8B
:104DB00007461646584D2B70584B03F1080E144603
:104DC00018685968083303C473452246F7D1998897
:104DD00018689B792060A180A3713046FBF7D0F959
:104DE0004F4C82B231464FF0FF332068FEF72CFB68
:104DF0003846FBF7C5F94B4E82B239464FF0FF33C8
:104E00003068FEF721FB4FF0FF330222464930683D
:104E1000FEF71AFB306801224449FEF770FB0026BA
:104E2000434F3A68F3B2934206F1010651DD4FF069
:104E3000FF330A223F492068FEF706FB2A783E49E5
:104E400001A800F00BFD01A8FBF79AF93B4F82B2D5
:104E50004FF0FF3301A92068FEF7F6FA4FF0FF3359
:104E6000314902222068FEF7EFFA29783B680B44AB
:104E700013F8041C4F2930D113F8033C4B2B2CD1D1
:104E80002F4B07AA03F1100E16461868596808330D
:104E900003C673453246F7D11B7807A83370FBF77A
:104EA0006FF94FF0FF3382B207A92068FEF7CCFA02
:104EB0004FF0FF332A7839682068FEF7C5FA4FF0C3
:104EC000FF33022218492068FEF7BEFA01200DB018
:104ED000F0BD0A20FCF7D8F8A3E71A4B07AA03F1A4
:104EE0000806154618685968083303C5B3422A46B0
:104EF000F7D1998818689B792860A980AB7107A8B9
:104F0000FBF73EF94FF0FF3382B207A92068FEF7A6
:104F10009BFA0020DBE700BFFA0300207E61000857
:104F2000CC0600208006002005600008280600202E
:104F300028000020706100087A6100080C0400203D
:104F40008D6100089E610008F0B585B004466A4690
:104F50006E46154B03F10807154618685968083363
:104F600003C5BB422A46F7D118689B882860AB80EE
:104F70003046FBF705F982B20C484FF0FF3331465B
:104F80000068FEF761FA043C54F8045F2846FBF71A
:104F9000F7F8012801D8012004E02846FFF704FFB4
:104FA0000128F1D005B0F0BDFA5F0008CC06002062
:104FB00010B5294A86B01068516803AB03C39068E6
:104FC000264C186003A8FBF7DBF84FF0FF3382B2E2
:104FD00003A92068FEF738FA2148FFF7B5FF01283A
:104FE00002D0C0B206B010BD00211E4B1A68531E7D
:104FF00013F8010F01310A28FAD100230A441A4993
:10500000D05C0A2825D10022CA546B46174A516841
:105010001068128903C368461A80FBF7B1F84FF095
:10502000FF3382B269462068FEF70EFA0E48FBF79E
:10503000A7F84FF0FF3382B20B492068FEF704FA5D
:105040004FF0FF3302220A492068FEF7FDF90120E4
:10505000C8E7C8540133D3E7B85F0008CC06002086
:10506000100000200C040020D0060020C45F0008BF
:105070000560000810B52A4A86B01068516803AB75
:1050800003C31189927A03A819809A70FBF778F804
:10509000244C82B24FF0FF3303A92068FEF7D4F905
:1050A0002148FFF751FF012802D0C0B206B010BD61
:1050B00000211E4B1A68531E13F8010F01310A28F4
:1050C000FAD100230A441A49D05C0A2825D10022CB
:1050D000CA546B46174A51681068127A03C368466F
:1050E0001A70FBF74DF84FF0FF3382B26946206823
:1050F000FEF7AAF90E48FBF743F84FF0FF3382B2F0
:105100000B492068FEF7A0F94FF0FF3302220A494D
:105110002068FEF799F90120C8E7C8540133D3E7A6
:10512000CE5F0008CC060020180000200C040020F0
:10513000AC060020D95F00080560000810B5294AB8
:1051400086B01068516803AB03C39068264C1860A2
:1051500003A8FBF715F84FF0FF3382B203A92068CC
:10516000FEF772F92148FFF7EFFE012802D0C0B226
:1051700006B010BD00211E4B1A68531E13F8010F14
:1051800001310A28FAD100230A441A49D05C0A28BE
:1051900025D10022CA546B46174A516810681289FB
:1051A00003C368461A80FAF7EBFF4FF0FF3382B271
:1051B00069462068FEF748F90E48FAF7E1FF4FF01C
:1051C000FF3382B20B492068FEF73EF94FF0FF3300
:1051D00002220A492068FEF737F90120C8E7C854BF
:1051E0000133D3E7A25F0008CC06002008000020AE
:1051F0000C04002084060020AE5F00080560000853
:1052000070B588B004AA15462D4B03F10806144664
:1052100018685968083303C4B3422246F7D11868A6
:105220001B79206023712846FAF7AAFF254C82B229
:105230004FF0FF3329462068FEF706F92248FFF7B2
:1052400083FE012802D0C0B208B070BD00211F4B00
:105250001A68531E13F8010F01310A28FAD10023EE
:105260000A441B49D05C0A2827D10022CA54194A93
:1052700001AB1068516803C31189927A01A81980A3
:105280009A70FAF77DFF4FF0FF3382B201A92068D0
:10529000FEF7DAF80E48FAF773FF4FF0FF3382B2E9
:1052A0000B492068FEF7D0F84FF0FF3302220A497D
:1052B0002068FEF7C9F80120C6E7C8540133D1E7DA
:1052C000E25F0008CC060020200000200C04002033
:1052D0009C060020EF5F0008056000080F4B84B0BB
:1052E0005A6A42F000425A625A6A02F0004201923F
:1052F000019A1A6A42F001021A621A6A02F0010265
:105300000292029A5A6A42F080525A625B6A03F031
:1053100080530393039B04B0704700BF00380240E2
:105320007047FEE7FEE7FEE7FEE77047704770470D
:10533000FBF79CBE0148FCF751BA00BFC400002037
:105340000148FEF70FB900BF380700200148FEF7FB
:1053500009B900BFF806002008B500F043F916238C
:105360000360FEE708B50A4B0246196809B9094906
:1053700019606946186802448A4206D900F032F979
:105380000C2303604FF0FF3008BD1A6008BD00BF5A
:10539000B40000207C0700200E4B1A6842F4807293
:1053A0001A6099680C4A0A409A601A6822F088527A
:1053B00022F001121A601A6822F480221A609A6898
:1053C00022F47D029A600022DA604FF00062034B03
:1053D0009A607047003802400CC0FF8800ED00E082
:1053E000014B1860704700BFF006002007281FB56A
:1053F00012D8642340F0080004AA02F8010D0748FF
:105400000093E02101230068FCF782FCB0FA80F0F1
:10541000400905B05DF804FB0020FAE7F006002023
:1054200008B54FF4E13E0A480A4B0C2280E80840D8
:10543000002342618360C36003618361C361FDF740
:10544000D7FF18B1BDE80840FFF7B0BB08BD00BFEB
:10545000380700200044004008B54FF4E13E0A48F8
:105460000A4B0C2280E80840002342618360C3603D
:1054700003618361C361FDF7BBFF18B1BDE808405C
:10548000FFF794BB08BD00BFF806002000480040AD
:105490001422F0B504468BB00DEB0200002100F0A1
:1054A000E7F82368364A93422AD1364B05A95A6A4F
:1054B000354842F400325A625A6A02F400320092CD
:1054C000009ADA6942F00102DA61DB6903F0010354
:1054D0000193019B0C230593022306930123079359
:1054E0000323089307230993FCF7C0F90022262021
:1054F0001146FCF781F82620FCF7B2F80BB0F0BD9E
:10550000224A9342FAD11F4B02275A6A012642F4DB
:1055100080225A625A6A032502F480220292029A79
:10552000DA69072442F00202DA61DA6905A902F0B9
:1055300002020392039ADA69154842F00402DA6122
:10554000DB69069703F004030493049B4FF40063A4
:105550000796059308950994FCF788F94FF4806342
:1055600005A90C4805930697079608950994FCF73A
:105570007DF9002227201146FCF73EF82720BBE7E3
:105580000044004000380240000002400048004053
:105590000004024000080240002103E00B4B5B586E
:1055A000435004310A480B4B42189A42F6D30A4A38
:1055B00002E0002342F8043B084B9A42F9D3FFF77C
:1055C000EBFE00F029F8FFF713FA704710620008AD
:1055D0000000002094000020980000207C0700209C
:1055E000FEE70000014B1868704700BF3000002044
:1055F00008B5074B044613B10021AFF30080054BFB
:105600001868836A03B198472046FFF7A5FE00BFDC
:1056100000000000D061000870B500250C4E0D4C54
:10562000A41BA410A54209D100F088FC00250A4E55
:105630000A4CA41BA410A54205D170BD56F8253014
:1056400098470135EEE756F8253098470135F2E7DF
:105650000862000808620008086200080C6200087E
:10566000024B0146186800F057B800BF3000002018
:1056700003460244934200D1704703F8011BF9E747
:1056800038B50546002943D051F8043C0C1F002BC7
:10569000B8BFE41800F006F91E4A1368104633B983
:1056A000636014602846BDE8384000F0FCB8A342AF
:1056B0000BD921686218934201BF1A685B685218BF
:1056C000226063600460EDE713465A680AB1A242A3
:1056D000FAD919685818A0420BD12068014458180B
:1056E00082421960DED110685268014419605A6024
:1056F000D8E702D90C232B60D4E7206821188A420E
:1057000001BF116852680918216062605C60C9E7D6
:1057100038BD00BFB800002070B5CD1C25F00305D2
:1057200008350C2D38BF0C25002D064601DBA9429B
:1057300003D90C233360002070BD00F0B3F8234A76
:105740001468214691B9224C23681BB9304600F0F9
:1057500041F820602946304600F03CF8431C26D131
:105760000C233046336000F09EF8E4E70B685B1BC7
:105770001AD40B2B0FD90B60CC18CD50304600F04B
:1057800092F804F10B00231D20F00700C31A1BD070
:105790005A42E25070BD8C420BBF63684B68136085
:1057A000636018BF0C46E9E70C464968CAE7C41CA9
:1057B00024F00304A04205D0211A304600F00AF874
:1057C0000130CDD02560D9E770BD00BFB800002002
:1057D000BC00002038B50023054C05460846236070
:1057E000FFF7C0FD431C02D1236803B12B6038BD15
:1057F000780700200CB430B5174B0C1E9DB01D6807
:1058000008DA8B234FF0FF302B601DB0BDE830402D
:1058100002B070474FF40273ADF814300CBF23464A
:1058200004F1FF33049307934FF6FF730290069041
:10583000ADF81630209A21AB02A92846019300F05A
:105840008FF8431CBCBF8B232B60002CDDD00022C3
:10585000029B1A70D9E700BF300000200EB44FF44D
:10586000027100B59CB0ADF814106FF000410491C6
:1058700007914FF6FF711DAB02900690084853F850
:10588000042BADF81610006802A9019300F068F827
:105890000022029B1A701CB05DF804EB03B0704745
:1058A00030000020704770472DE9F0478E6882462F
:1058B0009E420C469146984635D88A8912F4906FDC
:1058C00031D00223256809696F1A656905EB450522
:1058D00095FBF3F508F101033B449D4238BF1D469B
:1058E000530531D52946FFF717FF064650B90C235B
:1058F000CAF80030A3894FF0FF3043F04003A38182
:10590000BDE8F0873A46216900F0C4FAA38923F480
:10591000906343F08003A38126613E44266046469F
:105920006561ED1BA560464528BF4646494632469F
:10593000206800F0BAFAA36800209B1BA3602368CC
:105940001E442660BDE8F0872A4600F0C8FA0646E5
:105950000028E1D121695046FFF792FEC7E7000019
:105960002DE9F04F9DB003938B8980461C060D46B0
:1059700016460FD50B696BB94021FFF7CDFE2860A5
:10598000286128B90C23C8F800304FF0FF30C4E07C
:1059900040236B610023099320238DF829303023A5
:1059A0004FF0010B8DF82A3037463C4614F8013B86
:1059B000002B3CD1B7EB060A0BD0534632462946A2
:1059C0004046FFF771FF013000F0A280099B53446D
:1059D00009933B78002B00F09B8000234FF0FF32AF
:1059E00004930793059206938DF853301A9305227A
:1059F0002178504800F040FA671C049BD8B9D906BA
:105A000044BF20228DF853201A0744BF2B228DF863
:105A1000532022782A2A16D000210A20079A2746E6
:105A20003B780134303B092B50D9C9B111E0252B0B
:105A3000C0D02746B9E73F4A3C46801A0BFA00F02F
:105A400018430490D3E7039A111D12680391002AAA
:105A500001DB079204E0524243F0020307920493F1
:105A60003B782E2B0DD17B78791C2A2B32D1039BCE
:105A700002371A1D1B680392002BB8BF4FF0FF338B
:105A800005932D4C03223978204600F0F5F938B102
:105A90004023001B03FA00F0049B013703430493E7
:105AA0003978062225487E1C8DF8281000F0E4F98C
:105AB000002835D0224BFBB9039B073323F00703A3
:105AC00008330393099B4B4409936DE700FB0232B3
:105AD0000121A4E700230A24184605930F463A78CB
