:020000040800F2
:100000000040002035520008C94F0008CB4F0008BF
:10001000CD4F0008CF4F0008D14F0008000000006E
:10002000000000000000000000000000D34F0008A6
:10003000D54F000800000000D74F0008D94F000836
:100040007D5200087D5200087D5200087D52000854
:100050007D5200087D5200087D5200087D52000844
:100060007D5200087D5200087D520008DD4F0008D7
:100070007D5200087D5200087D5200087D52000824
:100080007D5200087D5200087D5200087D52000814
:100090007D5200087D5200087D5200087D52000804
:1000A0007D5200087D5200087D5200087D520008F4
:1000B0007D5200087D5200087D5200087D520008E4
:1000C0007D5200087D5200087D5200087D520008D4
:1000D0007D5200087D520008E94F0008F54F0008E6
:1000E0007D5200087D5200087D5200087D520008B4
:1000F0007D52000800000000000000007D52000852
:1001000000000000000000007D5200087D52000841
:100110007D5200087D5200087D520008000000005A
:100120007D520008000000000000000000000000F8
:0C01300000000000000000005FF808F173
:1001400010B5054C237833B9044B13B10448AFF311
:1001500000800123237010BD780000200000000003
:10016000B05B000808B5034B1BB103490348AFF36C
:10017000008008BD000000007C000020B05B00088B
:10018000034613F8012B002AFBD1181A01387047D7
:1001900081F0004102E000BF83F0004330B54FEA38
:1001A00041044FEA430594EA050F08BF90EA020FA5
:1001B0001FBF54EA000C55EA020C7FEA645C7FEA38
:1001C000655C00F0E2804FEA5454D4EB5555B8BF5B
:1001D0006D420CDD2C4480EA020281EA030382EACC
:1001E000000083EA010180EA020281EA0303362D5E
:1001F00088BF30BD11F0004F4FEA01314FF4801C31
:100200004CEA113102D0404261EB410113F0004F42
:100210004FEA03334CEA133302D0524263EB4303F9
:1002200094EA050F00F0A780A4F10104D5F1200E97
:100230000DDB02FA0EFC22FA05F2801841F10001F2
:1002400003FA0EF2801843FA05F359410EE0A5F1C6
:1002500020050EF1200E012A03FA0EFC28BF4CF0F7
:10026000020C43FA05F3C01851EBE37101F00045AD
:1002700007D54FF0000EDCF1000C7EEB00006EEBBA
:100280000101B1F5801F1BD3B1F5001F0CD3490844
:100290005FEA30004FEA3C0C04F101044FEA44529B
:1002A00012F5800F80F09A80BCF1004F08BF5FEA22
:1002B000500C50F1000041EB045141EA050130BD02
:1002C0005FEA4C0C404141EB010111F4801FA4F1A5
:1002D0000104E9D191F0000F04BF01460020B1FAFA
:1002E00081F308BF2033A3F10B03B3F120020CDA32
:1002F0000C3208DD02F1140CC2F10C0201FA0CF010
:1003000021FA02F10CE002F11402D8BFC2F1200C74
:1003100001FA02F120FA0CFCDCBF41EA0C0190402A
:10032000E41AA2BF01EB0451294330BD6FEA040473
:100330001F3C1CDA0C340EDC04F11404C4F120025E
:1003400020FA04F001FA02F340EA030021FA04F370
:1003500045EA030130BDC4F10C04C4F1200220FAC7
:1003600002F001FA04F340EA0300294630BD21FA05
:1003700004F0294630BD94F0000F83F4801306BFCB
:1003800081F480110134013D4EE77FEA645C18BFBF
:100390007FEA655C29D094EA050F08BF90EA020F56
:1003A00005D054EA000C04BF1946104630BD91EA4E
:1003B000030F1EBF0021002030BD5FEA545C05D151
:1003C0004000494128BF41F0004130BD14F5800490
:1003D0003CBF01F5801130BD01F0004545F0FE4104
:1003E00041F470014FF0000030BD7FEA645C1ABF39
:1003F000194610467FEA655C1CBF0B46024650EA70
:10040000013406BF52EA033591EA030F41F400219B
:1004100030BD00BF90F0000F04BF0021704730B521
:100420004FF4806404F132044FF000054FF00001F6
:1004300050E700BF90F0000F04BF0021704730B5B7
:100440004FF4806404F1320410F0004548BF40428C
:100450004FF000013EE700BF42004FEAE2014FEAE1
:1004600031014FEA02701FBF12F07F4393F07F4FBC
:1004700081F06051704792F0000F14BF93F07F4FEE
:10048000704730B54FF4607401F0004521F0004131
:1004900020E700BF50EA010208BF704730B54FF0B7
:1004A00000050AE050EA010208BF704730B511F0BC
:1004B000004502D5404261EB41014FF4806404F1F4
:1004C00032045FEA915C3FF4DCAE4FF003025FEA76
:1004D000DC0C18BF03325FEADC0C18BF033202EBFE
:1004E000DC02C2F1200300FA03FC20FA02F001FA58
:1004F00003FE40EA0E0021FA02F11444C1E600BFF7
:1005000070B54FF0FF0C4CF4E06C1CEA11541DBFA9
:100510001CEA135594EA0C0F95EA0C0F00F0DEF874
:100520002C4481EA030621EA4C5123EA4C5350EA59
:10053000013518BF52EA033541F4801143F48013AA
:1005400038D0A0FB02CE4FF00005E1FB02E506F03B
:100550000042E0FB03E54FF00006E1FB03569CF090
:10056000000F18BF4EF0010EA4F1FF04B6F5007F96
:1005700064F5407404D25FEA4E0E6D4146EB060608
:1005800042EAC62141EA55514FEAC52040EA5E5091
:100590004FEACE2EB4F1FD0C88BFBCF5E06F1ED83B
:1005A000BEF1004F08BF5FEA500E50F1000041EB72
:1005B000045170BD06F0004646EA010140EA02001F
:1005C00081EA0301B4EB5C04C2BFD4EB0C0541EA41
:1005D000045170BD41F480114FF0000E013C00F356
:1005E000AB8014F1360FDEBF002001F0004170BD7A
:1005F000C4F10004203C35DA0C341BDC04F1140493
:10060000C4F1200500FA05F320FA04F001FA05F21E
:1006100040EA020001F0004221F0004110EBD370EB
:1006200021FA04F642EB06015EEA430E08BF20EA17
:10063000D37070BDC4F10C04C4F1200500FA04F3BA
:1006400020FA05F001FA04F240EA020001F000414C
:1006500010EBD37041F100015EEA430E08BF20EABF
:10066000D37070BDC4F1200500FA05F24EEA020E07
:1006700020FA04F301FA05F243EA020321FA04F036
:1006800001F0004121FA04F220EA020000EBD370ED
:100690005EEA430E08BF20EAD37070BD94F0000FED
:1006A0000FD101F00046400041EB010111F4801F21
:1006B00008BF013CF7D041EA060195F0000F18BFD2
:1006C000704703F00046520043EB030313F4801F0E
:1006D00008BF013DF7D043EA0603704794EA0C0FC8
:1006E0000CEA135518BF95EA0C0F0CD050EA4106DE
:1006F00018BF52EA4306D1D181EA030101F000415B
:100700004FF0000070BD50EA410606BF1046194682
:1007100052EA430619D094EA0C0F02D150EA01368E
:1007200013D195EA0C0F05D152EA03361CBF1046CF
:1007300019460AD181EA030101F0004141F0FE416E
:1007400041F470014FF0000070BD41F0FE4141F4F2
:10075000780170BD70B54FF0FF0C4CF4E06C1CEAF2
:1007600011541DBF1CEA135594EA0C0F95EA0C0FA7
:1007700000F0A7F8A4EB050481EA030E52EA033562
:100780004FEA013100F088804FEA03334FF0805583
:1007900045EA131343EA12634FEA022245EA1115B0
:1007A00045EA10654FEA00260EF000419D4208BF61
:1007B000964244F1FD0404F5407402D25B084FEA0E
:1007C0003202B61A65EB03055B084FEA32024FF4BA
:1007D00080104FF4002CB6EB020E75EB030E22BF17
:1007E000B61A754640EA0C005B084FEA3202B6EBD7
:1007F000020E75EB030E22BFB61A754640EA5C0086
:100800005B084FEA3202B6EB020E75EB030E22BF15
:10081000B61A754640EA9C005B084FEA3202B6EB16
:10082000020E75EB030E22BFB61A754640EADC00D5
:1008300055EA060E18D04FEA051545EA16754FEA37
:1008400006164FEAC30343EA52734FEAC2025FEA55
:100850001C1CC0D111F4801F0BD141EA00014FF0E4
:1008600000004FF0004CB6E711F4801F04BF0143B5
:100870000020B4F1FD0C88BFBCF5E06F3FF6AFAED1
:10088000B5EB030C04BFB6EB020C5FEA500C50F161
:10089000000041EB045170BD0EF0004E4EEA1131E4
:1008A00014EB5C04C2BFD4EB0C0541EA045170BDEB
:1008B00041F480114FF0000E013C90E645EA060E2F
:1008C0008DE60CEA135594EA0C0F08BF95EA0C0F5D
:1008D0003FF43BAF94EA0C0F0AD150EA01347FF4A5
:1008E00034AF95EA0C0F7FF425AF104619462CE77C
:1008F00095EA0C0F06D152EA03353FF4FDAE1046DF
:10090000194622E750EA410618BF52EA43067FF42F
:10091000C5AE50EA41047FF40DAF52EA43057FF4BF
:10092000EBAE12E74FF0FF3C06E000BF4FF0010CCA
:1009300002E000BF4FF0010C4DF804CD4FEA410C2E
:100940007FEA6C5C4FEA430C18BF7FEA6C5C1BD0FB
:1009500001B050EA410C0CBF52EA430C91EA030F7C
:1009600002BF90EA020F0020704710F1000F91EAD9
:10097000030F58BF994208BF90422CBFD8176FEAA7
:10098000E37040F0010070474FEA410C7FEA6C5C75
:1009900002D150EA013C07D14FEA430C7FEA6C5C7C
:1009A000D6D152EA033CD3D05DF8040B704700BFA8
:1009B0008446104662468C461946634600E000BFF6
:1009C00001B5FFF7B7FF002848BF10F1000F01BDC8
:1009D0004DF808EDFFF7F4FF0CBF012000205DF893
:1009E00008FB00BF4DF808EDFFF7EAFF34BF012018
:1009F00000205DF808FB00BF4DF808EDFFF7E0FFB1
:100A000094BF012000205DF808FB00BF4DF808ED01
:100A1000FFF7CEFF94BF012000205DF808FB00BF68
:100A20004DF808EDFFF7C4FF34BF012000205DF84A
:100A300008FB00BF4FEA410212F5001215D211D592
:100A40006FF47873B3EB625212D94FEAC12343F0CB
:100A5000004343EA505311F0004F23FA02F018BF4D
:100A6000404270474FF00000704750EA013005D116
:100A700011F0004008BF6FF0004070474FF00000D9
:100A8000704700BF4FEA4102B2F1E04324BFB3F523
:100A9000001CDCF1FE5C0DD901F0004C4FEAC002F5
:100AA0004CEA5070B2F1004F40EB830008BF20F0D9
:100AB0000100704711F0804F21D113F13872BCBF93
:100AC00001F00040704741F480114FEA5252C2F1E8
:100AD0001802C2F1200C10FA0CF320FA02F018BF31
:100AE00040F001004FEAC1234FEAD32303FA0CFC84
:100AF00040EA0C0023FA02F34FEA4303CCE77FEA13
:100B0000625307D150EA01331EBF4FF0FE4040F45C
:100B10004000704701F0004040F0FE4040F400000B
:100B2000704700BF80F0004002E000BF81F000414C
:100B300042001FBF5FEA410392EA030F7FEA226C83
:100B40007FEA236C6AD04FEA1262D2EB1363C1BF13
:100B5000D218414048404140B8BF5B42192B88BF82
:100B6000704710F0004F40F4000020F07F4018BFA5
:100B7000404211F0004F41F4000121F07F4118BFC5
:100B8000494292EA030F3FD0A2F1010241FA03FC6D
:100B900010EB0C00C3F1200301FA03F100F0004355
:100BA00002D5494260EB4000B0F5000F13D3B0F11D
:100BB000807F06D340084FEA310102F10102FE2A8C
:100BC00051D2B1F1004F40EBC25008BF20F00100FC
:100BD00040EA03007047490040EB000010F4000FAA
:100BE000A2F10102EDD1B0FA80FCACF1080CB2EB3D
:100BF0000C0200FA0CF0AABF00EBC250524218439C
:100C0000BCBFD0401843704792F0000F81F4000140
:100C100006BF80F400000132013BB5E74FEA410313
:100C20007FEA226C18BF7FEA236C21D092EA030F7F
:100C300004D092F0000F08BF0846704790EA010FF9
:100C40001CBF0020704712F07F4F04D1400028BF26
:100C500040F00040704712F100723CBF00F5000008
:100C6000704700F0004343F0FE4040F4000070473E
:100C70007FEA226216BF08467FEA236301464202EA
:100C800006BF5FEA412390EA010F40F480007047FD
:100C90004FF0000304E000BF10F0004348BF4042A3
:100CA0005FEA000C08BF704743F0964301464FF0DF
:100CB00000001CE050EA010208BF70474FF000033B
:100CC0000AE000BF50EA010208BF704711F000437C
:100CD00002D5404261EB41015FEA010C02BF84464C
:100CE0000146002043F0B64308BFA3F18053A3F5AB
:100CF0000003BCFA8CF2083AA3EBC25310DB01FAF2
:100D000002FC634400FA02FCC2F12002BCF1004F75
:100D100020FA02F243EB020008BF20F00100704706
:100D200002F1200201FA02FCC2F1200250EA4C005A
:100D300021FA02F243EB020008BF20EADC707047A0
:100D40004FF0FF0C1CEAD0521EBF1CEAD15392EAAE
:100D50000C0F93EA0C0F6FD01A4480EA010C40028A
:100D600018BF5FEA41211ED04FF0006343EA5010E4
:100D700043EA5111A0FB01310CF00040B1F5000F26
:100D80003EBF490041EAD3715B0040EA010062F1D5
:100D90007F02FD2A1DD8B3F1004F40EBC25008BFBF
:100DA00020F00100704790F0000F0CF0004C08BFDD
:100DB00049024CEA502040EA51207F3AC2BFD2F1AA
:100DC000FF0340EAC250704740F400004FF00003B8
:100DD000013A5DDC12F1190FDCBF00F000407047F2
:100DE000C2F10002410021FA02F1C2F1200200FA30
:100DF00002FC5FEA310040F1000053EA4C0308BFF7
:100E000020EADC70704792F0000F00F0004C02BF47
:100E1000400010F4000F013AF9D040EA0C0093F0C2
:100E2000000F01F0004C02BF490011F4000F013B1C
:100E3000F9D041EA0C018FE70CEAD15392EA0C0F8A
:100E400018BF93EA0C0F0AD030F0004C18BF31F0F5
:100E5000004CD8D180EA010000F00040704790F0CB
:100E6000000F17BF90F0004F084691F0000F91F06F
:100E7000004F14D092EA0C0F01D142020FD193EA35
:100E80000C0F03D14B0218BF084608D180EA0100BD
:100E900000F0004040F0FE4040F40000704740F099
:100EA000FE4040F4400070474FF0FF0C1CEAD05267
:100EB0001EBF1CEAD15392EA0C0F93EA0C0F69D0C3
:100EC000A2EB030280EA010C49024FEA402037D02E
:100ED0004FF0805343EA111143EA10130CF0004025
:100EE0008B4238BF5B0042F17D024FF4000C8B4215
:100EF00024BF5B1A40EA0C00B3EB510F24BFA3EBF5
:100F0000510340EA5C00B3EB910F24BFA3EB9103C4
:100F100040EA9C00B3EBD10F24BFA3EBD10340EA1E
:100F2000DC001B0118BF5FEA1C1CE0D1FD2A3FF664
:100F300050AF8B4240EBC25008BF20F00100704719
:100F40000CF0004C4CEA50207F32C2BFD2F1FF03BC
:100F500040EAC250704740F400004FF00003013AED
:100F600037E792F0000F00F0004C02BF400010F491
:100F7000000F013AF9D040EA0C0093F0000F01F0A5
:100F8000004C02BF490011F4000F013BF9D041EAC7
:100F90000C0195E70CEAD15392EA0C0F08D14202FA
:100FA0007FF47DAF93EA0C0F7FF470AF084676E7CD
:100FB00093EA0C0F04D14B023FF44CAF08466EE7A6
:100FC00030F0004C18BF31F0004CCAD130F0004274
:100FD0007FF45CAF31F000437FF43CAF5FE700BFCC
:100FE0004FEA4002B2F1FE4F0FD34FF09E03B3EB36
:100FF00012620DD94FEA002343F0004310F0004F76
:1010000023FA02F018BF404270474FF000007047CB
:1010100012F1610F01D1420205D110F0004008BF6A
:101020006FF0004070474FF000007047084B10B55C
:10103000044618684FF47A73B0FBF3F000F01CFB21
:10104000002221464FF0FF3000F0D6FA002010BDFC
:101050001000002008B5032000F0BCFA0020FFF7C4
:10106000E5FF03F08FFF002008BD0000024A13686F
:1010700001331360704700BFA4000020014B1868C3
:10108000704700BFA400002013B50190FFF7F6FFE2
:101090000446FFF7F3FF019B001B9842F9D302B00F
:1010A00010BD0000F7B5044608B9012092E0C36CFA
:1010B00073B9036580F84830544B1A6A42F0010254
:1010C0001A621B6A03F001030193019B02F050FBBB
:1010D000E36CDB06E9D4E36C4D4A23F4885323F038
:1010E000020343F00203E3645368616823F440336E
:1010F0000B4353604FF4007090FAA0F00223B0FA53
:1011000080F0616A93FAA3F3B3FA83F36569E26846
:1011100001FA03F32A43256A2A43E56B05FA00F036
:1011200002431343626B2569102A1CBFA06B024364
:10113000206818BF1343026812F0400223D1A66949
:10114000E7693343A668B5F5807F46EA070643D0D2
:10115000012D08BF4FF480723243E66A012E0DD193
:1011600000293BD14FF4604191FAA1F1B1FA81F627
:10117000216B42F400620139B1400A4346682549B7
:1011800031400A4342608168234AB5F5807F02EA14
:10119000010242EA0302826001D0012D27D1056BD2
:1011A0004FF0F87292FAA2F2B2FA82F1A26A013A10
:1011B0008A4025F0F8710A4302638168174A0A40A1
:1011C000934218D100202065E36C23F0030343F021
:1011D0000103E36403B0F0BD2A46BDE7E16C41F0D2
:1011E0002001E164216D41F001012165C6E7026B38
:1011F00022F0F872E0E7E36C23F0120343F01003EF
:10120000E364236D43F0010323654EE70038024099
:1012100000270140FF16FCFC89F1FFC0FEFF80BFE4
:101220007047436A10B5DA6C12F0500F24D1DA6CB3
:1012300042F40072DA641A68916811F0405F17D1C5
:10124000596AA9B9116B11F0F87F02D0916849056C
:101250000ED4516821F020015160DA6C22F48072C2
:10126000DA64DA6CD2045EBFDA6C42F00102DA644E
:101270001846FFF7D5FF10BD5B6CBDE810401B6B37
:101280001847704708B5406AFFF7FBFF08BD704775
:10129000406A08B5C36C43F04003C364036D43F078
:1012A00004030365FFF7F3FF08BD0000002373B5D7
:1012B000019390F84830012B00F09C8001234D6889
:1012C00080F84830062D04684FEA85030A6821D863
:1012D0002B441F25266C053B9D4026EA050502FA96
:1012E00003F32B432364092A4AD80725636902EBD9
:1012F00042068968B54023EA0503B1400B436361A8
:10130000A2F11003012B5DD9002380F84830184664
:1013100002B070BD0C2D0BD82B441F25E66B233B70
:101320009D4026EA050502FA03F32B43E363DAE75F
:10133000122D0BD82B441F25A66B413B9D4026EA5E
:10134000050502FA03F32B43A363CCE7182D0BD852
:101350002B441F25666B5F3B9D4026EA050502FA7C
:1013600003F32B436363BEE72B441F25266B7D3BB2
:101370009D4026EA050502FA03F32B432363B2E7F7
:10138000132A0DD8072602EB420523691E3D896802
:10139000AE4023EA060301FA05F52B432361AFE7CC
:1013A0001A2A0DD8072602EB4205E3683C3D8968FE
:1013B000AE4023EA060301FA05F52B43E3609FE7FD
:1013C00000BF9DE70C4B596809029DD45968102A4B
:1013D00041F40001596097D1084B094A1B68B3FBDF
:1013E000F2F20A2353430193019B002B8CD0019B03
:1013F000013BF8E702208BE70027014010000020A6
:1014000040420F00002373B50193036804461A6835
:10141000520602D5002002B070BD9A6842F0010267
:101420009A60134B134A1B68B3FBF2F303EB4303BD
:101430000193019BC3B9FFF721FE064623681D688F
:1014400015F04005E6D1FFF719FE801B0228F5D9FB
:10145000E36C84F8485043F01003E364236D0120EB
:1014600043F001032365D6E7019B013BE0E700BFA2
:101470001000002040420F002DE9D84190F848307C
:101480000446012B0F4690464ED0012380F8483089
:10149000FFF7B8FF0646002843D1E06C216820F42E
:1014A000E06020F0010040F48070E0644B683A4650
:1014B0005B0548BFE06C01F1580142BF20F4405089
:1014C00040F48050E064E36C606C13F480531CBF04
:1014D000236D23F006032365002384F84830134B63
:1014E0008362134BC362134B03636FF0220341F813
:1014F000583C51F8543C43F0806341F8543C51F857
:10150000503C43F4807341F8503C434600F012F9DC
:1015100023689A6812F0405F03D19A6842F08042D3
:101520009A603046BDE8D8810226FAE72312000807
:10153000851200089112000838B5036804461A683D
:10154000520601D4002038BD9A6822F001029A6048
:10155000FFF794FD054623681B685B06F2D5FFF78D
:101560008DFD401B0228F6D9E36C012043F01003E7
:10157000E364236D43F00103236538BD90F84830E0
:1015800010B5012B044622D0012380F84830FFF724
:10159000D3FFA8B92268606C936823F480739360CA
:1015A00000F006F9E36C78B923F4885323F00103C3
:1015B00043F001032268E364536823F080635360BF
:1015C000002384F8483010BD43F04003F2E70220C6
:1015D00010BD0000074A0002D36800F4E06023F465
:1015E000E0631B041B0C43F0BF6343F4003303436D
:1015F000D360704700ED00E0174B30B5DC68C4F3F2
:101600000224C4F10703251D042B28BF0423062D43
:101610004FF0010598BF002405FA03F303F1FF33EF
:1016200088BF033C1940A14005FA04F4013C224064
:10163000002842EA01024FEA0212AFBF00F1604007
:10164000064B00F00F00D2B2A5BFD2B200F5614048
:101650001A5480F8002330BD00ED00E014ED00E0E6
:101660000123420900F01F0003FA00F0014B43F888
:101670002200704700E100E00138B0F1807F0AD21B
:10168000F021064B064A586082F8231000200722FA
:1016900098601A6070470120704700BF10E000E0BA
:1016A00000ED00E010B5002839D001681D4B14246E
:1016B00099422CD81C4AA3F207430A44B2FBF4F225
:1016C00092000264C3630223846880F82130436877
:1016D0000A682343C46822F47F522343046922F03A
:1016E000300223434469234384692343C469234369
:1016F00013430B600122002383638362C36203638D
:10170000436380F8212080F82030184610BD074B35
:101710000B44B3FBF4F39B000364054BD2E70120B9
:1017200010BD00BF07640240F89FFDBFF89BFDBFDE
:1017300000640240F0B590F82040012C36D001241E
:1017400090F8215080F82040EDB2A5424FF00006FD
:101750004FF0020428D180F821400468866326688F
:10176000076C26F001062660C66BBD40756063609D
:1017700043680568102BC36A0BBFA260A160E160DB
:10178000E2604BB1236843F00E0323602B68002016
:1017900043F001032B60F0BD236823F004032360B2
:1017A000236843F00A03F0E780F820600220F0BDD0
:1017B000026803461168C06B21F00E0111601168C8
:1017C00021F00101116001211A6C01FA02F242605C
:1017D000002083F8211083F82000704770B404249F
:1017E000C16B026C0E680368944026421D680ED0DF
:1017F00015F0040F0BD01A6892065EBF1A6822F02B
:1018000004021A60C36A4C6073B370BC18470224A8
:101810009440264212D015F0020F0FD01A68950698
:1018200006D41A6822F00A021A60012380F82130D7
:1018300000234C6080F82030836AE5E70824944058
:10184000344211D02C070FD51C6824F00E041C6004
:10185000012303FA02F24A60836380F821300023F7
:1018600080F82030036BCFE770BC704700232DE970
:10187000F74FD1F80080DFF86891574A38FA03F43F
:1018800002D103B0BDE8F08F012404FA03FA18EA8C
:101890000A0500F099804C6824F0100BBBF1020F90
:1018A00014D10F274FEAD30E00EB8E0E03F0070C76
:1018B000DEF820604FEA8C0C07FA0CF726EA0707DF
:1018C0000E6906FA0CF63E43CEF8206003274FEA75
:1018D000430C07FA0CF7FF43066804F0030E3E4082
:1018E0000EFA0CFE0BF1FF3B4EEA0606BBF1010FB0
:1018F000066011D8866806EA070BCE6806FA0CFE69
:101900004EEA0B068660466826EA0A0AC4F3001609
:101910009E4046EA0A064660C66837408E6806FA68
:101920000CF63743E600C7604ED54FF00F0ED9F8DE
:10193000206023F0030746F00106C9F82060D9F8BB
:10194000206007F1804706F00106019607F5803711
:1019500003F0030C019E4FEA8C0CBE680EFA0CFEDD
:1019600026EA0E0E1D4EB04230D006F58066B0421B
:101970002ED006F58066B0422CD006F58066B042C7
:1019800014BF0526032606FA0CF646EA0E06BE60CC
:10199000EF43166814F4803F0CBF3E402E431660A0
:1019A000566814F4003F0CBF3E402E4356609668C4
:1019B00014F4801F0CBF3E402E439660D668A402EC
:1019C00054BF3E402E43D660013357E70026DAE786
:1019D0000126D8E70226D6E70004014000000240B5
:1019E000003802400369194214BF012000207047EB
:1019F0000AB1816170470904FBE70268536913F477
:101A000080630DD06FF4806353610423202203644C
:101A10000023036380F83C3080F83D2001207047AC
:101A2000184670472DE9F843044617469946C1F316
:101A300007488EB22568B8F1010F0CBF6B69AB691E
:101A400036EA030314BF0120002008B9BDE8F8837B
:101A50006B695A0512D52B68202243F400732B6062
:101A60006FF480636B6104232364002301202363EC
:101A700084F83C3084F83D20BDE8F8837B1CD9D045
:101A80004FB900232022236384F83C3084F83D20A2
:101A90000320BDE8F883FFF7F1FAA0EB09008742C5
:101AA000C8D2EEE72DE9F843044690461F46089E4B
:101AB000C1F307498DB22368B9F1010F0CBF5B690F
:101AC0009B6935EA03030CBF01230023434502D081
:101AD0000020BDE8F8837B1CEDD05FB900232022F5
:101AE000236384F83C3084F83D20032084F83E30A2
:101AF000BDE8F883FFF7C2FA801B8742DBD2EDE72F
:101B000070B504460D46164623685B691B0601D571
:101B1000002070BD2046FFF770FFA8B96A1CF3D003
:101B200065B9236C202243F02003236400230320A3
:101B3000236384F83C3084F83D2070BDFFF79EFAA3
:101B4000801B8542E0D2ECE7012070BD70B50446F1
:101B50000D4616462068436913F0400301D000206B
:101B600070BD4269D2060BD56FF01002426120228F
:101B7000236484F83C302363012084F83D2070BD49
:101B80005DB9236C032043F020032364202384F8F1
:101B90003D30002384F83C3070BDFFF76FFA801BA6
:101BA0008542D7D2EDE770B504460D461646236848
:101BB0005B695B0701D5002070BD2046FFF71DFF64
:101BC000A8B96A1CF3D065B9236C202243F0200326
:101BD000236400230320236384F83C3084F83D20F1
:101BE00070BDFFF74BFA801B8542E0D2ECE7012085
:101BF00070BD000070B5044608B9012070BD90F8B2
:101C00003D3003F0FF021BB980F83C2001F0F6FFE5
:101C100001F028F83B4B9842EFD924233A4D84F841
:101C20003D30B0FBF5F5236838491A6822F001020F
:101C30001A605A6822F03F022A435A6062681E6A9C
:101C40008A4281BF4FF4967169434FF47A75B1FBB4
:101C5000F5F194BF691C013126F03F06314319624A
:101C6000DD692A4925F44F458A4225F0FF0530D821
:101C70005200B0FBF2F0C0F30B02032A98BF04201D
:101C80002843D8611968206AE26921F0C001024343
:101C90000A431A609968E068226921F4034102430B
:101CA00021F0FF010A439A60D968A069626921F0B6
:101CB000FF0102430A43DA601A68002042F0010281
:101CC0001A602023206484F83D30206384F83E00AD
:101CD00070BDA16849B902EB4202B0FBF2F0C0F35B
:101CE0000B0262B140F40040CAE719214A43B0FB3D
:101CF000F2F0C0F30B0212B140F44040C0E7012003
:101D0000BEE700BF7F841E0040420F00A086010096
:101D10002DE9FF4104461F460D469046FFF7AEF9F8
:101D200094F83D300646202B04D00225284604B006
:101D3000BDE8F0810090192301224FF002112046E6
:101D4000FFF7B0FE0028F0D194F83C30012BECD026
:101D5000012384F83C3023681A68D2075EBF1A68F2
:101D600042F001021A601A6822F400621A6021220D
:101D700084F83D20102284F83E2000222264A2F53F
:101D800080326785E262628DC4F824802285E26A2F
:101D9000042A06D0E26A012A03D0E26A12F5803FE3
:101DA00004D11A6842F480721A6002E0226B122A8F
:101DB000F7D000960A9B00224FF001112046FFF752
:101DC00071FE28BB23692268B3F5804F12D105F05C
:101DD000FE05156133460A9A36492046FFF722FE72
:101DE0000546A0B9236803905A6903929B6903933F
:101DF000039B4FE0EB1103F0060343F0F003136184
:101E00002D4933460A9A2046FFF70CFE48B1236C51
:101E1000236C042B4FF0000307D184F83C300125DC
:101E200084E72368EDB21D61D4E784F83C300325D4
:101E30007CE732460A992046FFF762FE40B1236CE8
:101E4000042BF4D12268136843F400731360E6E7AF
:101E5000616A20684B1C63620B78228D0361638D7D
:101E6000013B9BB26385531E238543695B070AD5FB
:101E70004FB18B1C63624B78023A0361638D2285FC
:101E8000013B9BB2638532460A992046FFF78BFEE1
:101E90000028D4D1238D002BCBD121680A6842F4CD
:101EA00000720A60202284F83C3084F83D2084F8D7
:101EB0003E303BE702000100080001002DE9F0433D
:101EC000044689B098460D469146109FFFF7D6F814
:101ED00094F83D300646202B04D00225284609B050
:101EE000BDE8F0830090192301224FF00211204633
:101EF000FFF7D8FD0028F0D194F83C30012BECD04E
:101F0000012384F83C3023681A68D2075EBF1A6840
:101F100042F001021A601A6822F400621A6022225A
:101F200084F83D20102284F83E2000222264A2F58D
:101F30008032A4F82A80E262628DC4F8249022855F
:101F40001A6842F480621A60E26A042A06D0E26AE1
:101F5000012A03D0E26A12F5803F04D11A6842F4E4
:101F600080721A6002E0226B112AF7D000963B467D
:101F700000224FF001112046FFF794FD00284AD1BE
:101F80002369B3F5804F236836D145F00105EDB2E2
:101F90001D6133463A4682492046FFF743FD054618
:101FA000002837D1228D2368002A66D0012A77D1F4
:101FB0001A6822F480621A6004955A6904929A6938
:101FC0000492049A1A6842F400721A60DFF8D88109
:101FD000238D002B5BD0032B00F2C380012B7AD121
:101FE000324639462046FFF7B1FD002800F09080C8
:101FF000236C202B16D13EE04FEAE51808F00608C6
:1020000048F0F0021A61674933463A462046FFF726
:1020100009FD48B1236C236C042B4FF0000328D139
:1020200084F83C30012559E72368EDB21D613A463A
:1020300033465B492046FFF7F5FC02460028E9D10C
:102040002368079059692046079199690791079974
:10205000196841F48071196000963B464FF00111F8
:10206000FFF720FD0028D6D1226848F0F103136164
:102070008FE784F83C30032530E703955A690392D3
:102080009A690392039A1A6842F400721A60202334
:1020900084F83D30002384F83E3084F83C301DE75E
:1020A000022A1A680DD122F480621A601A6842F47A
:1020B00000621A6005955A6905929B690593059B14
:1020C00084E742F480621A6006955A6906929B6919
:1020D0000693069B7AE7022B00963B464FF00002E0
:1020E0004146204622D1FFF7DDFC0028C3D12368FA
:1020F0001A6842F400721A60626A1B69511C6162BC
:102100001370238D013B2385638D013B9BB2638557
:10211000636A5A1C6262226812691A70238D013B3D
:102120002385638D013B9BB2638551E7FFF7BAFCC2
:10213000024600289FD12368196821F48061196044
:10214000616A1B69481C60620B70238D0096013B1D
:102150002385638D4146013B9BB2638520463B4608
:10216000C1E7324639462046FFF7F0FC00287FF4ED
:102170003FAF636A5A1C6262226812691A70238D2B
:102180002268013B2385638D013B9BB263855369C4
:102190005B077FF51DAF636A591C6162BCE700BF36
:1021A0000200010008000100040001002DE9FF47C2
:1021B00004461F468A469146FEF760FF94F83D307C
:1021C0000646202B03D0022004B0BDE8F087009023
:1021D000192301224FF002112046FFF763FC00286B
:1021E000F1D194F83C30012BEDD0012384F83C3040
:1021F000236800251A680AF0FE0AD1075EBF1A6834
:1022000042F001021A601A6822F400621A60242364
:1022100084F83D30364B2564E36222684FF00111AB
:102220001368204643F48073136000963B460022F7
:10223000FFF738FC08B10320C6E723684FF0A00879
:10224000C3F810A0FEF71AFF064623685A699007E4
:1022500026D54FF0200884F83D805A6991072DD586
:102260001A684FF0021142F400721A6000220392C1
:102270005A69204603929B6901220393039B0096AF
:102280001923FFF70FFC0028D5D184F83D8084F88E
:102290003C0099E7FEF7F2FE801B87420BD3D4E7A0
:1022A0005A695205D5D494F83D20A02AD1D07A1C81
:1022B000CCD0002FEED184F83D80C6E71A684FF0ED
:1022C000021142F400721A606FF4806220465A6173
:1022D000009619230122FFF7E5FB0028ABD1013559
:1022E000A9459AD884F83C0084F83D8001206BE72A
:1022F0000000FFFF1C4B82B09A6812F0F00F0CD068
:1023000000221A490B6823F0010313430B6008688D
:1023100000F00100504002B070475A6A144912F0B0
:10232000805F0FD00A6802F4C052B2F5C05FE7D1F7
:10233000B0F5404FE4D10D4A136843F00403136035
:102340000122DEE75A6A42F080525A625A6A02F06B
:1023500080520192019A0A68596A02F4C05221F02F
:1023600080515962E1E700BF00380240003C024062
:102370000070004003682DE9F743D90704466AD48A
:1023800023689A0700F1E6802368DE0655D5C14D23
:10239000AB6813F00C0F40F083814FF4007393FA95
:1023A000A3F2296893FAA3F3B3FA83F3012203F0AB
:1023B0001F0302FA03F30B4202D0A369002B6ED075
:1023C000B44D206A6B6803F46043984240F24A813E
:1023D000FFF790FF002862D16B68226A23F4604304
:1023E00013436B6069684FF07F4393FAA3F3B3FA2A
:1023F00083F2E369934021F07F4213436B604FF413
:10240000604393FAA3F3B3FA83F0A24BF0219A68E6
:1024100091FAA1F1B1FA81F1236A02F0F002C3400E
:10242000581C4FF40043CA409B4983408A5C0020FB
:10243000D3409A4A1360FEF7F9FD23681D0700F1A7
:1024400091812368580700F1D381626A002A40F025
:102450005782002024E08F4B9A6802F00C02082A71
:1024600007D09A6802F00C020C2A1CD19B68DB038F
:1024700019D54FF4003393FAA3F2864A116893FA00
:10248000A3F3B3FA83F3012203F01F0302FA03F369
:102490000B423FF475AF6368002B7FF471AF0120EE
:1024A00003B0BDE8F08363687A4D012B20D12B681F
:1024B00043F480332B60FEF7E1FD4FF40035804696
:1024C0000126744F95FAA5F33A6895FAA5F3B3FA85
:1024D00083F303F01F0306FA03F313427FF450AFB4
:1024E000FEF7CCFDA0EB08006428EBD90320D7E76A
:1024F00013BB2B684FF4003623F480332B602B681A
:10250000012723F480232B60FEF7B8FD804696FA5E
:10251000A6F32A6896FAA6F3B3FA83F303F01F032F
:1025200007FA03F313423FF42BAFFEF7A7FDA0EB2E
:1025300008006428EBD9D9E7052B2B6803D143F4B5
:1025400080232B60B3E723F480332B602B6823F4C4
:102550008023AFE74F4B9A6802F00C02042A07D0A1
:102560009A6802F00C020C2A24D19B68DF0321D464
:10257000022393FAA3F2474A106893FAA3F3B3FA3B
:1025800083F3012103F01F0301FA03F3034213460F
:1025900002D0E2688A4282D158684FF4F85292FA27
:1025A000A2F2B2FA82F122698A4020F4F8510A4379
:1025B0005A60E9E6E268012582B395FAA5F3B3FA19
:1025C00083F303F1845303F58E139B001D60FEF724
:1025D00055FD022780462F4E97FAA7F3326897FAE7
:1025E000A7F3B3FA83F303F01F0305FA03F31342CF
:1025F0000DD071684FF4F85393FAA3F3B3FA83F252
:102600002369934021F4F85213437360BCE6FEF74C
:1026100035FDA0EB08000228DED967E795FAA5F39F
:10262000B3FA83F303F1845303F58E139B001A600E
:10263000FEF724FD02268046164F96FAA6F33A6866
:1026400096FAA6F3B3FA83F303F01F0305FA03F334
:1026500013423FF499AEFEF711FDA0EB08000228EB
:10266000EBD943E76B6823F4604303436B6069680D
:102670004FF07F4393FAA3F3B3FA83F2E3699340F5
:1026800021F07F4213436B60FFF734FE00283FF4D4
:10269000B6AE04E700380240105C000810000020CD
:1026A000A2694FF48073002A37D093FAA3F3B3FAE8
:1026B00083F3012603F1845303F58E139B001E6000
:1026C000FEF7DCFC4FF40077804697FAA7F32A6800
:1026D00097FAA7F3B3FA83F303F01F0306FA03F3A1
:1026E000134213D06B68226A23F4604313436B6078
:1026F00069684FF07F4393FAA3F3B3FA83F2E36977
:10270000934021F07F4213436B6096E6FEF7B6FCE0
:10271000A0EB08000228D8D9E8E693FAA3F3B3FAAD
:1027200083F303F1845303F58E139B001A60FEF7C5
:10273000A5FC4FF400768046012796FAA6F32A6896
:1027400096FAA6F3B3FA83F303F01F0307FA03F331
:1027500013423FF472AEFEF791FCA0EB0800022892
:10276000EBD9C3E662690125A94902B395FAA5F33D
:10277000B3FA83F30B449B001D60FEF77FFC022637
:102780008046A44F96FAA6F37A6B96FAA6F3B3FAAC
:1027900083F303F01F0305FA03F313427FF451AEF2
:1027A000FEF76CFCA0EB08000228EBD99EE695FA38
:1027B000A5F3B3FA83F30B449B001A60FEF75EFCAB
:1027C00002268046934F96FAA6F37A6B96FAA6F302
:1027D000B3FA83F303F01F0305FA03F313423FF444
:1027E00030AEFEF74BFCA0EB08000228EBD97DE6EB
:1027F000884B5A6AD10034D401265A6A42F080527A
:102800005A625B6A03F080530193019B824D2B68EF
:10281000DA0528D5A3687F4D012B34D16B6B43F4C7
:1028200080736B63FEF72AFC4FF400758146012725
:10283000DFF8E08195FAA5F3D8F8342095FAA5F3EE
:10284000B3FA83F303F01F0307FA03F313424ED0E6
:10285000002E3FF4FAAD6F4A536A23F0805353625F
:10286000F3E50026D2E72B6843F480732B60FEF774
:1028700005FC07462B68DB05CCD4FEF7FFFBC01B2D
:102880006428F7D932E623BB6B6B4FF4007723F44F
:1028900080736B636B6B4FF0010823F480636B6391
:1028A000FEF7ECFB814697FAA7F36A6B97FAA7F35A
:1028B000B3FA83F303F01F0308FA03F31342C7D0FC
:1028C000FEF7DCFB41F28833A0EB09009842EAD91D
:1028D0000CE6052B6B6B03D143F480636B639DE7C0
:1028E00023F480736B636B6B23F4806399E7FEF7CB
:1028F000C5FB41F28833A0EB090098429AD9F5E56F
:10290000444DAB6803F00C030C2B3FF4C8AD022A16
:102910004FF0807356D193FAA3F3B3FA83F30022F6
:1029200003F1845303F58E139B001A60FEF7A6FB98
:102930002E4680464FF00077012597FAA7F33268BC
:1029400097FAA7F3B3FA83F303F01F0305FA03F32F
:10295000134230D1B268A36AE16A22F47D020B43CC
:102960001343226B1343B3604FF0807393FAA3F3C6
:10297000B3FA83F303F1845303F58E139B001D60B8
:10298000FEF77CFB4FF0007407460125214E94FAB8
:10299000A4F3326894FAA4F3B3FA83F303F01F03A9
:1029A00005FA03F313427FF454ADFEF767FBC01B37
:1029B0000228ECD99AE5FEF761FBA0EB080002289B
:1029C000BBD993E593FAA3F3B3FA83F3002203F19F
:1029D000845303F58E139B001A60FEF74FFB4FF0F4
:1029E00000740746012694FAA4F32A6894FAA4F323
:1029F000B3FA83F303F01F0306FA03F313423FF421
:102A000028ADFEF73BFBC01B0228ECD96EE500BFEA
:102A1000A0C1911000380240007000401E4910B55E
:102A20008B6803F00C02082A05D00C2A05D0042A72
:102A300022D11A4810BD1A4810BD4FF4701292FAF4
:102A4000A2F2B2FA82F203F4701020FA02F21548F0
:102A5000845C4FF4400090FAA0F0B0FA80F203F4E6
:102A600040008B68D040DB034CBF0D4B0B4B01305B
:102A70006343B3FBF0F010BD48684FF4604393FA32
:102A8000A3F3B3FA83F300F46040D840431C4FF43F
:102A90000040984010BD00BF003802400024F40000
:102AA00000127A00285C00086A4B2DE9F0411A6890
:102AB000064602F001028A420D4630D3326894077E
:102AC00040D4D00746D4634B1A6802F00102954205
:102AD000C0F0AE803268510700F1B380130707D50C
:102AE0005D4A3169936823F4605343EAC1039360FC
:102AF000FFF794FF584BF0229B6892FAA2F2B2FAC9
:102B000082F203F0F003D340544AD35CD840544BD4
:102B100018600020FEF78AFA0020BDE8F081012944
:102B200002BF1A6842F004021A601A6822F0010219
:102B30000A431A601B6803F001039942BED00120CA
:102B4000BDE8F0814449B0688B6823F0F00303438B
:102B50008B60B6E772684049022A0FD14FF4003308
:102B600093FAA3F0086893FAA3F3B3FA83F301216D
:102B700003F01F0301FA03F3034213E0032A02D117
:102B80004FF00073ECE7012A29D1022393FAA3F056
:102B9000096893FAA3F3B3FA83F303F01F0302FA6D
:102BA00003F30B42CBD02C4C41F28838A36823F0BE
:102BB00003031A43A260FEF761FA73680746022B0B
:102BC00010D1A36803F00C03082B3FF47CAFFEF791
:102BD00055FAC01B4045F4D90320BDE8F0814FF4FD
:102BE0000073BDE7032B0BD1A36803F00C030C2B80
:102BF0003FF469AFFEF742FAC01B4045F4D9EBE75A
:102C0000012B10D1A36803F00C03042B3FF45BAF3E
:102C1000FEF734FAC01B4045F4D9DDE7FEF72EFA83
:102C2000C01B4045D8D8A36813F00C0FF6D14AE773
:102C30001A6822F001021A601B68DA073FF57FAFBD
:102C400048E70549F0688B6823F4E06303438B6031
:102C500044E700BF003C024000380240105C00081E
:102C600010000020084B4FF4E0629B6892FAA2F239
:102C7000B2FA82F203F4E063D340044AD35C044A1C
:102C80001068D840704700BF00380240205C000840
:102C900010000020084B4FF460529B6892FAA2F299
:102CA000B2FA82F203F46053D340044AD35C044A7C
:102CB0001068D840704700BF00380240205C000810
:102CC0001000002003682DE9F7430446980701D15E
:102CD000002055E04F4B5A6AD1003FD401255A6A73
:102CE00042F080525A625B6A03F080530193019B69
:102CF000494E3368DA0533D5464B6268196802F0ED
:102D0000C04001F0C041814204D1A06800F0C04041
:102D1000814207D002F44031B1F5403F02D1196839
:102D2000880375D45B6B13F440332CD16068394B46
:102D300000F44031B1F5403F06D11A6800F0C040C0
:102D400022F0C04202431A605A6B11435963002DAE
:102D5000BED05A6A22F080525A62B9E70025C7E70E
:102D6000336843F480733360FEF788F907463368AD
:102D7000DB05C1D4FEF782F9C01B6428F7D9032014
:102D800003B0BDE8F08302F44032934202D02268DF
:102D9000D10707D4A26802F440329342C6D0236818
:102DA0009A07C3D51B4E4FF40003716B21F44030DA
:102DB00093FAA3F2B2FA82F20127DFF860E07244DC
:102DC0009200176093FAA3F3B3FA83F300227344DB
:102DD0009B001A60CB057063A8D5FEF74FF94FF43E
:102DE0000078814698FAA8F3726B98FAA8F3B3FAC0
:102DF00083F303F01F0307FA03F3134296D1FEF7A0
:102E00003DF941F28833A0EB09009842EAD9B6E7D0
:102E10000120B5E70038024000700040A0C19110C9
:102E200038B503680446DA68520601D5002038BD7B
:102E30004FF0FF32DA60FEF721F905462368DB68C0
:102E40005B06F3D4FEF71AF9401BB0F57A7FF5D98B
:102E5000032038BD38B50446B0B1437F03F0FF020C
:102E600013B9027702F07AF80223CA226377236843
:102E700020465A6253225A62FFF7D2FF236828B1D4
:102E8000FF225A6204236377012038BD9A682569BE
:102E900022F4E00222F040029A60626899682A43B4
:102EA00065692A430A439A60E268A1681A611A694F
:102EB00042EA01421A61DA68A16922F08002DA600E
:102EC0001A6C22F480221A641A6C0A431A64FF22D4
:102ED0005A620123637738BD0023092803D840EAEA
:102EE0000310C0B270470A380133C0B2F5E7F8B535
:102EF000037F0646012B0F464FF002005ED00123F0
:102F000033773368707708784D788C789B683ABB54
:102F100013F0400308BFCB70FFF7DEFF01462846E1
:102F2000FFF7DAFF02462046FFF7D6FFFB7840EABC
:102F3000034040EA014040EA0224CA223368304696
:102F40005A6253225A62FFF76BFF33680546A0B1FD
:102F5000FF225A6204237377002333770120F8BDE0
:102F600013F040034FEA052508BFCB7045EA004047
:102F70002043CC7840EA0444DFE704F07F3424F0B7
:102F8000FE441C609A68386922F480229A60FA68CC
:102F9000996802430A439A60DA68304622F0800258
:102FA000DA6000F0B7F8FF2233685A6218B10423E0
:102FB00035777377D2E7012330777377F8BDF8B5AB
:102FC000037F0546012B4FF0020050D001236877A4
:102FD0002B774B78C8788E780C78002A40D1DA06A7
:102FE00003D523F010030A334B70FFF775FF074634
:102FF0004878FFF771FF02463046FFF76DFF40EA61
:10300000443040EA074040EA0224CA222B6828469E
:103010005A6253225A62FFF703FF2B68064638B103
:10302000FF225A6204236B7700232B770120F8BD1F
:1030300024F07F4424F0C0045C60DA68284622F063
:103040008002DA6000F066F8FF222B685A6218B13D
:1030500004232E776B77E9E7012328776B77F8BD98
:103060001B0243EA0040304340EA4434CDE7F8BD58
:103070000A22030900F00F0002FB0300C0B27047F0
:1030800038B503685C6824F07F4323F0C003180C54
:10309000C3F3042504F03F04C3F34233C8704D70FA
:1030A0008C700B7052B9FFF7E3FFC8702846FFF72A
:1030B000DFFF48702046FFF7DBFF8870002038BD37
:1030C00038B50C460368996A89B2616019691D6850
:1030D000C1F30E0105F07F3323F0FE43A160190C0C
:1030E00001F03F00C3F3062305F07F0501F0400126
:1030F00020706370A570E17052B9FFF7B9FF2070BE
:103100006078FFF7B5FF6070A078FFF7B1FFA0709F
:10311000002038BD38B5036804469A68920601D588
:10312000002038BDDA6822F0A002DA60FDF7A6FFC1
:1031300005462368DB689B06F2D4FDF79FFF401B22
:10314000B0F57A7FF5D9032038BD00002DE9F047AE
:1031500081460568C2682B69C16923F44053134353
:103160002B6183680069EA680343D9F8140022F4EC
:103170001642034322F00C020B431343EB606B69CE
:10318000D9F8182023F440731343B1F5004F6B6155
:103190007E4B7FD19D424FF0190447D1FFF77AFD56
:1031A00004FB00F3D9F804704FF064087F00B3FB10
:1031B000F7F3B3FBF8F31F01FFF76CFD6043D9F899
:1031C00004305B00B0FBF3F6FFF764FD6043D9F811
:1031D00004305B00B0FBF3F3B3FBF8F308FB1363BD
:1031E000DB003233B3FBF8F35B0003F4F876FFF750
:1031F00051FD6043D9F804205200B0FBF2FAFFF70A
:1032000049FD6043D9F804305B00B0FBF3F3B3FB36
:10321000F8F308FB13A3DB003233B3FBF8F303F03E
:1032200007033B443344AB60BDE8F087FFF71AFD6A
:1032300004FB00F3D9F804704FF064087F00B3FB7F
:10324000F7F3B3FBF8F31F01FFF70CFD6043D9F868
:1032500004305B00B0FBF3F6FFF704FD6043D9F8E0
:1032600004305B00B0FBF3F3B3FBF8F308FB13632C
:10327000DB003233B3FBF8F35B0003F4F876FFF7BF
:10328000F1FC6043D9F804205200B0FBF2FAFFF7DA
:10329000E9FCB6E79D424FF0190443D1FFF7FAFC71
:1032A00004FB00F3D9F804604FF06408B600B3FBE8
:1032B000F6F3B3FBF8F31E01FFF7ECFC6043D9F81B
:1032C00004309B00B0FBF3F7FFF7E4FC6043D9F850
:1032D00004309B00B0FBF3F3B3FBF8F308FB13736C
:1032E0001B013233B3FBF8F303F0F007FFF7D2FC16
:1032F0006043D9F804209200B0FBF2FAFFF7CAFC51
:103300006043D9F804309B00B0FBF3F3B3FBF8F350
:1033100008FB13A31B013233B3FBF8F303F00F03D5
:103320003B437FE7FFF79EFC04FB00F3D9F8046002
:103330004FF06408B600B3FBF6F3B3FBF8F31E01DD
:10334000FFF790FC6043D9F804309B00B0FBF3F723
:10335000FFF788FC6043D9F804309B00B0FBF3F31F
:10336000B3FBF8F308FB13731B013233B3FBF8F321
:1033700003F0F007FFF776FC6043D9F804209200D1
:10338000B0FBF2FAFFF76EFCBAE700BF003801406D
:10339000F8B504460E461546FDF770FE074622684E
:1033A000136836EA030301D10020F8BD6B1CF7D087
:1033B000C5B923680320DA6822F08002DA60DA688F
:1033C00022F02002DA60DA6822F48072DA605A6948
:1033D00022F001025A61012384F83930002384F875
:1033E0003830F8BDFDF74AFEC01B8542D7D2E0E772
:1033F00010B5044630B390F8393003F0FF021BB922
:1034000080F8382001F092FE0223226884F83930D7
:10341000D368204623F40053D360FFF797FE236858
:1034200000201A6922F490421A615A6922F02A0295
:103430005A61DA6842F40052DA600123E06384F8EA
:10344000393010BD012010BD70B50D4690F839100F
:103450000446C9B201291E4601D022294DD1002DB2
:1034600049D0002A47D094F83830012B45D00123A9
:1034700084F838300023E36394F83930A284222B97
:103480000CBF32231223E28484F83930E28C8AB9EB
:10349000324640212046FFF77BFFC0B994F839300F
:1034A000322B0CBF2223012384F83930002384F807
:1034B000383070BDA368013AB3F5805FE2844FF005
:1034C0008001324620460DD1FFF762FF08B103208C
:1034D00070BD2B882268C3F308035360236943B986
:1034E0000235D3E7FFF754FF0028F0D123682A788C
:1034F0005A600135CAE7012070BD022070BD90F806
:103500003930DBB2012B01D0122B28D129B322B3E1
:1035100090F83830012B22D0012380F83830002376
:10352000C3638285C28590F8392080F83830122A2A
:103530000CBF32222222036880F83920DA688162C7
:1035400042F48072DA605A69002042F001025A6146
:10355000DA6842F02002DA607047012070470220EA
:10356000704770477047026813B511680446C90771
:10357000D36805D5DB0542BFC36B43F00103C363CA
:1035800011685369880703F0010304D51BB1E16B8F
:1035900041F00401E1631168490704D51BB1E16BF7
:1035A00041F00201E1631168080704D51BB1E36B28
:1035B00043F00803E3631168D368890633D598069E
:1035C00031D594F8393003F0EF03222B2BD1A368C7
:1035D0002169B3F5805FA36A76D1526800296FD163
:1035E000C2F3080223F8022BA362E38D013B9BB2D6
:1035F000E385C3B923682046DA6822F02002DA6046
:1036000094F83920322A17BFDA68122322F4807224
:10361000DA601FBF5A6922F001025A61012384F85F
:10362000393001F0FFFB23681968DA68090622D5F2
:10363000100620D594F8392002F0DF02122A1AD1A0
:10364000A268B2F5805F226A4CD11188C1F30801EB
:1036500059602169002943D102322262E28C013A89
:1036600092B2E2843AB9DA6822F08002DA60DA686B
:1036700042F04002DA601968DA68490610D552064D
:103680000ED5DA68204622F04002DA6094F839302C
:10369000322B0CBF2223012384F83930FFF761FF5E
:1036A000E36B5BB1236820461A6801925B68019363
:1036B000019B012384F83930FFF754FF02B010BD9D
:1036C000D2B223F8012B8FE721B9591C5268A162AD
:1036D0001A708AE75268591CA16202F07F02F7E76C
:1036E0000132BAE7511C216212785A60B6E7000035
:1036F00030B500241C481D4B012580E818004FF40C
:10370000807303614FF4806343610223836210235B
:1037100085B00194029403948460C4608461C461A0
:1037200004624562C46243638463C563FDF7BAFC07
:1037300008B101F0CBFB062301A90B4801940295C7
:103740000393FDF7B3FD08B101F0C0FB0123019322
:10375000022301A904480293FDF7A8FD08B101F076
:10376000B5FB05B030BD00BFEC00002000240140D7
:1037700030B5054689B01422002103A801F0AAFD46
:103780002A681D4B9A4234D103F58A331A6A1B48C2
:1037900042F400721A621A6A03A902F400720192DA
:1037A000019ADA69164C42F00102DA61DB6903F032
:1037B00001030293029B032303930493FEF756F83D
:1037C0008022104BE26023604FF48072002322615C
:1037D0006360A3604FF48062A3614FF4805320467E
:1037E0006261E361FDF75EFF08B101F06FFB6C649D
:1037F000656209B030BD00BF0024014000000240F6
:10380000A8000020086002401FB50E4B03AA1870E4
:10381000430943F040038DF80C300A2300F01F00E9
:1038200040F060008DF80D00074800934621022308
:103830000068FEF76DFA003018BF012005B05DF892
:1038400004FB00BF48010020440100201FB50723EE
:1038500004AA02F8013D0A230648009346210123E9
:103860000068FEF755FA003018BF012005B05DF87A
:1038700004FB00BF4401002008B5074B1860FFF7A8
:10388000E5FF30B94520FFF7BFFF003018BF01202A
:1038900008BD012008BD00BF440100201FB5003055
:1038A00018BF01200A2304AA02F8010D064800935C
:1038B000462101230068FEF72BFA003018BF0120D3
:1038C00005B05DF804FB00BF440100201FB50309EB
:1038D0008DF80F0015D000F00F03032B11D80A4B01
:1038E0000DF10F0218700A230848009346210123A6
:1038F0000068FEF70DFA003018BF012005B05DF832
:1039000004FB0120FAE700BF400100204401002031
:103910000A2330B5054685B01A48009303AA02234E
:1039200046210068FEF7CAFA48BBBDF80C0040BA51
:1039300080B2FDF7B1F9144B0446187845280AD037
:10394000FDF7A6F901461148FDF7AEFA01462046FB
:10395000FDF7F6F904460E4B1B78212B01D0112BF5
:1039600005D120464FF07C51FDF7EAF9044609499C
:103970002046FDF799FA2860002005B030BD0120EF
:10398000FBE700BF440100204801002000008A42FC
:10399000400100209A99993F0A4B07B5DA690B203C
:1039A00042F08072DA610022DB69114603F0807315
:1039B0000193019BFDF720FE0B20FDF751FE03B0A4
:1039C0005DF804FB00380240137830B513F00104B1
:1039D00013681DD01488C4F3470431F81450C5EBA4
:1039E0005325C5F31605054465F35F23136021F8DD
:1039F0001400138803F4FF71B1F5FF7F16BF013483
:103A00006FF3480364F3480313801068400C30BD23
:103A100000EB532565F35F231360C3F3470321F8DD
:103A20001300118801F4FF70B0F5FF7F05BF64F348
:103A3000480111800133C9B20BBF41F0010163F3AA
:103A4000480111701180E0E714222DE9F0478AB097
:103A50000DEB0200002101F03DFC534B534FDA699E
:103A6000534E42F00402DA61DA69DFF8488102F06D
:103A700004020092009ADA69384642F02002DA61C4
:103A8000DA694FF47C7102F020020192019ADA693E
:103A9000DFF824A142F00102DA61DA69002402F0C1
:103AA00001020292029ADA694FF0F00942F0020232
:103AB000DA61DA69012502F002020392039ADA69F7
:103AC00042F00802DA61DB69002203F00803049384
:103AD000049BFDF78DFF304600224FF20741FDF7B2
:103AE00087FF404600224FF41F41FDF781FF00226F
:103AF00050460421FDF77CFF4FF400530593032348
:103B000005A9384606930794FDF7B0FE41F60F036A
:103B100005A93846059306940794FDF7A7FE05A965
:103B20004046CDF8149006940794FDF79FFE4FF49D
:103B30007C7305A938460593069507940894FDF70C
:103B400095FE4FF2030305A93046059306950794A9
:103B50000894FDF78BFE40F204430593022305A968
:103B60003046079306950894FDF780FE4FF41F43F7
:103B700005A940460593069507940894FDF776FE3F
:103B8000042305A950460593069507940894FDF76C
:103B90006DFE05A93046CDF8149006940794FDF704
:103BA00065FE0AB0BDE8F087003802400008024018
:103BB0000004024000000240000C024008B50C481E
:103BC0000C4BDFF834E04FF4804280E808400023DB
:103BD00002618360C36043618361C3610362FEF776
:103BE00009F818B1BDE8084001F070B908BD00BF80
:103BF0004C01002000540040801A060010B5044615
:103C000088B01422002103A801F064FB2268134B42
:103C10009A4221D1124C03A9E369124843F00203EE
:103C2000E361E36903F002030193019B4FF44073E6
:103C30000393122304930123059303230693042380
:103C40000793FDF713FE636A43F400136362636A2C
:103C500003F400130293029B08B010BD005400400F
:103C6000003802400004024010B5154C86B001A98E
:103C700000222046FFF724FA9DF80420114B6946E4
:103C80001A709DF80520104B20461A709DF80620EA
:103C90000E4B1A700022FFF7F3F99DF800200C4B31
:103CA0001A709DF803200B4B1A709DF801200A4BE7
:103CB0001A709DF80220094B1A7006B010BD00BFA3
:103CC00000070020C9060020D5030020F5060020CB
:103CD000DE060020B5030020B7030020AC01002061
:103CE000F0B507460E46154687B01422002101A8FC
:103CF0001C4601F0EFFA9DF8383000226946114861
:103D00008DF800308DF803708DF801608DF8025049
:103D1000FFF755F9024690B99DF8303001A98DF8AA
:103D200005309DF8343007488DF804408DF8063092
:103D3000FFF7DDF8003018BF012007B0F0BD01200B
:103D4000FBE700BF00070020044B1A7802B10122F4
:103D50004FF480510248FDF74BBE00BFCE06002055
:103D600000000240044B1A7802B101224FF40061B6
:103D70000248FDF73DBE00BFB8030020000002402E
:103D8000044B1A7802B101224FF480710248FDF70A
:103D90002FBE00BFD40300200000024070B50F4DBD
:103DA0000F4C2846FDF7EAFB20880E4B0E4E18807C
:103DB00063880E4A0E493380FFF706FE0D4B0E4A0C
:103DC00018800E493088FFF7FFFD0D4B2146188003
:103DD00002222846BDE87040FDF74EBBEC000020F3
:103DE000D6030020DC060020D0030020EC060020D3
:103DF000B4010020BE030020B0010020C004002058
:103E0000F20600202DE9F8432F4C002001F03CF988
:103E10002E4D2046FFF77CFD012001F035F9DFF83B
:103E2000CC802846FFF774FD032001F02DF9284EC1
:103E30004046FFF76DFD042001F026F93046FFF7FC
:103E400067FD24682F6820463946FCF771FE4FF065
:103E50007C51FCF775FFFDF7C3F81E4BD8F80090B6
:103E6000D6F8008005B21D8041464846FCF760FE4A
:103E70004FF07C51FCF764FFFDF7B2F8164B06B229
:103E80001E8049462046FCF753FE4FF07C51FCF75C
:103E900057FFFDF7A5F8114B04B21C804146384688
:103EA000FCF746FE4FF07C51FCF74AFFFDF798F80F
:103EB0000B4B00B218800B4BAD1B1D800A4B241A14
:103EC0001C80BDE8F88300BFC0030020A4010020CF
:103ED000D00600204E040020BC030020C4030020B4
:103EE000BA030020AA010020D4060020D806002032
:103EF00038B51D4B1888FCF79DFA15A3D3E90023AC
:103F0000FCF7FEFA14A3D3E90023FCF723FC0446D4
:103F10000D46164BC3E9004511A3D3E90023FCF776
:103F20007FFDA0B10EA3D3E9002320462946FCF76C
:103F300033F90F4B0022C3E900010E4BFCF7E0FA06
:103F40000B460246FCF72AF90B4BC3E9000138BDCA
:103F5000B9900BB990534A3F57AE39D505C5E03FEC
:103F6000000000A099990D40BE030020C00600206B
:103F7000C803002000005940E003002000000000BA
:103F800038B51D4B1888FCF755FA15A3D3E9002363
:103F9000FCF7B6FA14A3D3E90023FCF7DBFB0446D5
:103FA0000D46164BC3E9004511A3D3E90023FCF7E6
:103FB00037FDA0B10EA3D3E9002320462946FCF724
:103FC000EBF80F4B0022C3E900010E4BFCF798FA07
:103FD0000B460246FCF7E2F80B4BC3E9000138BD83
:103FE000B9900BB990534A3F24FCE442D4CDE03F52
:103FF000000000A099990D40F2060020B8040020AE
:10400000F806002000005940E0060020F0B597B007
:1040100001AA1546204B03F110061446186859688A
:10402000083303C4B3422246F7D119889B78218014
:10403000A3702846FCF7A4F8294682B24FF0FF335C
:104040001648FFF701FA0024154D164E134F610074
:1040500089B20A2301222846FEF7A8F878B9234638
:104060003246402106A801F0F7F906A8FCF788F8C7
:104070004FF0FF3382B206A93846FFF7E5F9013465
:10408000802CE4D14FF0FF33022207490348FFF7A9
:10409000DBF917B0F0BD00BFD05B00086807002057
:1040A0004C010020C85B0008E05B0008134B197846
:1040B00059B9134A1278022A16D1124B1970704757
:1040C0000221104A117001221A701978022914D1A4
:1040D0000B4A1278022A0CD101220A4B1A7070473F
:1040E000084A11700322F9E7012AE6D0002AE7D036
:1040F0007047002AF0D0012AF2D07047000000205B
:104100000100002006000020134B197859B9134A0A
:104110001278022A16D1124B197070470221104AE8
:10412000117001221A701978022914D10B4A1278E1
:10413000022A0CD101220A4B1A707047084A1170EA
:104140000322F9E7012AE6D0002AE7D07047002AC7
:10415000F0D0012AF2D070470200002003000020B6
:1041600007000020134B1A7862B9134A1278022A0A
:1041700015D10122114B1A70704702210F4A11709C
:1041800001221A701978022912D10B4A1278022AD8
:104190000AD10022EEE7094A11700322EBE7012A57
:1041A000E8D0002AE9D07047002AE3D0012AF2D0F3
:1041B000704700BF04000020050000200B00002015
:1041C000054B1A78054B2AB1054A127812B1012223
:1041D0001A7070470022FBE7F0060020B4040020AC
:1041E000CB060020294A30B51378032B4DD1284B3C
:1041F000B3F9000083B203F1090189B2122905D88D
:10420000022424490C70012423490C700A339BB208
:10421000142B0BD90021204B884219701D4B30DD27
:1042200019701E49097809B1022119701C4B1D48EB
:10423000B3F90050ABB203F1090189B2122906D8D3
:104240000221194C2170194C2170012101700A338F
:104250009BB2142B0DD90024A54204701249134BB4
:1042600011DD0C701C70124C247814B102240C70F7
:104270001C7003784BB1084B1B7833B104231370C7
:1042800030BD0121CCE70124EBE730BD0C0000205C
:10429000D406002008000020CA060020CB0600201B
:1042A000AA010020B4030020090000200A00002019
:1042B000F00600200F490A78DAB90F4B1878012868
:1042C00018BF1A701B78012B13D10C4A1378012BDD
:1042D0001CBF002313700A4B1278187801281CBFEA
:1042E00000201870012A04D11B78012B04BF03237E
:1042F0000B7070470C00002004000020000000201C
:104300000200002010B5194C2278012A2DD1184A3C
:104310001378032B1CBF02231370164B12781978E5
:1043200003291CBF02211970032A1ED11B78032BFD
:104330001BD1114B11491B78114A53B901230B7042
:10434000137010BD08701378032B0ED10623237051
:1043500010BD022313700B4A0B7010780A490B4AE8
:104360000028EFD00B701370EDE710BD0C0000209B
:104370000000002002000020F006002009000020BC
:104380000A000020CB0600200800002004000020C6
:1043900038B5134C2378022B04D100220421114894
:1043A000FDF726FB257855B9012204210D48FDF7BC
:1043B0001FFB2A464FF480610A48FDF719FB247859
:1043C000012C0CD1224604210648FDF711FB2246A0
:1043D000BDE838404FF480610248FDF709BB38BDA5
:1043E000060000200004024038B5124C2378022B4E
:1043F00004D1002201211048FDF7FAFA25784DB9C1
:1044000001220D481146FDF7F3FA2A4602210A4817
:10441000FDF7EEFA2478012C0BD1224621460648FE
:10442000FDF7E6FA2246BDE8384002210248FDF7D2
:10443000DFBA38BD070000200004024038B5144C34
:104440002378022B05D100224FF480711148FDF72B
:10445000CFFA257855B901224FF480710D48FDF748
:10446000C7FA2A4680210B48FDF7C2FA2478012CAE
:104470000CD122464FF480710648FDF7B9FA224666
:10448000BDE8384080210348FDF7B2BA38BD00BF0F
:10449000080000200008024038B5134C2378022B96
:1044A00004D1002240211148FDF7A2FA257855B920
:1044B000012240210D48FDF79BFA2A464FF4805116
:1044C0000B48FDF795FA2478012C0CD122464021A7
:1044D0000648FDF78DFA2246BDE838404FF480517A
:1044E0000348FDF785BA38BD0900002000080240E6
:1044F0000004024038B5154C2378022B05D1002268
:104500004FF480411248FDF773FA25785DB9012216
:104510004FF480410E48FDF76BFA2A464FF40051E4
:104520000B48FDF765FA2478012C0DD122464FF493
:1045300080410748FDF75CFA2246BDE838404FF459
:1045400000510348FDF754BA38BD00BF0A000020EF
:104550000004024038B5134C2378022B04D100220A
:1045600004211148FDF744FA257855B901220421A8
:104570000D48FDF73DFA2A464FF400410B48FDF780
:1045800037FA2478012C0CD1224604210648FDF785
:104590002FFA2246BDE838404FF400410348FDF7AA
:1045A00027BA38BD0B000020000C0240000002407A
:1045B000084B1A78084B2AB91A78084B42B90222DC
:1045C0001A7070471B78002BFBD1044A1370704798
:1045D0000122F5E7B6030020E806002001000020D4
:1045E000084B1A78084B2AB91A78084B42B90222AC
:1045F0001A7070471B78002BFBD1044A1370704768
:104600000122F5E7F4060020A801002003000020A5
:10461000084B1A78084B2AB91A78084B42B902227B
:104620001A7070471B78002BFBD1044A1370704737
:104630000122F5E7C8060020D20300200500002073
:1046400008B510210648FDF7CDF910B9054B1870D3
:1046500005E010210248FDF7C5F90128F6D008BD94
:1046600000000240B603002008B520210648FDF7EF
:10467000B9F910B9054B187005E020210248FDF783
:10468000B1F90128F6D008BD00000240E80600207C
:1046900008B540210648FDF7A5F910B9054B18707B
:1046A00005E040210248FDF79DF90128F6D008BD3C
:1046B00000000240F406002008B580210648FDF7FE
:1046C00091F910B9054B187005E080210248FDF7FB
:1046D00089F90128F6D008BD00000240A801002099
:1046E00008B520210648FDF77DF910B9054B187073
:1046F00005E020210248FDF775F90128F6D008BD34
:1047000000080240C806002008B510210648FDF741
:1047100069F910B9054B187005E010210248FDF742
:1047200061F90128F6D008BD00080240D20300203C
:1047300008B54FF400710748FDF754F910B9064B5E
:10474000187006E04FF400710248FDF74BF901289C
:10475000F5D008BD00000240F006002008B54FF477
:1047600080610748FDF73EF910B9064B187006E066
:104770004FF480610248FDF735F90128F5D008BDF6
:1047800000000240CB0600202DE9F047C94ACA4B81
:104790001278B8B01B780292C84A4021127818A843
:1047A0000192C74AC74C1278C74D0092C74A00F021
:1047B00053FE18A8FBF7E4FC18A982B24FF0FF33B0
:1047C0002046FEF741FE4FF0FF330122C04920464C
:1047D000FEF73AFEBF4AC04B12781B780192BF4ADF
:1047E0004021127828A80092BD4A00F035FE28A882
:1047F000FBF7C6FC28A982B24FF0FF332046FEF734
:1048000023FE012229464FF0FF332046FEF71CFE0F
:10481000B44BD3E9006739463046FCF70BF98046C4
:10482000FBF708FE02460B4630463946FBF7B4FC60
:10483000FCF728F9AC49FCF783FAFCF7D1FBAB4F46
:1048400003464246394604A800F03AFE04A8FBF7A6
:1048500097FC04A982B24FF0FF332046FEF7F4FD27
:10486000012229464FF0FF332046FEF7EDFDA04B15
:10487000A04ED3E9008949464046FCF7DBF8824662
:10488000FBF7D8FD02460B4640464946FBF784FC41
:10489000FCF7F8F89449FCF753FAFCF7A1FB5246F1
:1048A0000346314606A800F00BFE06A8FBF768FC9D
:1048B00006A982B24FF0FF332046FEF7C5FD012264
:1048C00029464FF0FF332046FEF7BEFD8A4BD3E961
:1048D000008949464046FCF7ADF88246FBF7AAFD41
:1048E00002460B4640464946FBF756FCFCF7CAF821
:1048F0007D49FCF725FAFCF773FB5246034639461F
:1049000008A800F0DDFD08A8FBF73AFC08A982B270
:104910004FF0FF332046FEF797FD012229464FF066
:10492000FF332046FEF790FD744BD3E900894946DA
:104930004046FCF77FF80746FBF77CFD02460B4636
:1049400040464946FBF728FCFCF79CF86649FCF713
:10495000F7F9FCF745FB3A46034631460AA800F052
:10496000AFFD0AA8FBF70CFC0AA982B24FF0FF3397
:104970002046FEF769FD294602224FF0FF3320460C
:10498000FEF762FD5E4B5F4E1868FCF729FB31466F
:1049900002B20CA800F094FD5B4B1868FCF720FBFA
:1049A000314602B20EA800F08BFD584B1868FCF798
:1049B00017FB314602B210A800F082FD544B186874
:1049C000FCF70EFB314602B212A800F079FD0CA8EC
:1049D000FBF7D6FB0CA982B24FF0FF332046FEF75F
:1049E00033FD29464FF0FF3301222046FEF72CFD10
:1049F0000EA8FBF7C5FB0EA982B24FF0FF3320468D
:104A0000FEF722FD29464FF0FF3301222046FEF734
:104A10001BFD10A8FBF7B4FB10A982B24FF0FF33C7
:104A20002046FEF711FD29464FF0FF3301222046B4
:104A3000FEF70AFD12A8FBF7A3FB12A982B24FF002
:104A4000FF332046FEF700FD29464FF0FF330322D7
:104A50002046FEF7F9FC2F4B3146B3F9002014A88D
:104A600000F02EFD2C4B3146B3F9002016A800F0C3
:104A700027FD14A8FBF784FB14A982B24FF0FF3383
:104A80002046FEF7E1FC29464FF0FF330122204685
:104A9000FEF7DAFC16A8FBF773FB16A982B24FF0FB
:104AA000FF332046FEF7D0FC29464FF0FF330122AA
:104AB00034E000BFDE060020AC010020B50300207A
:104AC000B703002068070020FA5B0008E35B0008DA
:104AD000EF5B0008F5060020C9060020D503002082
:104AE000F15B0008C00600200000C842FC5B000823
:104AF000E0030020065C0008B8040020E006002067
:104B0000C0030020EC5B0008A4010020D8060020B0
:104B1000D0060020AA010020D40600202046FEF77F
:104B200093FC4FF0FF33022203492046FEF78CFC32
:104B300038B0BDE8F08700BFE05B000808B5402151
:104B40003148FCF74FFF18B9304B1870304B1870D4
:104B500080212D48FCF746FF20B902232B4A137011
:104B60002B4A137020212848FCF73CFF08B9294B39
:104B7000187010212448FCF735FF10B90122254B8D
:104B80001A7004212448FCF72DFF18B9234B187024
:104B9000234B187008212048FCF724FF20B901237B
:104BA0001E4A13701E4A137008211B48FCF71AFF97
:104BB00001280AD104211848FCF714FF012804D168
:104BC0000223174A1370154A137001211248FCF78B
:104BD00009FF10B90122134B1A7002210E48FCF78D
:104BE00001FF08B90F4B187001210B48FCF7FAFEC2
:104BF000012808D102210848FCF7F4FE012802BF71
:104C00000222084B1A7008BD000402400000002078
:104C1000020000200C0000200008024009000020D3
:104C20000A0000200800002030B5002497B034228C
:104C3000002109A800F04EFB0021142204A800F076
:104C400049FB184A0194029403941368012523F444
:104C5000C05343F4006313600A23099310230D9398
:104C6000022312934FF4002314934FF4000309A876
:104C700015930C950E951394FDF77CFB0F2304936D
:104C80000323294604A80593069407940894FDF786
:104C90000BFF4FF4003301A801950293FEF712F8C1
:104CA00017B030BD0070004000251FB50124554BE2
:104CB00003261D60544B1D60FCF7CCF9FFF7B4FFD1
:104CC000FEF7C2FEFEF768FEFEF712FDFEF776FF66
:104CD00000F0F4F900F0FCF800F00CFA4B4B1C70FB
:104CE0004B4B1C704B4B1C70FFF72EF8FFF73AF83C
:104CF000FFF746F84FF4FA60FCF7C6F907231A22CB
:104D0000062100930296122301951320FEF7E8FF77
:104D1000FFF77CF9404800F0B1F9284600F0B4F9FB
:104D20003D48FEF7A9FD2046FEF7B8FD1120FEF72D
:104D3000CDFD204600F0A8F92046FEF7AFFD11207A
:104D4000FEF7C4FD304600F09FF92046FEF7A6FDB1
:104D50001120FEF7BBFD042000F096F92046FEF777
:104D60009DFD1120FEF7B2FD4FF4FA60FCF78CF9BF
:104D700002222A492A48FCF77FFBFEF775FFFEF75F
:104D8000E3FFFEF7EFFFFEF7FBFFFFF707F8FFF784
:104D9000AFF8FFF7F5F8FFF735F8FFF7CFFEFFF7AD
:104DA0004FFCFFF761FCFFF773FCFFF785FCFFF793
:104DB00097FCFFF7A9FCFFF7BBFCFFF7CFFCFFF761
:104DC000F7FBFFF70DFCFFF723FCFFF76FF9FFF789
:104DD0009BF9FFF7C7F9FFF76DFAFFF793FAFFF7B3
:104DE000EFF9FFF7FFF9FFF7D3FAFFF7FDFAFFF747
:104DF00025FBFFF751FBFFF77DFBFFF7ABFBFFF751
:104E0000C3FCBAE7EC060020B0010020CE0600206B
:104E1000B8030020D40300204C010020D60300205A
:104E2000EC0000200268204B10B59A423AD11F4A8C
:104E30001F4913788BBB1846C8540133642BFBD130
:104E400010781C4C431C2478DBB20C5419441370AA
:104E500011F8043C184C4F2B09D111F8033C4B2B93
:104E600005D10123154923700B700021117023789F
:104E700063B10F49124800F047FB4FF47A73642284
:104E80000F491048FEF7E0FA002323700122BDE825
:104E9000104008490C48FEF732BB642B84BF002346
:104EA0001370CDE710BD00BF004800409400002003
:104EB000E8030020CC060020A0010020D606002038
:104EC00050040020680700202807002070470000D9
:104ED0007FB51422002101A800F0FCF900231D4831
:104EE0001D4A009380E80C007F228260FF2203614C
:104EF000C26043618361FDF7ADFF08B1FFF7E6FFD4
:104F000016238DF8043056238DF805300023012236
:104F100001A910488DF8063004930593FDF7E7FFCB
:104F200008B1FFF7D3FF03238DF8003006238DF877
:104F3000013026238DF802301923012269460548E5
:104F40008DF80330FEF73BF808B1FFF7BFFF07B05D
:104F50005DF804FB00070020002800400268074BB2
:104F60009A420AD14FF4800292FAA2F2B2FA82F285
:104F7000034B134401229B001A6070470028004035
:104F8000A0C191100F4B84B05A6A42F000425A629D
:104F90005A6A02F000420192019A1A6A42F0010232
:104FA0001A621A6A02F001020292029A5A6A42F0E6
:104FB00080525A625B6A03F080530393039B04B0F0
:104FC000704700BF003802407047FEE7FEE7FEE78B
:104FD000FEE7704770477047FCF748B80148FCF798
:104FE000FDBB00BFA80000200148FEF7BCBA00BF0F
:104FF000680700200148FEF7B6BA00BF2807002066
:1050000008B50A4B0246196809B909491960694689
:10501000186802448A4206D900F032F90C23036072
:105020004FF0FF3008BD1A6008BD00BF9800002097
:10503000AC0700200E4B1A6842F480721A6099681F
:105040000C4A0A409A601A6822F0885222F0011233
:105050001A601A6822F480221A609A6822F47D028B
:105060009A600022DA604FF00062034B9A6070474A
:10507000003802400CC0FF8800ED00E0014B1860D2
:10508000704700BF2007002007281FB512D86423EF
:1050900040F0080004AA02F8010D07480093E0213F
:1050A00001230068FCF734FEB0FA80F0400905B037
:1050B0005DF804FB0020FAE72007002008B54FF454
:1050C000E13E0A480A4B0C2280E808400023426176
:1050D0008360C36003618361C361FEF789F918B11E
:1050E000BDE80840FFF7F2BE08BD00BF680700201A
:1050F0000044004008B54FF4E13E0A480A4B0C2238
:1051000080E80840002342618360C36003618361DB
:10511000C361FEF76DF918B1BDE80840FFF7D6BED0
:1051200008BD00BF28070020004800401422F0B549
:1051300004468BB00DEB0200002100F0CBF8236891
:10514000364A93422AD1364B05A95A6A354842F469
:1051500000325A625A6A02F400320092009ADA6906
:1051600042F00102DA61DB6903F001030193019B64
:105170000C2305930223069301230793032308932B
:1051800007230993FCF772FB002226201146FCF747
:1051900033FA2620FCF764FA0BB0F0BD224A9342A2
:1051A000FAD11F4B02275A6A012642F480225A6222
:1051B0005A6A032502F480220292029ADA690724CD
:1051C00042F00202DA61DA6905A902F002020392F2
:1051D000039ADA69154842F00402DA61DB6906973E
:1051E00003F004030493049B4FF4006307960593B4
:1051F00008950994FCF73AFB4FF4806305A90C4825
:1052000005930697079608950994FCF72FFB002253
:1052100027201146FCF7F0F92720BBE700440040A7
:1052200000380240000002400048004000040240F4
:1052300000080240002103E00B4B5B58435004314F
:105240000A480B4B42189A42F6D30A4A02E000235E
:1052500042F8043B084B9A42F9D3FFF7EBFE00F00B
:1052600015F8FFF721FD70476C5C00080000002076
:105270007800002078000020AC070020FEE7000046
:10528000014B1868704700BF1400002070B500255E
:105290000C4E0D4CA41BA410A54209D100F088FCB3
:1052A00000250A4E0A4CA41BA410A54205D170BDCE
:1052B00056F8253098470135EEE756F825309847DF
:1052C0000135F2E7645C0008645C0008645C000877
:1052D000685C000803460244934200D1704703F81B
:1052E000011BF9E738B50546002943D051F8043CC5
:1052F0000C1F002BB8BFE41800F00EF91E4A13680B
:10530000104633B9636014602846BDE8384000F0A9
:1053100004B9A3420BD921686218934201BF1A68ED
:105320005B685218226063600460EDE713465A68B8
:105330000AB1A242FAD919685818A0420BD12068C4
:105340000144581882421960DED110685268014445
:1053500019605A60D8E702D90C232B60D4E7206883
:1053600021188A4201BF11685268091821606260E1
:105370005C60C9E738BD00BF9C00002070B5CD1C43
:1053800025F0030508350C2D38BF0C25002D0646E9
:1053900001DBA94203D90C233360002070BD00F06B
:1053A000BBF8234A1468214691B9224C23681BB9E3
:1053B000304600F041F820602946304600F03CF8C5
:1053C000431C26D10C233046336000F0A6F8E4E7F6
:1053D0000B685B1B1AD40B2B0FD90B60CC18CD506C
:1053E000304600F09AF804F10B00231D20F007006E
:1053F000C31A1BD05A42E25070BD8C420BBF636887
:105400004B681360636018BF0C46E9E70C464968B7
:10541000CAE7C41C24F00304A04205D0211A304678
:1054200000F00AF80130CDD02560D9E770BD00BF8B
:105430009C000020A000002038B50023054C054644
:1054400008462360FFF7DCFD431C02D1236803B14B
:105450002B6038BDA80700200CB430B5174B0C1ECC
:105460009DB01D6808DA8B234FF0FF302B601DB014
:10547000BDE8304002B070474FF40273ADF814300D
:105480000CBF234604F1FF33049307934FF6FF73D9
:1054900002900690ADF81630209A21AB02A928465A
:1054A000019300F097F8431CBCBF8B232B60002CAA
:1054B000DDD00022029B1A70D9E700BF1400002043
:1054C0000EB44FF4027100B59CB0ADF814106FF03B
:1054D0000041049107914FF6FF711DAB02900690B9
:1054E000084853F8042BADF81610006802A9019380
:1054F00000F070F80022029B1A701CB05DF804EBFB
:1055000003B0704714000020034611F8012B03F884
:10551000012B002AF9D17047704770472DE9F047F9
:105520008E6882469E420C469146984635D88A89B6
:1055300012F4906F31D00223256809696F1A6569EA
:1055400005EB450595FBF3F508F101033B449D424E
:1055500038BF1D46530531D52946FFF70FFF0646D4
:1055600050B90C23CAF80030A3894FF0FF3043F044
:105570004003A381BDE8F0873A46216900F0C4FAF0
:10558000A38923F4906343F08003A38126613E4402
:10559000266046466561ED1BA560464528BF464628
:1055A00049463246206800F0BAFAA36800209B1BE7
:1055B000A36023681E442660BDE8F0872A4600F0F9
:1055C000C8FA06460028E1D121695046FFF78AFE55
:1055D000C7E700002DE9F04F9DB003938B8980460B
:1055E0001C060D4616460FD50B696BB94021FFF717
:1055F000C5FE2860286128B90C23C8F800304FF098
:10560000FF30C4E040236B610023099320238DF811
:10561000293030234FF0010B8DF82A3037463C46B5
:1056200014F8013B002B3CD1B7EB060A0BD05346D4
:10563000324629464046FFF771FF013000F0A28054
:10564000099B534409933B78002B00F09B80002377
:105650004FF0FF3204930793059206938DF8533071
:105660001A9305222178504800F040FA671C049BE9
:10567000D8B9D90644BF20228DF853201A0744BF59
:105680002B228DF8532022782A2A16D000210A20B6
:10569000079A27463B780134303B092B50D9C9B1D2
:1056A00011E0252BC0D02746B9E73F4A3C46801A77
:1056B0000BFA00F018430490D3E7039A111D126807
:1056C0000391002A01DB079204E0524243F00203F7
:1056D000079204933B782E2B0DD17B78791C2A2BD3
:1056E00032D1039B02371A1D1B680392002BB8BFEF
:1056F0004FF0FF3305932D4C03223978204600F0FC
:10570000F5F938B14023001B03FA00F0049B013780
:10571000034304933978062225487E1C8DF828100F
:1057200000F0E4F9002835D0224BFBB9039B073386
:1057300023F0070308330393099B4B4409936DE758
:1057400000FB02320121A4E700230A241846059336
:105750000F463A780131303A092A03D9002BCAD0D2
:105760000590C8E704FB00200123F1E703AB009399
:105770002A46114B04A94046AFF30080B0F1FF3F29
:105780008146D9D1AB895B063FF539AF09981DB089
:10579000BDE8F08F03AB00932A46074B04A94046AF
:1057A00000F084F8EAE700BF315C0008375C0008CD
:1057B0003B5C0008000000001D5500082DE9F04783
:1057C00091461F468A680B6906469342B8BF134646
:1057D000C9F8003091F843200C46DDF8208012B162
:1057E0000133C9F800302368990642BFD9F8003068
:1057F0000233C9F80030256815F0060507D104F119
:10580000190AE368D9F800209B1A9D422ADB94F814
:1058100043302268003318BF012392062FD404F1CD
:10582000430239463046C047013022D02368E5683C
:1058300003F00603042B18BF0025D9F800204FF011
:10584000000908BFAD1AA368226908BF25EAE575FB
:105850009342C4BF9B1AED181A344D451BD100204A
:10586000BDE8F0870123524639463046C047013033
:1058700003D14FF0FF30BDE8F0870135C1E730209C
:10588000E11881F843005A1C94F845102244023371
:1058900082F84310C3E70123224639463046C04709
:1058A0000130E6D009F10109D7E700002DE9F04306
:1058B00017460A7E85B06E2A984606460C460C9B13
:1058C00001F1430E00F0BC801AD8632A2ED00AD80A
:1058D000002A00F0C880582A00F08A8004F14205AE
:1058E00084F842202AE0642A01D0692AF6D121688E
:1058F0001A6811F0800F23D0111D1960136827E07A
:10590000732A00F0B48008D86F2A2AD0702AE5D113
:105910000A6842F020020A6003E0752A21D0782A42
:10592000DCD178226F4984F8452064E01A6801F1DF
:105930004205111D1960136884F842300123A3E069
:1059400011F0400F02F104011960D7D0B2F9003014
:10595000002B03DA2D225B4284F8432062490A229D
:1059600017E02068196810F0800F03D0081D186038
:105970000B6806E010F0400F01F104001860F7D04A
:105980000B886F2A14BF0A2208225749002084F886
:1059900043006568002DA560C0F29C80206820F05F
:1059A00004002060002B3FD1002D40F0958075460B
:1059B000082A0BD12368DA0708D5236962689A425E
:1059C000DEBF302305F8013C05F1FF35AEEB0503E2
:1059D0002361CDF800803B4603AA21463046FFF7FD
:1059E000EDFE013055D14FF0FF3005B0BDE8F0833A
:1059F00081F845203C492268186812F0800F00F1B8
:105A000004051D6001D0036802E05506FBD503883C
:105A1000D00744BF42F0200222601BB9226822F066
:105A2000200222601022B1E77546B3FBF2F002FBC0
:105A30001033CB5C05F8013D03460028F5D1B7E7EC
:105A400008681A6810F0800F496904D0101D1860AA
:105A50001368196007E010F0400F02F104001860AD
:105A60001368F6D01980002375462361B1E71A68E0
:105A7000111D1960156800216268284600F036F88B
:105A800008B1401B606063682361002384F84330E1
:105A90009FE723692A4639463046C0470130A2D0E5
:105AA00023689B0707D5002504F11909E368039AC9
:105AB0009B1A9D4205DBE068039B9842B8BF1846DD
:105AC00093E701234A4639463046C04701308AD021
:105AD0000135EBE7002BA7D10B7804F1420584F8E0
