:020000040800F2
:1000000000400020615D0008F55A0008F75A00081A
:10001000F95A0008FB5A0008FD5A000800000000C9
:10002000000000000000000000000000FF5A00086F
:10003000015B000800000000035B0008055B00088E
:10004000A95D0008A95D0008A95D0008A95D000878
:10005000A95D0008A95D0008A95D0008A95D000868
:10006000A95D0008A95D0008A95D0008095B0008FA
:10007000A95D0008A95D0008A95D0008A95D000848
:10008000A95D0008A95D0008A95D0008A95D000838
:10009000A95D0008A95D0008A95D0008A95D000828
:1000A000A95D0008A95D0008A95D0008A95D000818
:1000B000A95D0008A95D0008A95D0008A95D000808
:1000C000A95D0008A95D0008A95D0008A95D0008F8
:1000D000A95D0008A95D0008155B0008215B000808
:1000E000A95D0008A95D0008A95D0008A95D0008D8
:1000F000A95D00080000000000000000A95D0008E4
:100100000000000000000000A95D0008A95D0008D3
:10011000A95D0008A95D0008A95D000800000000B5
:10012000A95D0008000000000000000000000000C1
:0C01300000000000000000005FF808F173
:1001400010B5054C237833B9044B13B10448AFF311
:1001500000800123237010BDD000002000000000AB
:100160003467000808B5034B1BB103490348AFF3DC
:10017000008008BD00000000D400002034670008A3
:10018000034613F8012B002AFBD1181A01387047D7
:1001900081F0004102E000BF83F0004330B54FEA38
:1001A00041044FEA430594EA050F08BF90EA020FA5
:1001B0001FBF54EA000C55EA020C7FEA645C7FEA38
:1001C000655C00F0E2804FEA5454D4EB5555B8BF5B
:1001D0006D420CDD2C4480EA020281EA030382EACC
:1001E000000083EA010180EA020281EA0303362D5E
:1001F00088BF30BD11F0004F4FEA01314FF4801C31
:100200004CEA113102D0404261EB410113F0004F42
:100210004FEA03334CEA133302D0524263EB4303F9
:1002200094EA050F00F0A780A4F10104D5F1200E97
:100230000DDB02FA0EFC22FA05F2801841F10001F2
:1002400003FA0EF2801843FA05F359410EE0A5F1C6
:1002500020050EF1200E012A03FA0EFC28BF4CF0F7
:10026000020C43FA05F3C01851EBE37101F00045AD
:1002700007D54FF0000EDCF1000C7EEB00006EEBBA
:100280000101B1F5801F1BD3B1F5001F0CD3490844
:100290005FEA30004FEA3C0C04F101044FEA44529B
:1002A00012F5800F80F09A80BCF1004F08BF5FEA22
:1002B000500C50F1000041EB045141EA050130BD02
:1002C0005FEA4C0C404141EB010111F4801FA4F1A5
:1002D0000104E9D191F0000F04BF01460020B1FAFA
:1002E00081F308BF2033A3F10B03B3F120020CDA32
:1002F0000C3208DD02F1140CC2F10C0201FA0CF010
:1003000021FA02F10CE002F11402D8BFC2F1200C74
:1003100001FA02F120FA0CFCDCBF41EA0C0190402A
:10032000E41AA2BF01EB0451294330BD6FEA040473
:100330001F3C1CDA0C340EDC04F11404C4F120025E
:1003400020FA04F001FA02F340EA030021FA04F370
:1003500045EA030130BDC4F10C04C4F1200220FAC7
:1003600002F001FA04F340EA0300294630BD21FA05
:1003700004F0294630BD94F0000F83F4801306BFCB
:1003800081F480110134013D4EE77FEA645C18BFBF
:100390007FEA655C29D094EA050F08BF90EA020F56
:1003A00005D054EA000C04BF1946104630BD91EA4E
:1003B000030F1EBF0021002030BD5FEA545C05D151
:1003C0004000494128BF41F0004130BD14F5800490
:1003D0003CBF01F5801130BD01F0004545F0FE4104
:1003E00041F470014FF0000030BD7FEA645C1ABF39
:1003F000194610467FEA655C1CBF0B46024650EA70
:10040000013406BF52EA033591EA030F41F400219B
:1004100030BD00BF90F0000F04BF0021704730B521
:100420004FF4806404F132044FF000054FF00001F6
:1004300050E700BF90F0000F04BF0021704730B5B7
:100440004FF4806404F1320410F0004548BF40428C
:100450004FF000013EE700BF42004FEAE2014FEAE1
:1004600031014FEA02701FBF12F07F4393F07F4FBC
:1004700081F06051704792F0000F14BF93F07F4FEE
:10048000704730B54FF4607401F0004521F0004131
:1004900020E700BF50EA010208BF704730B54FF0B7
:1004A00000050AE050EA010208BF704730B511F0BC
:1004B000004502D5404261EB41014FF4806404F1F4
:1004C00032045FEA915C3FF4DCAE4FF003025FEA76
:1004D000DC0C18BF03325FEADC0C18BF033202EBFE
:1004E000DC02C2F1200300FA03FC20FA02F001FA58
:1004F00003FE40EA0E0021FA02F11444C1E600BFF7
:1005000070B54FF0FF0C4CF4E06C1CEA11541DBFA9
:100510001CEA135594EA0C0F95EA0C0F00F0DEF874
:100520002C4481EA030621EA4C5123EA4C5350EA59
:10053000013518BF52EA033541F4801143F48013AA
:1005400038D0A0FB02CE4FF00005E1FB02E506F03B
:100550000042E0FB03E54FF00006E1FB03569CF090
:10056000000F18BF4EF0010EA4F1FF04B6F5007F96
:1005700064F5407404D25FEA4E0E6D4146EB060608
:1005800042EAC62141EA55514FEAC52040EA5E5091
:100590004FEACE2EB4F1FD0C88BFBCF5E06F1ED83B
:1005A000BEF1004F08BF5FEA500E50F1000041EB72
:1005B000045170BD06F0004646EA010140EA02001F
:1005C00081EA0301B4EB5C04C2BFD4EB0C0541EA41
:1005D000045170BD41F480114FF0000E013C00F356
:1005E000AB8014F1360FDEBF002001F0004170BD7A
:1005F000C4F10004203C35DA0C341BDC04F1140493
:10060000C4F1200500FA05F320FA04F001FA05F21E
:1006100040EA020001F0004221F0004110EBD370EB
:1006200021FA04F642EB06015EEA430E08BF20EA17
:10063000D37070BDC4F10C04C4F1200500FA04F3BA
:1006400020FA05F001FA04F240EA020001F000414C
:1006500010EBD37041F100015EEA430E08BF20EABF
:10066000D37070BDC4F1200500FA05F24EEA020E07
:1006700020FA04F301FA05F243EA020321FA04F036
:1006800001F0004121FA04F220EA020000EBD370ED
:100690005EEA430E08BF20EAD37070BD94F0000FED
:1006A0000FD101F00046400041EB010111F4801F21
:1006B00008BF013CF7D041EA060195F0000F18BFD2
:1006C000704703F00046520043EB030313F4801F0E
:1006D00008BF013DF7D043EA0603704794EA0C0FC8
:1006E0000CEA135518BF95EA0C0F0CD050EA4106DE
:1006F00018BF52EA4306D1D181EA030101F000415B
:100700004FF0000070BD50EA410606BF1046194682
:1007100052EA430619D094EA0C0F02D150EA01368E
:1007200013D195EA0C0F05D152EA03361CBF1046CF
:1007300019460AD181EA030101F0004141F0FE416E
:1007400041F470014FF0000070BD41F0FE4141F4F2
:10075000780170BD70B54FF0FF0C4CF4E06C1CEAF2
:1007600011541DBF1CEA135594EA0C0F95EA0C0FA7
:1007700000F0A7F8A4EB050481EA030E52EA033562
:100780004FEA013100F088804FEA03334FF0805583
:1007900045EA131343EA12634FEA022245EA1115B0
:1007A00045EA10654FEA00260EF000419D4208BF61
:1007B000964244F1FD0404F5407402D25B084FEA0E
:1007C0003202B61A65EB03055B084FEA32024FF4BA
:1007D00080104FF4002CB6EB020E75EB030E22BF17
:1007E000B61A754640EA0C005B084FEA3202B6EBD7
:1007F000020E75EB030E22BFB61A754640EA5C0086
:100800005B084FEA3202B6EB020E75EB030E22BF15
:10081000B61A754640EA9C005B084FEA3202B6EB16
:10082000020E75EB030E22BFB61A754640EADC00D5
:1008300055EA060E18D04FEA051545EA16754FEA37
:1008400006164FEAC30343EA52734FEAC2025FEA55
:100850001C1CC0D111F4801F0BD141EA00014FF0E4
:1008600000004FF0004CB6E711F4801F04BF0143B5
:100870000020B4F1FD0C88BFBCF5E06F3FF6AFAED1
:10088000B5EB030C04BFB6EB020C5FEA500C50F161
:10089000000041EB045170BD0EF0004E4EEA1131E4
:1008A00014EB5C04C2BFD4EB0C0541EA045170BDEB
:1008B00041F480114FF0000E013C90E645EA060E2F
:1008C0008DE60CEA135594EA0C0F08BF95EA0C0F5D
:1008D0003FF43BAF94EA0C0F0AD150EA01347FF4A5
:1008E00034AF95EA0C0F7FF425AF104619462CE77C
:1008F00095EA0C0F06D152EA03353FF4FDAE1046DF
:10090000194622E750EA410618BF52EA43067FF42F
:10091000C5AE50EA41047FF40DAF52EA43057FF4BF
:10092000EBAE12E74FF0FF3C06E000BF4FF0010CCA
:1009300002E000BF4FF0010C4DF804CD4FEA410C2E
:100940007FEA6C5C4FEA430C18BF7FEA6C5C1BD0FB
:1009500001B050EA410C0CBF52EA430C91EA030F7C
:1009600002BF90EA020F0020704710F1000F91EAD9
:10097000030F58BF994208BF90422CBFD8176FEAA7
:10098000E37040F0010070474FEA410C7FEA6C5C75
:1009900002D150EA013C07D14FEA430C7FEA6C5C7C
:1009A000D6D152EA033CD3D05DF8040B704700BFA8
:1009B0008446104662468C461946634600E000BFF6
:1009C00001B5FFF7B7FF002848BF10F1000F01BDC8
:1009D0004DF808EDFFF7F4FF0CBF012000205DF893
:1009E00008FB00BF4DF808EDFFF7EAFF34BF012018
:1009F00000205DF808FB00BF4DF808EDFFF7E0FFB1
:100A000094BF012000205DF808FB00BF4DF808ED01
:100A1000FFF7CEFF94BF012000205DF808FB00BF68
:100A20004DF808EDFFF7C4FF34BF012000205DF84A
:100A300008FB00BF80F0004002E000BF81F00041F1
:100A400042001FBF5FEA410392EA030F7FEA226C74
:100A50007FEA236C6AD04FEA1262D2EB1363C1BF04
:100A6000D218414048404140B8BF5B42192B88BF73
:100A7000704710F0004F40F4000020F07F4018BF96
:100A8000404211F0004F41F4000121F07F4118BFB6
:100A9000494292EA030F3FD0A2F1010241FA03FC5E
:100AA00010EB0C00C3F1200301FA03F100F0004346
:100AB00002D5494260EB4000B0F5000F13D3B0F10E
:100AC000807F06D340084FEA310102F10102FE2A7D
:100AD00051D2B1F1004F40EBC25008BF20F00100ED
:100AE00040EA03007047490040EB000010F4000F9B
:100AF000A2F10102EDD1B0FA80FCACF1080CB2EB2E
:100B00000C0200FA0CF0AABF00EBC250524218438C
:100B1000BCBFD0401843704792F0000F81F4000131
:100B200006BF80F400000132013BB5E74FEA410304
:100B30007FEA226C18BF7FEA236C21D092EA030F70
:100B400004D092F0000F08BF0846704790EA010FEA
:100B50001CBF0020704712F07F4F04D1400028BF17
:100B600040F00040704712F100723CBF00F50000F9
:100B7000704700F0004343F0FE4040F4000070472F
:100B80007FEA226216BF08467FEA236301464202DB
:100B900006BF5FEA412390EA010F40F480007047EE
:100BA0004FF0000304E000BF10F0004348BF404294
:100BB0005FEA000C08BF704743F0964301464FF0D0
:100BC00000001CE050EA010208BF70474FF000032C
:100BD0000AE000BF50EA010208BF704711F000436D
:100BE00002D5404261EB41015FEA010C02BF84463D
:100BF0000146002043F0B64308BFA3F18053A3F59C
:100C00000003BCFA8CF2083AA3EBC25310DB01FAE2
:100C100002FC634400FA02FCC2F12002BCF1004F66
:100C200020FA02F243EB020008BF20F001007047F7
:100C300002F1200201FA02FCC2F1200250EA4C004B
:100C400021FA02F243EB020008BF20EADC70704791
:100C50004FF0FF0C1CEAD0521EBF1CEAD15392EA9F
:100C60000C0F93EA0C0F6FD01A4480EA010C40027B
:100C700018BF5FEA41211ED04FF0006343EA5010D5
:100C800043EA5111A0FB01310CF00040B1F5000F17
:100C90003EBF490041EAD3715B0040EA010062F1C6
:100CA0007F02FD2A1DD8B3F1004F40EBC25008BFB0
:100CB00020F00100704790F0000F0CF0004C08BFCE
:100CC00049024CEA502040EA51207F3AC2BFD2F19B
:100CD000FF0340EAC250704740F400004FF00003A9
:100CE000013A5DDC12F1190FDCBF00F000407047E3
:100CF000C2F10002410021FA02F1C2F1200200FA21
:100D000002FC5FEA310040F1000053EA4C0308BFE7
:100D100020EADC70704792F0000F00F0004C02BF38
:100D2000400010F4000F013AF9D040EA0C0093F0B3
:100D3000000F01F0004C02BF490011F4000F013B0D
:100D4000F9D041EA0C018FE70CEAD15392EA0C0F7B
:100D500018BF93EA0C0F0AD030F0004C18BF31F0E6
:100D6000004CD8D180EA010000F00040704790F0BC
:100D7000000F17BF90F0004F084691F0000F91F060
:100D8000004F14D092EA0C0F01D142020FD193EA26
:100D90000C0F03D14B0218BF084608D180EA0100AE
:100DA00000F0004040F0FE4040F40000704740F08A
:100DB000FE4040F4400070474FF0FF0C1CEAD05258
:100DC0001EBF1CEAD15392EA0C0F93EA0C0F69D0B4
:100DD000A2EB030280EA010C49024FEA402037D01F
:100DE0004FF0805343EA111143EA10130CF0004016
:100DF0008B4238BF5B0042F17D024FF4000C8B4206
:100E000024BF5B1A40EA0C00B3EB510F24BFA3EBE5
:100E1000510340EA5C00B3EB910F24BFA3EB9103B5
:100E200040EA9C00B3EBD10F24BFA3EBD10340EA0F
:100E3000DC001B0118BF5FEA1C1CE0D1FD2A3FF655
:100E400050AF8B4240EBC25008BF20F0010070470A
:100E50000CF0004C4CEA50207F32C2BFD2F1FF03AD
:100E600040EAC250704740F400004FF00003013ADE
:100E700037E792F0000F00F0004C02BF400010F482
:100E8000000F013AF9D040EA0C0093F0000F01F096
:100E9000004C02BF490011F4000F013BF9D041EAB8
:100EA0000C0195E70CEAD15392EA0C0F08D14202EB
:100EB0007FF47DAF93EA0C0F7FF470AF084676E7BE
:100EC00093EA0C0F04D14B023FF44CAF08466EE797
:100ED00030F0004C18BF31F0004CCAD130F0004265
:100EE0007FF45CAF31F000437FF43CAF5FE700BFBD
:100EF0004FEA4002B2F1FE4F0FD34FF09E03B3EB27
:100F000012620DD94FEA002343F0004310F0004F66
:100F100023FA02F018BF404270474FF000007047BC
:100F200012F1610F01D1420205D110F0004008BF5B
:100F30006FF0004070474FF000007047084B10B54D
:100F4000044618684FF47A73B0FBF3F000F01CFB12
:100F5000002221464FF0FF3000F0D6FA002010BDED
:100F60006400002008B5032000F0BCFA0020FFF761
:100F7000E5FF04F09DFD002008BD0000024A136853
:100F800001331360704700BFFC000020014B18685C
:100F9000704700BFFC00002013B50190FFF7F6FF7B
:100FA0000446FFF7F3FF019B001B9842F9D302B000
:100FB00010BD0000F7B5044608B9012092E0C36CEB
:100FC00073B9036580F84830544B1A6A42F0010245
:100FD0001A621B6A03F001030193019B02F066FB96
:100FE000E36CDB06E9D4E36C4D4A23F4885323F029
:100FF000020343F00203E3645368616823F440335F
:101000000B4353604FF4007090FAA0F00223B0FA43
:1010100080F0616A93FAA3F3B3FA83F36569E26837
:1010200001FA03F32A43256A2A43E56B05FA00F027
:1010300002431343626B2569102A1CBFA06B024355
:10104000206818BF1343026812F0400223D1A6693A
:10105000E7693343A668B5F5807F46EA070643D0C3
:10106000012D08BF4FF480723243E66A012E0DD184
:1010700000293BD14FF4604191FAA1F1B1FA81F618
:10108000216B42F400620139B1400A4346682549A8
:1010900031400A4342608168234AB5F5807F02EA05
:1010A000010242EA0302826001D0012D27D1056BC3
:1010B0004FF0F87292FAA2F2B2FA82F1A26A013A01
:1010C0008A4025F0F8710A4302638168174A0A4092
:1010D000934218D100202065E36C23F0030343F012
:1010E0000103E36403B0F0BD2A46BDE7E16C41F0C3
:1010F0002001E164216D41F001012165C6E7026B29
:1011000022F0F872E0E7E36C23F0120343F01003DF
:10111000E364236D43F0010323654EE7003802408A
:1011200000270140FF16FCFC89F1FFC0FEFF80BFD5
:101130007047436A10B5DA6C12F0500F24D1DA6CA4
:1011400042F40072DA641A68916811F0405F17D1B6
:10115000596AA9B9116B11F0F87F02D0916849055D
:101160000ED4516821F020015160DA6C22F48072B3
:10117000DA64DA6CD2045EBFDA6C42F00102DA643F
:101180001846FFF7D5FF10BD5B6CBDE810401B6B28
:101190001847704708B5406AFFF7FBFF08BD704766
:1011A000406A08B5C36C43F04003C364036D43F069
:1011B00004030365FFF7F3FF08BD0000002373B5C8
:1011C000019390F84830012B00F09C8001234D687A
:1011D00080F84830062D04684FEA85030A6821D854
:1011E0002B441F25266C053B9D4026EA050502FA87
:1011F00003F32B432364092A4AD80725636902EBCA
:1012000042068968B54023EA0503B1400B43636198
:10121000A2F11003012B5DD9002380F84830184655
:1012200002B070BD0C2D0BD82B441F25E66B233B61
:101230009D4026EA050502FA03F32B43E363DAE750
:10124000122D0BD82B441F25A66B413B9D4026EA4F
:10125000050502FA03F32B43A363CCE7182D0BD843
:101260002B441F25666B5F3B9D4026EA050502FA6D
:1012700003F32B436363BEE72B441F25266B7D3BA3
:101280009D4026EA050502FA03F32B432363B2E7E8
:10129000132A0DD8072602EB420523691E3D8968F3
:1012A000AE4023EA060301FA05F52B432361AFE7BD
:1012B0001A2A0DD8072602EB4205E3683C3D8968EF
:1012C000AE4023EA060301FA05F52B43E3609FE7EE
:1012D00000BF9DE70C4B596809029DD45968102A3C
:1012E00041F40001596097D1084B094A1B68B3FBD0
:1012F000F2F20A2353430193019B002B8CD0019BF4
:10130000013BF8E702208BE7002701406400002042
:1013100040420F00002373B50193036804461A6826
:10132000520602D5002002B070BD9A6842F0010258
:101330009A60134B134A1B68B3FBF2F303EB4303AE
:101340000193019BC3B9FFF721FE064623681D6880
:1013500015F04005E6D1FFF719FE801B0228F5D9EC
:10136000E36C84F8485043F01003E364236D0120DC
:1013700043F001032365D6E7019B013BE0E700BF93
:101380006400002040420F002DE9D84190F8483019
:101390000446012B0F4690464ED0012380F848307A
:1013A000FFF7B8FF0646002843D1E06C216820F41F
:1013B000E06020F0010040F48070E0644B683A4641
:1013C0005B0548BFE06C01F1580142BF20F440507A
:1013D00040F48050E064E36C606C13F480531CBFF5
:1013E000236D23F006032365002384F84830134B54
:1013F0008362134BC362134B03636FF0220341F804
:10140000583C51F8543C43F0806341F8543C51F847
:10141000503C43F4807341F8503C434600F012F9CD
:1014200023689A6812F0405F03D19A6842F08042C4
:101430009A603046BDE8D8810226FAE733110008E9
:1014400095110008A111000838B5036804461A6810
:10145000520601D4002038BD9A6822F001029A6039
:10146000FFF794FD054623681B685B06F2D5FFF77E
:101470008DFD401B0228F6D9E36C012043F01003D8
:10148000E364236D43F00103236538BD90F84830D1
:1014900010B5012B044622D0012380F84830FFF715
:1014A000D3FFA8B92268606C936823F480739360BB
:1014B00000F006F9E36C78B923F4885323F00103B4
:1014C00043F001032268E364536823F080635360B0
:1014D000002384F8483010BD43F04003F2E70220B7
:1014E00010BD0000074A0002D36800F4E06023F456
:1014F000E0631B041B0C43F0BF6343F4003303435E
:10150000D360704700ED00E0174B30B5DC68C4F3E2
:101510000224C4F10703251D042B28BF0423062D34
:101520004FF0010598BF002405FA03F303F1FF33E0
:1015300088BF033C1940A14005FA04F4013C224055
:10154000002842EA01024FEA0212AFBF00F16040F8
:10155000064B00F00F00D2B2A5BFD2B200F5614039
:101560001A5480F8002330BD00ED00E014ED00E0D7
:101570000123420900F01F0003FA00F0014B43F879
:101580002200704700E100E00138B0F1807F0AD20C
:10159000F021064B064A586082F8231000200722EB
:1015A00098601A6070470120704700BF10E000E0AB
:1015B00000ED00E010B5002839D001681D4B14245F
:1015C00099422CD81C4AA3F207430A44B2FBF4F216
:1015D00092000264C3630223846880F82130436868
:1015E0000A682343C46822F47F522343046922F02B
:1015F000300223434469234384692343C46923435A
:1016000013430B600122002383638362C36203637D
:10161000436380F8212080F82030184610BD074B26
:101620000B44B3FBF4F39B000364054BD2E70120AA
:1016300010BD00BF07640240F89FFDBFF89BFDBFCF
:1016400000640240F0B590F82040012C36D001240F
:1016500090F8215080F82040EDB2A5424FF00006EE
:101660004FF0020428D180F8214004688663266880
:10167000076C26F001062660C66BBD40756063608E
:1016800043680568102BC36A0BBFA260A160E160CC
:10169000E2604BB1236843F00E0323602B68002007
:1016A00043F001032B60F0BD236823F004032360A3
:1016B000236843F00A03F0E780F820600220F0BDC1
:1016C000026803461168C06B21F00E0111601168B9
:1016D00021F00101116001211A6C01FA02F242604D
:1016E000002083F8211083F82000704770B4042490
:1016F000C16B026C0E680368944026421D680ED0D0
:1017000015F0040F0BD01A6892065EBF1A6822F01B
:1017100004021A60C36A4C6073B370BC1847022499
:101720009440264212D015F0020F0FD01A68950689
:1017300006D41A6822F00A021A60012380F82130C8
:1017400000234C6080F82030836AE5E70824944049
:10175000344211D02C070FD51C6824F00E041C60F5
:10176000012303FA02F24A60836380F821300023E8
:1017700080F82030036BCFE770BC704700232DE961
:10178000F74FD1F80080DFF86891574A38FA03F430
:1017900002D103B0BDE8F08F012404FA03FA18EA7D
:1017A0000A0500F099804C6824F0100BBBF1020F81
:1017B00014D10F274FEAD30E00EB8E0E03F0070C67
:1017C000DEF820604FEA8C0C07FA0CF726EA0707D0
:1017D0000E6906FA0CF63E43CEF8206003274FEA66
:1017E000430C07FA0CF7FF43066804F0030E3E4073
:1017F0000EFA0CFE0BF1FF3B4EEA0606BBF1010FA1
:10180000066011D8866806EA070BCE6806FA0CFE59
:101810004EEA0B068660466826EA0A0AC4F30016FA
:101820009E4046EA0A064660C66837408E6806FA59
:101830000CF63743E600C7604ED54FF00F0ED9F8CF
:10184000206023F0030746F00106C9F82060D9F8AC
:10185000206007F1804706F00106019607F5803702
:1018600003F0030C019E4FEA8C0CBE680EFA0CFECE
:1018700026EA0E0E1D4EB04230D006F58066B0420C
:101880002ED006F58066B0422CD006F58066B042B8
:1018900014BF0526032606FA0CF646EA0E06BE60BD
:1018A000EF43166814F4803F0CBF3E402E43166091
:1018B000566814F4003F0CBF3E402E4356609668B5
:1018C00014F4801F0CBF3E402E439660D668A402DD
:1018D00054BF3E402E43D660013357E70026DAE777
:1018E0000126D8E70226D6E70004014000000240A6
:1018F000003802400369194214BF012000207047DC
:101900000AB1816170470904FBE70268536913F467
:1019100080630DD06FF4806353610423202203643D
:101920000023036380F83C3080F83D20012070479D
:10193000184670472DE9F843044617469946C1F307
:1019400007488EB22568B8F1010F0CBF6B69AB690F
:1019500036EA030314BF0120002008B9BDE8F8836C
:101960006B695A0512D52B68202243F400732B6053
:101970006FF480636B6104232364002301202363DD
:1019800084F83C3084F83D20BDE8F8837B1CD9D036
:101990004FB900232022236384F83C3084F83D2093
:1019A0000320BDE8F883FFF7F1FAA0EB09008742B6
:1019B000C8D2EEE72DE9F843044690461F46089E3C
:1019C000C1F307498DB22368B9F1010F0CBF5B6900
:1019D0009B6935EA03030CBF01230023434502D072
:1019E0000020BDE8F8837B1CEDD05FB900232022E6
:1019F000236384F83C3084F83D20032084F83E3093
:101A0000BDE8F883FFF7C2FA801B8742DBD2EDE71F
:101A100070B504460D46164623685B691B0601D562
:101A2000002070BD2046FFF770FFA8B96A1CF3D0F4
:101A300065B9236C202243F0200323640023032094
:101A4000236384F83C3084F83D2070BDFFF79EFA94
:101A5000801B8542E0D2ECE7012070BD70B50446E2
:101A60000D4616462068436913F0400301D000205C
:101A700070BD4269D2060BD56FF010024261202280
:101A8000236484F83C302363012084F83D2070BD3A
:101A90005DB9236C032043F020032364202384F8E2
:101AA0003D30002384F83C3070BDFFF76FFA801B97
:101AB0008542D7D2EDE770B504460D461646236839
:101AC0005B695B0701D5002070BD2046FFF71DFF55
:101AD000A8B96A1CF3D065B9236C202243F0200317
:101AE000236400230320236384F83C3084F83D20E2
:101AF00070BDFFF74BFA801B8542E0D2ECE7012076
:101B000070BD000070B5044608B9012070BD90F8A2
:101B10003D3003F0FF021BB980F83C2002F01EF8B4
:101B200001F028F83B4B9842EFD924233A4D84F832
:101B30003D30B0FBF5F5236838491A6822F0010200
:101B40001A605A6822F03F022A435A6062681E6A8D
:101B50008A4281BF4FF4967169434FF47A75B1FBA5
:101B6000F5F194BF691C013126F03F06314319623B
:101B7000DD692A4925F44F458A4225F0FF0530D812
:101B80005200B0FBF2F0C0F30B02032A98BF04200E
:101B90002843D8611968206AE26921F0C001024334
:101BA0000A431A609968E068226921F403410243FC
:101BB00021F0FF010A439A60D968A069626921F0A7
:101BC000FF0102430A43DA601A68002042F0010272
:101BD0001A602023206484F83D30206384F83E009E
:101BE00070BDA16849B902EB4202B0FBF2F0C0F34C
:101BF0000B0262B140F40040CAE719214A43B0FB2E
:101C0000F2F0C0F30B0212B140F44040C0E70120F3
:101C1000BEE700BF7F841E0040420F00A086010087
:101C20002DE9FF4104461F460D469046FFF7AEF9E9
:101C300094F83D300646202B04D00225284604B0F7
:101C4000BDE8F0810090192301224FF002112046D7
:101C5000FFF7B0FE0028F0D194F83C30012BECD017
:101C6000012384F83C3023681A68D2075EBF1A68E3
:101C700042F001021A601A6822F400621A602122FE
:101C800084F83D20102284F83E2000222264A2F530
:101C900080326785E262628DC4F824802285E26A20
:101CA000042A06D0E26A012A03D0E26A12F5803FD4
:101CB00004D11A6842F480721A6002E0226B122A80
:101CC000F7D000960A9B00224FF001112046FFF743
:101CD00071FE28BB23692268B3F5804F12D105F04D
:101CE000FE05156133460A9A36492046FFF722FE63
:101CF0000546A0B9236803905A6903929B69039330
:101D0000039B4FE0EB1103F0060343F0F003136174
:101D10002D4933460A9A2046FFF70CFE48B1236C42
:101D2000236C042B4FF0000307D184F83C300125CD
:101D300084E72368EDB21D61D4E784F83C300325C5
:101D40007CE732460A992046FFF762FE40B1236CD9
:101D5000042BF4D12268136843F400731360E6E7A0
:101D6000616A20684B1C63620B78228D0361638D6E
:101D7000013B9BB26385531E238543695B070AD5EC
:101D80004FB18B1C63624B78023A0361638D2285ED
:101D9000013B9BB2638532460A992046FFF78BFED2
:101DA0000028D4D1238D002BCBD121680A6842F4BE
:101DB00000720A60202284F83C3084F83D2084F8C8
:101DC0003E303BE702000100080001002DE9F0432E
:101DD000044689B098460D469146109FFFF7D6F805
:101DE00094F83D300646202B04D00225284609B041
:101DF000BDE8F0830090192301224FF00211204624
:101E0000FFF7D8FD0028F0D194F83C30012BECD03E
:101E1000012384F83C3023681A68D2075EBF1A6831
:101E200042F001021A601A6822F400621A6022224B
:101E300084F83D20102284F83E2000222264A2F57E
:101E40008032A4F82A80E262628DC4F82490228550
:101E50001A6842F480621A60E26A042A06D0E26AD2
:101E6000012A03D0E26A12F5803F04D11A6842F4D5
:101E700080721A6002E0226B112AF7D000963B466E
:101E800000224FF001112046FFF794FD00284AD1AF
:101E90002369B3F5804F236836D145F00105EDB2D3
:101EA0001D6133463A4682492046FFF743FD054609
:101EB000002837D1228D2368002A66D0012A77D1E5
:101EC0001A6822F480621A6004955A6904929A6929
:101ED0000492049A1A6842F400721A60DFF8D881FA
:101EE000238D002B5BD0032B00F2C380012B7AD112
:101EF000324639462046FFF7B1FD002800F09080B9
:101F0000236C202B16D13EE04FEAE51808F00608B6
:101F100048F0F0021A61674933463A462046FFF717
:101F200009FD48B1236C236C042B4FF0000328D12A
:101F300084F83C30012559E72368EDB21D613A462B
:101F400033465B492046FFF7F5FC02460028E9D1FD
:101F50002368079059692046079199690791079965
:101F6000196841F48071196000963B464FF00111E9
:101F7000FFF720FD0028D6D1226848F0F103136155
:101F80008FE784F83C30032530E703955A690392C4
:101F90009A690392039A1A6842F400721A60202325
:101FA00084F83D30002384F83E3084F83C301DE74F
:101FB000022A1A680DD122F480621A601A6842F46B
:101FC00000621A6005955A6905929B690593059B05
:101FD00084E742F480621A6006955A6906929B690A
:101FE0000693069B7AE7022B00963B464FF00002D1
:101FF0004146204622D1FFF7DDFC0028C3D12368EB
:102000001A6842F400721A60626A1B69511C6162AC
:102010001370238D013B2385638D013B9BB2638548
:10202000636A5A1C6262226812691A70238D013B2E
:102030002385638D013B9BB2638551E7FFF7BAFCB3
:10204000024600289FD12368196821F48061196035
:10205000616A1B69481C60620B70238D0096013B0E
:102060002385638D4146013B9BB2638520463B46F9
:10207000C1E7324639462046FFF7F0FC00287FF4DE
:102080003FAF636A5A1C6262226812691A70238D1C
:102090002268013B2385638D013B9BB263855369B5
:1020A0005B077FF51DAF636A591C6162BCE700BF27
:1020B0000200010008000100040001002DE9FF47B3
:1020C00004461F468A469146FEF760FF94F83D306D
:1020D0000646202B03D0022004B0BDE8F087009014
:1020E000192301224FF002112046FFF763FC00285C
:1020F000F1D194F83C30012BEDD0012384F83C3031
:10210000236800251A680AF0FE0AD1075EBF1A6824
:1021100042F001021A601A6822F400621A60242355
:1021200084F83D30364B2564E36222684FF001119C
:102130001368204643F48073136000963B460022E8
:10214000FFF738FC08B10320C6E723684FF0A0086A
:10215000C3F810A0FEF71AFF064623685A699007D5
:1021600026D54FF0200884F83D805A6991072DD577
:102170001A684FF0021142F400721A6000220392B2
:102180005A69204603929B6901220393039B0096A0
:102190001923FFF70FFC0028D5D184F83D8084F87F
:1021A0003C0099E7FEF7F2FE801B87420BD3D4E791
:1021B0005A695205D5D494F83D20A02AD1D07A1C72
:1021C000CCD0002FEED184F83D80C6E71A684FF0DE
:1021D000021142F400721A606FF4806220465A6164
:1021E000009619230122FFF7E5FB0028ABD101354A
:1021F000A9459AD884F83C0084F83D8001206BE71B
:102200000000FFFF1C4B82B09A6812F0F00F0CD058
:1022100000221A490B6823F0010313430B6008687E
:1022200000F00100504002B070475A6A144912F0A1
:10223000805F0FD00A6802F4C052B2F5C05FE7D1E8
:10224000B0F5404FE4D10D4A136843F00403136026
:102250000122DEE75A6A42F080525A625A6A02F05C
:1022600080520192019A0A68596A02F4C05221F020
:1022700080515962E1E700BF00380240003C024053
:102280000070004003682DE9F743D90704466AD47B
:1022900023689A0700F1E6802368DE0655D5C14D14
:1022A000AB6813F00C0F40F083814FF4007393FA86
:1022B000A3F2296893FAA3F3B3FA83F3012203F09C
:1022C0001F0302FA03F30B4202D0A369002B6ED066
:1022D000B44D206A6B6803F46043984240F24A812F
:1022E000FFF790FF002862D16B68226A23F46043F5
:1022F00013436B6069684FF07F4393FAA3F3B3FA1B
:1023000083F2E369934021F07F4213436B604FF403
:10231000604393FAA3F3B3FA83F0A24BF0219A68D7
:1023200091FAA1F1B1FA81F1236A02F0F002C340FF
:10233000581C4FF40043CA409B4983408A5C0020EC
:10234000D3409A4A1360FEF7F9FD23681D0700F198
:1023500091812368580700F1D381626A002A40F016
:102360005782002024E08F4B9A6802F00C02082A62
:1023700007D09A6802F00C020C2A1CD19B68DB0380
:1023800019D54FF4003393FAA3F2864A116893FAF1
:10239000A3F3B3FA83F3012203F01F0302FA03F35A
:1023A0000B423FF475AF6368002B7FF471AF0120DF
:1023B00003B0BDE8F08363687A4D012B20D12B6810
:1023C00043F480332B60FEF7E1FD4FF40035804687
:1023D0000126744F95FAA5F33A6895FAA5F3B3FA76
:1023E00083F303F01F0306FA03F313427FF450AFA5
:1023F000FEF7CCFDA0EB08006428EBD90320D7E75B
:1024000013BB2B684FF4003623F480332B602B680A
:10241000012723F480232B60FEF7B8FD804696FA4F
:10242000A6F32A6896FAA6F3B3FA83F303F01F0320
:1024300007FA03F313423FF42BAFFEF7A7FDA0EB1F
:1024400008006428EBD9D9E7052B2B6803D143F4A6
:1024500080232B60B3E723F480332B602B6823F4B5
:102460008023AFE74F4B9A6802F00C02042A07D092
:102470009A6802F00C020C2A24D19B68DF0321D455
:10248000022393FAA3F2474A106893FAA3F3B3FA2C
:1024900083F3012103F01F0301FA03F30342134600
:1024A00002D0E2688A4282D158684FF4F85292FA18
:1024B000A2F2B2FA82F122698A4020F4F8510A436A
:1024C0005A60E9E6E268012582B395FAA5F3B3FA0A
:1024D00083F303F1845303F58E139B001D60FEF715
:1024E00055FD022780462F4E97FAA7F3326897FAD8
:1024F000A7F3B3FA83F303F01F0305FA03F31342C0
:102500000DD071684FF4F85393FAA3F3B3FA83F242
:102510002369934021F4F85213437360BCE6FEF73D
:1025200035FDA0EB08000228DED967E795FAA5F390
:10253000B3FA83F303F1845303F58E139B001A60FF
:10254000FEF724FD02268046164F96FAA6F33A6857
:1025500096FAA6F3B3FA83F303F01F0305FA03F325
:1025600013423FF499AEFEF711FDA0EB08000228DC
:10257000EBD943E76B6823F4604303436B606968FE
:102580004FF07F4393FAA3F3B3FA83F2E3699340E6
:1025900021F07F4213436B60FFF734FE00283FF4C5
:1025A000B6AE04E700380240006D00086400002069
:1025B000A2694FF48073002A37D093FAA3F3B3FAD9
:1025C00083F3012603F1845303F58E139B001E60F1
:1025D000FEF7DCFC4FF40077804697FAA7F32A68F1
:1025E00097FAA7F3B3FA83F303F01F0306FA03F392
:1025F000134213D06B68226A23F4604313436B6069
:1026000069684FF07F4393FAA3F3B3FA83F2E36967
:10261000934021F07F4213436B6096E6FEF7B6FCD1
:10262000A0EB08000228D8D9E8E693FAA3F3B3FA9E
:1026300083F303F1845303F58E139B001A60FEF7B6
:10264000A5FC4FF400768046012796FAA6F32A6887
:1026500096FAA6F3B3FA83F303F01F0307FA03F322
:1026600013423FF472AEFEF791FCA0EB0800022883
:10267000EBD9C3E662690125A94902B395FAA5F32E
:10268000B3FA83F30B449B001D60FEF77FFC022628
:102690008046A44F96FAA6F37A6B96FAA6F3B3FA9D
:1026A00083F303F01F0305FA03F313427FF451AEE3
:1026B000FEF76CFCA0EB08000228EBD99EE695FA29
:1026C000A5F3B3FA83F30B449B001A60FEF75EFC9C
:1026D00002268046934F96FAA6F37A6B96FAA6F3F3
:1026E000B3FA83F303F01F0305FA03F313423FF435
:1026F00030AEFEF74BFCA0EB08000228EBD97DE6DC
:10270000884B5A6AD10034D401265A6A42F080526A
:102710005A625B6A03F080530193019B824D2B68E0
:10272000DA0528D5A3687F4D012B34D16B6B43F4B8
:1027300080736B63FEF72AFC4FF400758146012716
:10274000DFF8E08195FAA5F3D8F8342095FAA5F3DF
:10275000B3FA83F303F01F0307FA03F313424ED0D7
:10276000002E3FF4FAAD6F4A536A23F08053536250
:10277000F3E50026D2E72B6843F480732B60FEF765
:1027800005FC07462B68DB05CCD4FEF7FFFBC01B1E
:102790006428F7D932E623BB6B6B4FF4007723F440
:1027A00080736B636B6B4FF0010823F480636B6382
:1027B000FEF7ECFB814697FAA7F36A6B97FAA7F34B
:1027C000B3FA83F303F01F0308FA03F31342C7D0ED
:1027D000FEF7DCFB41F28833A0EB09009842EAD90E
:1027E0000CE6052B6B6B03D143F480636B639DE7B1
:1027F00023F480736B636B6B23F4806399E7FEF7BC
:10280000C5FB41F28833A0EB090098429AD9F5E55F
:10281000444DAB6803F00C030C2B3FF4C8AD022A07
:102820004FF0807356D193FAA3F3B3FA83F30022E7
:1028300003F1845303F58E139B001A60FEF7A6FB89
:102840002E4680464FF00077012597FAA7F33268AD
:1028500097FAA7F3B3FA83F303F01F0305FA03F320
:10286000134230D1B268A36AE16A22F47D020B43BD
:102870001343226B1343B3604FF0807393FAA3F3B7
:10288000B3FA83F303F1845303F58E139B001D60A9
:10289000FEF77CFB4FF0007407460125214E94FAA9
:1028A000A4F3326894FAA4F3B3FA83F303F01F039A
:1028B00005FA03F313427FF454ADFEF767FBC01B28
:1028C0000228ECD99AE5FEF761FBA0EB080002288C
:1028D000BBD993E593FAA3F3B3FA83F3002203F190
:1028E000845303F58E139B001A60FEF74FFB4FF0E5
:1028F00000740746012694FAA4F32A6894FAA4F314
:10290000B3FA83F303F01F0306FA03F313423FF411
:1029100028ADFEF73BFBC01B0228ECD96EE500BFDB
:10292000A0C1911000380240007000401E4910B54F
:102930008B6803F00C02082A05D00C2A05D0042A63
:1029400022D11A4810BD1A4810BD4FF4701292FAE5
:10295000A2F2B2FA82F203F4701020FA02F21548E1
:10296000845C4FF4400090FAA0F0B0FA80F203F4D7
:1029700040008B68D040DB034CBF0D4B0B4B01304C
:102980006343B3FBF0F010BD48684FF4604393FA23
:10299000A3F3B3FA83F300F46040D840431C4FF430
:1029A0000040984010BD00BF003802400024F400F1
:1029B00000127A00186D00086A4B2DE9F0411A6880
:1029C000064602F001028A420D4630D3326894076F
:1029D00040D4D00746D4634B1A6802F001029542F6
:1029E000C0F0AE803268510700F1B380130707D5FD
:1029F0005D4A3169936823F4605343EAC1039360ED
:102A0000FFF794FF584BF0229B6892FAA2F2B2FAB9
:102A100082F203F0F003D340544AD35CD840544BC5
:102A200018600020FEF78AFA0020BDE8F081012935
:102A300002BF1A6842F004021A601A6822F001020A
:102A40000A431A601B6803F001039942BED00120BB
:102A5000BDE8F0814449B0688B6823F0F00303437C
:102A60008B60B6E772684049022A0FD14FF40033F9
:102A700093FAA3F0086893FAA3F3B3FA83F301215E
:102A800003F01F0301FA03F3034213E0032A02D108
:102A90004FF00073ECE7012A29D1022393FAA3F047
:102AA000096893FAA3F3B3FA83F303F01F0302FA5E
:102AB00003F30B42CBD02C4C41F28838A36823F0AF
:102AC00003031A43A260FEF761FA73680746022BFC
:102AD00010D1A36803F00C03082B3FF47CAFFEF782
:102AE00055FAC01B4045F4D90320BDE8F0814FF4EE
:102AF0000073BDE7032B0BD1A36803F00C030C2B71
:102B00003FF469AFFEF742FAC01B4045F4D9EBE74A
:102B1000012B10D1A36803F00C03042B3FF45BAF2F
:102B2000FEF734FAC01B4045F4D9DDE7FEF72EFA74
:102B3000C01B4045D8D8A36813F00C0FF6D14AE764
:102B40001A6822F001021A601B68DA073FF57FAFAE
:102B500048E70549F0688B6823F4E06303438B6022
:102B600044E700BF003C024000380240006D00080E
:102B700064000020084B4FF4E0629B6892FAA2F2D6
:102B8000B2FA82F203F4E063D340044AD35C044A0D
:102B90001068D840704700BF00380240106D000830
:102BA00064000020084B4FF460529B6892FAA2F236
:102BB000B2FA82F203F46053D340044AD35C044A6D
:102BC0001068D840704700BF00380240106D000800
:102BD0006400002003682DE9F7430446980701D1FB
:102BE000002055E04F4B5A6AD1003FD401255A6A64
:102BF00042F080525A625B6A03F080530193019B5A
:102C0000494E3368DA0533D5464B6268196802F0DD
:102C1000C04001F0C041814204D1A06800F0C04032
:102C2000814207D002F44031B1F5403F02D119682A
:102C3000880375D45B6B13F440332CD16068394B37
:102C400000F44031B1F5403F06D11A6800F0C040B1
:102C500022F0C04202431A605A6B11435963002D9F
:102C6000BED05A6A22F080525A62B9E70025C7E7FF
:102C7000336843F480733360FEF788F9074633689E
:102C8000DB05C1D4FEF782F9C01B6428F7D9032005
:102C900003B0BDE8F08302F44032934202D02268D0
:102CA000D10707D4A26802F440329342C6D0236809
:102CB0009A07C3D51B4E4FF40003716B21F44030CB
:102CC00093FAA3F2B2FA82F20127DFF860E07244CD
:102CD0009200176093FAA3F3B3FA83F300227344CC
:102CE0009B001A60CB057063A8D5FEF74FF94FF42F
:102CF0000078814698FAA8F3726B98FAA8F3B3FAB1
:102D000083F303F01F0307FA03F3134296D1FEF790
:102D10003DF941F28833A0EB09009842EAD9B6E7C1
:102D20000120B5E70038024000700040A0C19110BA
:102D300038B503680446DA68520601D5002038BD6C
:102D40004FF0FF32DA60FEF721F905462368DB68B1
:102D50005B06F3D4FEF71AF9401BB0F57A7FF5D97C
:102D6000032038BD38B50446B0B1437F03F0FF02FD
:102D700013B9027702F038F80223CA226377236876
:102D800020465A6253225A62FFF7D2FF236828B1C5
:102D9000FF225A6204236377012038BD9A682569AF
:102DA00022F4E00222F040029A60626899682A43A5
:102DB00065692A430A439A60E268A1681A611A6940
:102DC00042EA01421A61DA68A16922F08002DA60FF
:102DD0001A6C22F480221A641A6C0A431A64FF22C5
:102DE0005A620123637738BD0023092803D840EADB
:102DF0000310C0B270470A380133C0B2F5E7F8B526
:102E0000037F0646012B0F464FF002005ED00123E0
:102E100033773368707708784D788C789B683ABB45
:102E200013F0400308BFCB70FFF7DEFF01462846D2
:102E3000FFF7DAFF02462046FFF7D6FFFB7840EAAD
:102E4000034040EA014040EA0224CA223368304687
:102E50005A6253225A62FFF76BFF33680546A0B1EE
:102E6000FF225A6204237377002333770120F8BDD1
:102E700013F040034FEA052508BFCB7045EA004038
:102E80002043CC7840EA0444DFE704F07F3424F0A8
:102E9000FE441C609A68386922F480229A60FA68BD
:102EA000996802430A439A60DA68304622F0800249
:102EB000DA6000F0B7F8FF2233685A6218B10423D1
:102EC00035777377D2E7012330777377F8BDF8B59C
:102ED000037F0546012B4FF0020050D00123687795
:102EE0002B774B78C8788E780C78002A40D1DA0698
:102EF00003D523F010030A334B70FFF775FF074625
:102F00004878FFF771FF02463046FFF76DFF40EA51
:102F1000443040EA074040EA0224CA222B6828468F
:102F20005A6253225A62FFF703FF2B68064638B1F4
:102F3000FF225A6204236B7700232B770120F8BD10
:102F400024F07F4424F0C0045C60DA68284622F054
:102F50008002DA6000F066F8FF222B685A6218B12E
:102F600004232E776B77E9E7012328776B77F8BD89
:102F70001B0243EA0040304340EA4434CDE7F8BD49
:102F80000A22030900F00F0002FB0300C0B27047E1
:102F900038B503685C6824F07F4323F0C003180C45
:102FA000C3F3042504F03F04C3F34233C8704D70EB
:102FB0008C700B7052B9FFF7E3FFC8702846FFF71B
:102FC000DFFF48702046FFF7DBFF8870002038BD28
:102FD00038B50C460368996A89B2616019691D6841
:102FE000C1F30E0105F07F3323F0FE43A160190CFD
:102FF00001F03F00C3F3062305F07F0501F0400117
:1030000020706370A570E17052B9FFF7B9FF2070AE
:103010006078FFF7B5FF6070A078FFF7B1FFA07090
:10302000002038BD38B5036804469A68920601D579
:10303000002038BDDA6822F0A002DA60FDF7A6FFB2
:1030400005462368DB689B06F2D4FDF79FFF401B13
:10305000B0F57A7FF5D9032038BD00002DE9F0479F
:1030600081460568C2682B69C16923F44053134344
:103070002B6183680069EA680343D9F8140022F4DD
:103080001642034322F00C020B431343EB606B69BF
:10309000D9F8182023F440731343B1F5004F6B6146
:1030A0007E4B7FD19D424FF0190447D1FFF77AFD47
:1030B00004FB00F3D9F804704FF064087F00B3FB01
:1030C000F7F3B3FBF8F31F01FFF76CFD6043D9F88A
:1030D00004305B00B0FBF3F6FFF764FD6043D9F802
:1030E00004305B00B0FBF3F3B3FBF8F308FB1363AE
:1030F000DB003233B3FBF8F35B0003F4F876FFF741
:1031000051FD6043D9F804205200B0FBF2FAFFF7FA
:1031100049FD6043D9F804305B00B0FBF3F3B3FB27
:10312000F8F308FB13A3DB003233B3FBF8F303F02F
:1031300007033B443344AB60BDE8F087FFF71AFD5B
:1031400004FB00F3D9F804704FF064087F00B3FB70
:10315000F7F3B3FBF8F31F01FFF70CFD6043D9F859
:1031600004305B00B0FBF3F6FFF704FD6043D9F8D1
:1031700004305B00B0FBF3F3B3FBF8F308FB13631D
:10318000DB003233B3FBF8F35B0003F4F876FFF7B0
:10319000F1FC6043D9F804205200B0FBF2FAFFF7CB
:1031A000E9FCB6E79D424FF0190443D1FFF7FAFC62
:1031B00004FB00F3D9F804604FF06408B600B3FBD9
:1031C000F6F3B3FBF8F31E01FFF7ECFC6043D9F80C
:1031D00004309B00B0FBF3F7FFF7E4FC6043D9F841
:1031E00004309B00B0FBF3F3B3FBF8F308FB13735D
:1031F0001B013233B3FBF8F303F0F007FFF7D2FC07
:103200006043D9F804209200B0FBF2FAFFF7CAFC41
:103210006043D9F804309B00B0FBF3F3B3FBF8F341
:1032200008FB13A31B013233B3FBF8F303F00F03C6
:103230003B437FE7FFF79EFC04FB00F3D9F80460F3
:103240004FF06408B600B3FBF6F3B3FBF8F31E01CE
:10325000FFF790FC6043D9F804309B00B0FBF3F714
:10326000FFF788FC6043D9F804309B00B0FBF3F310
:10327000B3FBF8F308FB13731B013233B3FBF8F312
:1032800003F0F007FFF776FC6043D9F804209200C2
:10329000B0FBF2FAFFF76EFCBAE700BF003801405E
:1032A000F8B504460E461546FDF770FE074622683F
:1032B000136836EA030301D10020F8BD6B1CF7D078
:1032C000C5B923680320DA6822F08002DA60DA6880
:1032D00022F02002DA60DA6822F48072DA605A6939
:1032E00022F001025A61012384F83930002384F866
:1032F0003830F8BDFDF74AFEC01B8542D7D2E0E763
:1033000010B5044630B390F8393003F0FF021BB912
:1033100080F8382002F0A0FC0223226884F83930BB
:10332000D368204623F40053D360FFF797FE236849
:1033300000201A6922F490421A615A6922F02A0286
:103340005A61DA6842F40052DA600123E06384F8DB
:10335000393010BD012010BD70B50D4690F8391000
:103360000446C9B201291E4601D022294DD1002DA3
:1033700049D0002A47D094F83830012B45D001239A
:1033800084F838300023E36394F83930A284222B88
:103390000CBF32231223E28484F83930E28C8AB9DC
:1033A000324640212046FFF77BFFC0B994F8393000
:1033B000322B0CBF2223012384F83930002384F8F8
:1033C000383070BDA368013AB3F5805FE2844FF0F6
:1033D0008001324620460DD1FFF762FF08B103207D
:1033E00070BD2B882268C3F308035360236943B977
:1033F0000235D3E7FFF754FF0028F0D123682A787D
:103400005A600135CAE7012070BD022070BD90F8F6
:103410003930DBB2012B01D0122B28D129B322B3D2
:1034200090F83830012B22D0012380F83830002367
:10343000C3638285C28590F8392080F83830122A1B
:103440000CBF32222222036880F83920DA688162B8
:1034500042F48072DA605A69002042F001025A6137
:10346000DA6842F02002DA607047012070470220DB
:10347000704770477047026813B511680446C90762
:10348000D36805D5DB0542BFC36B43F00103C363BB
:1034900011685369880703F0010304D51BB1E16B80
:1034A00041F00401E1631168490704D51BB1E16BE8
:1034B00041F00201E1631168080704D51BB1E36B19
:1034C00043F00803E3631168D368890633D598068F
:1034D00031D594F8393003F0EF03222B2BD1A368B8
:1034E0002169B3F5805FA36A76D1526800296FD154
:1034F000C2F3080223F8022BA362E38D013B9BB2C7
:10350000E385C3B923682046DA6822F02002DA6036
:1035100094F83920322A17BFDA68122322F4807215
:10352000DA601FBF5A6922F001025A61012384F850
:10353000393001F0BDFB23681968DA68090622D525
:10354000100620D594F8392002F0DF02122A1AD191
:10355000A268B2F5805F226A4CD11188C1F30801DC
:1035600059602169002943D102322262E28C013A7A
:1035700092B2E2843AB9DA6822F08002DA60DA685C
:1035800042F04002DA601968DA68490610D552063E
:103590000ED5DA68204622F04002DA6094F839301D
:1035A000322B0CBF2223012384F83930FFF761FF4F
:1035B000E36B5BB1236820461A6801925B68019354
:1035C000019B012384F83930FFF754FF02B010BD8E
:1035D000D2B223F8012B8FE721B9591C5268A1629E
:1035E0001A708AE75268591CA16202F07F02F7E75D
:1035F0000132BAE7511C216212785A60B6E7000026
:1036000030B500242748284B012580E818004FF4E6
:10361000807303614FF4806343610423836210234A
:1036200085B00194029403948460C4608461C46191
:1036300004624562C46243638463C563FDF7BAFCF8
:1036400008B101F089FB062301A9164801940295EF
:103650000393FDF7B3FD08B101F07EFB0123019355
:10366000022301A90F480293FDF7A8FD08B101F05C
:1036700073FB0A230193032301A90A480293FDF770
:103680009DFD08B101F068FB0B230193042305485D
:103690000DEB03010293FDF791FD08B101F05CFB16
:1036A00005B030BD440100200024014070B506463D
:1036B00088B01422002103A802F0AAFB3268254B2F
:1036C0009A4244D10324002503F58A331A6A03A9D8
:1036D00042F400721A621A6A1F4802F400720092E1
:1036E000009ADA6942F00402DA61DA6902F004024F
:1036F0000192019ADA6942F00102DA61DB6903940E
:1037000003F001030293029B0494FEF737F8134879
:1037100003A9039404940595114CFEF72FF8114B5F
:10372000204684E828008023E3604FF480732361FF
:103730004FF4806363614FF48053A560A561E3613A
:10374000FDF738FF08B101F007FB7464666208B04A
:1037500070BD00BF0024014000080240000002408C
:1037600000010020086002401FB50E4B03AA18702C
:10377000430943F040038DF80C300A2300F01F008A
:1037800040F060008DF80D000748009346210223A9
:103790000068FEF745FA003018BF012005B05DF85B
:1037A00004FB00BFA00100209C0100201FB50723DF
:1037B00004AA02F8013D0A2306480093462101238A
:1037C0000068FEF72DFA003018BF012005B05DF843
:1037D00004FB00BF9C01002008B5074B1860FFF7F1
:1037E000E5FF30B94520FFF7BFFF003018BF0120CB
:1037F00008BD012008BD00BF9C0100201FB500309E
:1038000018BF01200A2304AA02F8010D06480093FC
:10381000462101230068FEF703FA003018BF01209B
:1038200005B05DF804FB00BF9C0100201FB5030933
:103830008DF80F0015D000F00F03032B11D80A4BA1
:103840000DF10F0218700A23084800934621012346
:103850000068FEF7E5F9003018BF012005B05DF8FB
:1038600004FB0120FAE700BF980100209C01002022
:103870000A2330B5054685B01A48009303AA0223EF
:1038800046210068FEF7A2FA48BBBDF80C0040BA1A
:1038900080B2FDF789F9144B0446187845280AD000
:1038A000FDF77EF901461148FDF786FA01462046EC
:1038B000FDF7CEF904460E4B1B78212B01D0112BBE
:1038C00005D120464FF07C51FDF7C2F90446094965
:1038D0002046FDF771FA2860002005B030BD0120B8
:1038E000FBE700BF9C010020A001002000008A42ED
:1038F000980100209A99993F0A4B07B5DA690B2085
:1039000042F08072DA610022DB69114603F08073B5
:103910000193019BFDF7F8FD0B20FDF729FE03B095
:103920005DF804FB00380240137830B513F0010451
:1039300013681DD01488C4F3470431F81450C5EB44
:103940005325C5F31605054465F35F23136021F87D
:103950001400138803F4FF71B1F5FF7F16BF013423
:103960006FF3480364F3480313801068400C30BDC4
:1039700000EB532565F35F231360C3F3470321F87E
:103980001300118801F4FF70B0F5FF7F05BF64F3E9
:10399000480111800133C9B20BBF41F0010163F34B
:1039A000480111701180E0E714222DE9F0438BB03B
:1039B0000DEB0200002102F02BFA534B534EDA6953
:1039C000534F42F00402DA61DA69DFF8488102F00D
:1039D00004020092009ADA69304642F02002DA616D
:1039E000DA694FF2074102F020020192019ADA6986
:1039F000DFF8249142F00102DA61DA69002402F072
:103A000001020292029ADA69012542F00202DA61A9
:103A1000DA6902F002020392039ADA6942F00802BC
:103A2000DA61DB69002203F008030493049BFDF7CD
:103A300067FF384600224FF47071FDF761FF404682
:103A400000224FF41941FDF75BFF00224846042194
:103A5000FDF756FF42F20C030593032305A93846F0
:103A600006930794FDF78AFE4FF4DE6305A94046EE
:103A7000059306940794FDF781FE41F6300305A9EE
:103A80003846059306940794FDF778FE4FF203033A
:103A900005A930460593069507940894FDF76EFE38
:103AA00040F204430593022305A930460793069587
:103AB0000894FDF763FE4FF4707305A9384605932B
:103AC000069507940894FDF759FE4FF4194305A98C
:103AD00040460593069507940894FDF74FFE04238E
:103AE00005A948460593069507940894FDF746FEF8
:103AF000F02305A93046059306940794FDF73EFE92
:103B00000BB0BDE8F08300BF003802400004024063
:103B10000008024000000240000C024008B50C48BA
:103B20000C4BDFF834E04FF4804280E8084000237B
:103B300002618360C36043618361C3610362FDF717
:103B4000E1FF18B1BDE8084001F006B908BD00BFAB
:103B5000A401002000540040801A060010B504465D
:103B600088B01422002103A802F052F92268134BF6
:103B70009A4221D1124C03A9E369124843F002038F
:103B8000E361E36903F002030193019B4FF4407387
:103B90000393122304930123059303230693042321
:103BA0000793FDF7EBFD636A43F400136362636AF6
:103BB00003F400130293029B08B010BD00540040B0
:103BC000003802400004024010B5154C86B001A92F
:103BD00000222046FFF7FCF99DF80420114B6946AE
:103BE0001A709DF80520104B20461A709DF806208B
:103BF0000E4B1A700022FFF7CBF99DF800200C4BFA
:103C00001A709DF803200B4B1A709DF801200A4B87
:103C10001A709DF80220094B1A7006B010BD00BF43
:103C2000800B0020310B00203F080020750B002086
:103C3000560B0020190400201B040020080200205D
:103C4000F0B507460E46154687B01422002101A89C
:103C50001C4602F0DDF89DF8383000226946114814
:103C60008DF800308DF803708DF801608DF80250EA
:103C7000FFF72DF9024690B99DF8303001A98DF873
:103C800005309DF8343007488DF804408DF8063033
:103C9000FFF7B5F8003018BF012007B0F0BD0120D4
:103CA000FBE700BF800B0020044B1A7802B1012211
:103CB0004FF480510248FDF723BE00BF400B0020A7
:103CC00000000240044B1A7802B101224FF4006157
:103CD0000248FDF715BE00BF1C0400200000024092
:103CE000044B1A7802B101224FF480710248FDF7AB
:103CF00007BE00BF3D080020000002402DE9F04152
:103D00001A4D1B4C2846FDF7C1FB2088194BDFF8E4
:103D1000A08018806388184FA8F80030A388174E39
:103D20003B80E388164A17493380FFF7FDFD164BA9
:103D3000164A18801649B8F80000FFF7F5FD154B34
:103D4000154A188015493888FFF7EEFD144B154ABF
:103D5000188015493088FFF7E7FD144B214618807D
:103D600004222846BDE8F041FDF70EBB44010020C7
:103D700040080020540B0020FA010020F801002028
:103D80006C0B002010020020220400200C020020F6
:103D900028090020720B0020380B00202806002084
:103DA000B6080020440B002024040020340B00201F
:103DB000380800202DE9F8432F4C002001F0FAFECE
:103DC0002E4D2046FFF754FD012001F0F3FEDFF8F1
:103DD000CC802846FFF74CFD032001F0EBFE284E77
:103DE0004046FFF745FD042001F0E4FE3046FFF7B2
:103DF0003FFD24682F6820463946FCF721FE4FF02E
:103E00007C51FCF725FFFDF773F81E4BD8F80090A6
:103E1000D6F8008005B21D8041464846FCF710FEEA
:103E20004FF07C51FCF714FFFDF762F8164B06B219
:103E30001E8049462046FCF703FE4FF07C51FCF7FC
:103E400007FFFDF755F8114B04B21C804146384678
:103E5000FCF7F6FD4FF07C51FCF7FAFEFDF748F851
:103E60000B4B00B218800B4BAD1B1D800A4B241A64
:103E70001C80BDE8F88300BF24060020000200205B
:103E8000480B0020B808002020040020280800204B
:103E90001E040020060200204C0B0020500B0020C6
:103EA00008B54FF400612048FDF724FD20BB012236
:103EB0001E4B1A704FF480511B48FDF71BFD20BBB1
:103EC00001221B4B1A701B4B1888FCF7B3FA14A382
:103ED000D3E90023FCF714FB174BC3E90001174B90
:103EE0001888FCF7A7FA0EA3D3E90023FCF708FB18
:103EF000134BC3E9000108BD4FF400610A48FDF708
:103F0000F9FC0128D6D10022D2E74FF480510648AF
:103F1000FDF7F0FC0128D6D10022D2E7AFF30080F4
:103F200053333553339B493F000802403F0B002079
:103F30003E080020B6080020580B0020340B00205B
:103F4000100400200000000038B51D4B1888FCF755
:103F500071FA15A3D3E90023FCF7D2FA14A3D3E92D
:103F60000023FCF7F7FB04460D46164BC3E900455A
:103F700011A3D3E90023FCF753FDA0B10EA3D3E9AD
:103F8000002320462946FCF707F90F4B0022C3E91E
:103F900000010E4BFCF7B4FA0B460246FCF7FEF8A4
:103FA0000B4BC3E9000138BD53333553339B493FB5
:103FB00057AE39D505C5E03F000000A099990D40E6
:103FC00022040020280B0020300800200000594067
:103FD000480800200000000038B51D4B1888FCF789
:103FE00029FA15A3D3E90023FCF78AFA14A3D3E92D
:103FF0000023FCF7AFFB04460D46164BC3E9004512
:1040000011A3D3E90023FCF70BFDA0B10EA3D3E964
:10401000002320462946FCF7BFF80F4B0022C3E9D6
:1040200000010E4BFCF76CFA0B460246FCF7B6F8A3
:104030000B4BC3E9000138BD53333553339B493F24
:1040400024FCE442D4CDE03F000000A099990D404B
:10405000720B002020090020780B0020000059403E
:10406000600B0020F0B597B001AA1546204B03F174
:104070001006144618685968083303C4B342224630
:10408000F7D119889B782180A3702846FCF778F82F
:10409000294682B24FF0FF331648FFF75DF900243E
:1040A000154D164E134F610089B20A23012228468E
:1040B000FEF704F878B923463246402106A801F0FD
:1040C000A3FF06A8FCF75CF84FF0FF3382B206A905
:1040D0003846FFF741F90134802CE4D14FF0FF332B
:1040E000022207490348FFF737F917B0F0BD00BFB8
:1040F00086670008240D0020A40100207E670008C8
:10410000826A0008134B197859B9134A1278022AA7
:1041100016D1124B197070470221104A11700122FA
:104120001A701978022914D10B4A1278022A0CD17C
:1041300001220A4B1A707047084A11700322F9E7EE
:10414000012AE6D0002AE7D07047002AF0D0012AE1
:10415000F2D070470000002001000020060000207F
:10416000134B197859B9134A1278022A16D1124BF7
:10417000197070470221104A117001221A701978C3
:10418000022914D10B4A1278022A0CD101220A4BBF
:104190001A707047084A11700322F9E7012AE6D025
:1041A000002AE7D07047002AF0D0012AF2D07047E9
:1041B000020000200300002007000020134B1A78A3
:1041C00062B9134A1278022A15D10122114B1A70D2
:1041D000704702210F4A117001221A7019780229C2
:1041E00012D10B4A1278022A0AD10022EEE7094ABC
:1041F00011700322EBE7012AE8D0002AE9D07047CA
:10420000002AE3D0012AF2D0704700BF040000204A
:10421000050000200B000020054B1A78054B2AB141
:10422000054A127812B101221A7070470022FBE78A
:10423000700B00201E0900203C0B0020294A30B5DD
:104240001378032B4DD1284BB3F9000083B203F14F
:10425000090189B2122905D8022424490C700124CD
:1042600023490C700A339BB2142B0BD90021204B2D
:10427000884219701D4B30DD19701E49097809B14B
:10428000022119701C4B1D48B3F90050ABB203F169
:10429000090189B2122906D80221194C2170194C42
:1042A0002170012101700A339BB2142B0DD9002417
:1042B000A54204701249134B11DD0C701C70124C96
:1042C000247814B102240C701C7003784BB1084B95
:1042D0001B7833B10423137030BD0121CCE70124D6
:1042E000EBE730BD0C0000204C0B00200800002044
:1042F000320B00203C0B0020060200201804002096
:10430000090000200A000020700B00200F490A78E5
:10431000DAB90F4B1878012818BF1A701B78012BD7
:1043200013D10C4A1378012B1CBF002313700A4BC6
:104330001278187801281CBF00201870012A04D1B7
:104340001B78012B04BF03230B7070470C00002067
:1043500004000020000000200200002010B5194CCD
:104360002278012A2DD1184A1378032B1CBF02236F
:104370001370164B1278197803291CBF022119708B
:10438000032A1ED11B78032B1BD1114B11491B781B
:10439000114A53B901230B70137010BD08701378C4
:1043A000032B0ED10623237010BD022313700B4A7A
:1043B0000B7010780A490B4A0028EFD00B7013706D
:1043C000EDE710BD0C0000200000002002000020DE
:1043D000700B0020090000200A0000203C0B002088
:1043E000080000200400002038B5134C2378022B6D
:1043F00004D1002204211148FDF782FA257855B92D
:10440000012204210D48FDF77BFA2A464FF4806112
:104410000A48FDF775FA2478012C0CD122460421B4
:104420000648FDF76DFA2246BDE838404FF480613A
:104430000248FDF765BA38BD0600002000040240BE
:1044400038B5124C2378022B04D1002201211048E8
:10445000FDF756FA25784DB901220D481146FDF7B2
:104460004FFA2A4602210A48FDF74AFA2478012C1D
:104470000BD1224621460648FDF742FA2246BDE806
:10448000384002210248FDF73BBA38BD0700002042
:104490000004024038B5144C2378022B05D10022C9
:1044A0004FF480711148FDF72BFA257855B9012298
:1044B0004FF480710D48FDF723FA2A4680210B48FE
:1044C000FDF71EFA2478012C0CD122464FF480719E
:1044D0000648FDF715FA2246BDE83840802103481A
:1044E000FDF70EBA38BD00BF0800002000080240EA
:1044F00038B5134C2378022B04D1002240211148F7
:10450000FDF7FEF9257855B9012240210D48FDF748
:10451000F7F92A464FF480510B48FDF7F1F924785A
:10452000012C0CD1224640210648FDF7E9F922462C
:10453000BDE838404FF480510348FDF7E1B938BD7C
:1045400009000020000802400004024038B5154C64
:104550002378022B05D100224FF480411248FDF749
:10456000CFF925785DB901224FF480410E48FDF75F
:10457000C7F92A464FF400510B48FDF7C1F92478DA
:10458000012C0DD122464FF480410748FDF7B8F9C0
:104590002246BDE838404FF400510348FDF7B0B95A
:1045A00038BD00BF0A0000200004024038B5134C9B
:1045B0002378022B04D1002204211148FDF7A0F931
:1045C000257855B9012204210D48FDF799F92A46AD
:1045D0004FF400410B48FDF793F92478012C0CD1DE
:1045E000224604210648FDF78BF92246BDE83840F3
:1045F0004FF400410348FDF783B938BD0B0000209C
:10460000000C024000000240084B1A78084B2AB9FF
:104610001A78084B42B902221A7070471B78002B97
:10462000FBD1044A137070470122F5E71A040020F9
:10463000680B002001000020084B1A78084B2AB9AB
:104640001A78084B42B902221A7070471B78002B67
:10465000FBD1044A137070470122F5E7740B002068
:104660000402002003000020084B1A78084B2AB9E6
:104670001A78084B42B902221A7070471B78002B37
:10468000FBD1044A137070470122F5E7300B00207C
:104690003A0800200500002008B510210648FDF763
:1046A00029F910B9054B187005E010210248FDF7F3
:1046B00021F90128F6D008BD000002401A040020AC
:1046C00008B520210648FDF715F910B9054B1870FB
:1046D00005E020210248FDF70DF90128F6D008BDBC
:1046E00000000240680B002008B540210648FDF795
:1046F00001F910B9054B187005E040210248FDF79B
:10470000F9F80128F6D008BD00000240740B002023
:1047100008B580210648FDF7EDF810B9054B187073
:1047200005E080210248FDF7E5F80128F6D008BD34
:10473000000002400402002008B520210648FDF7D1
:10474000D9F810B9054B187005E020210248FDF793
:10475000D1F80128F6D008BD00080240300B002037
:1047600008B510210648FDF7C5F810B9054B1870BB
:1047700005E010210248FDF7BDF80128F6D008BD7C
:10478000000802403A08002008B54FF400710748BD
:10479000FDF7B0F810B9064B187006E04FF4007141
:1047A0000248FDF7A7F80128F5D008BD0000024037
:1047B000700B002008B54FF480610748FDF79AF8A8
:1047C00010B9064B187006E04FF480610248FDF7FF
:1047D00091F80128F5D008BD000002403C0B0020F4
:1047E00008B540211048FDF785F810B901220F4B9C
:1047F0001A7080210C48FDF77DF820B902230C4A7D
:1048000013700C4A137020210748FDF773F808B99C
:10481000094B187010210448FDF76CF810B90122FB
:10482000054B1A7008BD00BF000402403B08002081
:1048300000000020020000200C0000202DE9F041C3
:104840004FF0FF33DAB0112269496A48FEF784FD60
:104850004FF0FF33022268496648FEF77DFD674B43
:1048600002AF93E807004FF0FF3387E807000C2200
:1048700063496048FEF770FD4FF0FF3302225E4946
:104880005C48FEF769FD5F4B1B78002B7CD15E49CD
:1048900005A801F0FCFB5D4B1B78002B40F08580E8
:1048A00059490DF1210001F0F2FB594B1B78002B07
:1048B00040F08C8054490DF12E0001F0E8FB4FF0E0
:1048C000FF330C2253494B48FEF746FD4FF0FF33B0
:1048D000022249494748FEF73FFD0025454EDFF8D3
:1048E000588164244FF0FF330C224B493046FEF7C9
:1048F00033FD02224FF0FF333F493046FEF72CFDD7
:104900000FAB04FB05344549204601F0C0FB41468E
:10491000204601F0ADFB57F82510204601F0A8FB1A
:104920004146204601F0A4FB3D49204601F0A0FB92
:104930004146204601F09CFB0D2105AB01FB0531F2
:10494000204601F095FB4146204601F091FB2046B0
:10495000FBF716FC4FF0FF3382B221463046FEF7DC
:10496000FBFC4FF0FF33022223493046FEF7F4FCF4
:104970002C4B684601350094019300F0D1FE032DC5
:10498000AFD15AB0BDE8F081022B01D126497FE7B3
:10499000042B01D125497BE7012B01D1244977E77D
:1049A000032B7FF478AF234972E7022B01D11E4914
:1049B00077E7042B01D11D4973E7012B01D11C4975
:1049C0006FE7032B7FF471AF1A496AE7022B01D11D
:1049D000154970E7042B01D114496CE7012B01D173
:1049E000134968E7032B7FF46AAF124963E700BFFE
:1049F000C4670008240D0020826A00087067000860
:104A0000D667000800000020E367000802000020CD
:104A1000040000202468000831680008AB67000823
:104A20003E6800086C670008F0670008FD67000832
:104A30000A68000817680008B867000810B5084C35
:104A4000237863B100F0E4F9642000F0EFFE00F099
:104A500045FDFFF7F3FE00F00BFE0023237010BDB1
:104A60003B08002030B5002497B03422002109A86B
:104A700001F0CEF90021142204A801F0C9F9184A66
:104A80000194029403941368012523F4C05343F462
:104A9000006313600A23099310230D9302231293DA
:104AA0004FF4002314934FF4000309A815930C95B9
:104AB0000E951394FDF7E6FB0F2304930323294679
:104AC00004A80593069407940894FDF775FF4FF426
:104AD000003301A801950293FEF77CF817B030BDB2
:104AE000007000401FB500240125644B03261C60A4
:104AF000634B1C60634B1C60634B1C60FCF732FA19
:104B0000FFF7B0FFFEF750FFFEF7F6FEFEF778FD69
:104B1000FFF704F801F068F800F020F901F080F8E0
:104B20005A4B1D705A4B1D705A4B1D705A4B1C70BE
:104B3000FFF7BAF8FFF7C6F8FFF7D2F84FF4FA60BC
:104B4000FCF72AFA07231A22062100930296122361
:104B500001941320FFF774F8FFF784FA4F4801F02F
:104B600023F8204601F026F84C48FEF735FE28468B
:104B7000FEF744FE1120FEF759FE284601F01AF810
:104B80002846FEF73BFE1120FEF750FE304601F0AE
:104B900011F82846FEF732FE1120FEF747FE0420EA
:104BA00001F008F82846FEF729FE1120FEF73EFE28
:104BB0004FF4FA60FCF7F0F9022239493948FCF762
:104BC000E3FB3949394800F069F9204600F0CCF997
:104BD00000F06EF900F036FE00F0F8FB00F074FD16
:104BE00041F28830FCF7D8F9FF2000F0DFFDFFF735
:104BF00025FFFEF7E9FFFFF757F8FFF763F8FFF728
:104C00006FF8FFF77BF8FFF79FF9FFF7E5F9FFF77C
:104C1000D1F8FFF745F9FFF7E3FDFFF73DFDFFF79B
:104C20004FFDFFF761FDFFF773FDFFF785FDFFF710
:104C300097FDFFF7A9FDFFF7BDFDFFF7E5FCFFF7C7
:104C4000FBFCFFF711FDFFF75DFAFFF789FAFFF7AD
:104C5000B5FAFFF75BFBFFF781FBFFF7DDFAFFF724
:104C6000EDFAFFF7C1FBFFF7EBFBFFF713FCFFF7D4
:104C70003FFCFFF76BFCFFF799FCB8E76C0B0020DB
:104C80000C020020380B0020440B0020400B0020B9
:104C90001C0400203D0800203B080020A401002047
:104CA0004008002044010020240D0020E40C0020D6
:104CB0000268204B10B59A423AD11F4A1F49137817
:104CC0008BBB1846C8540133642BFBD110781C4CA5
:104CD000431C2478DBB20C541944137011F8043CC3
:104CE000184C4F2B09D111F8033C4B2B05D1012354
:104CF000154923700B7000211170237863B10F499F
:104D0000124801F0C4F94FF47A7364220F49104835
:104D1000FEF722FB002323700122BDE81040084962
:104D20000C48FEF774BB642B84BF00231370CDE7DF
:104D300010BD00BF00480040EC00002050080020DB
:104D40003D0B0020FC0100204E0B0020BA08002083
:104D5000240D0020E40C0020704700007FB51422D1
:104D6000002101A801F054F800231D481D4A0093BA
:104D700080E80C007F228260FF220361C2604361F1
:104D80008361FDF7EFFF08B1FFF7E6FF16238DF80B
:104D9000043056238DF805300023012201A9104864
:104DA0008DF8063004930593FEF729F808B1FFF754
:104DB000D3FF03238DF8003006238DF8013026231E
:104DC0008DF8023019230122694605488DF8033019
:104DD000FEF77DF808B1FFF7BFFF07B05DF804FBF1
:104DE000800B0020002800400268074B9A420AD13D
:104DF0004FF4800292FAA2F2B2FA82F2034B134409
:104E000001229B001A60704700280040A0C1911049
:104E1000F0B589B001AA15461C4B03F118061446DB
:104E200018685968083303C4B3422246F7D118689A
:104E30001A2620602846FBF7A3F9154C82B22946B2
:104E40004FF0FF332068FEF787FA0025114F01F07D
:104E500091F890FBF6F303FB16006130E85501353D
:104E60000C2DF4D10B48FBF78BF94FF0FF3382B2D6
:104E700008492068FEF770FA4FF0FF330222064916
:104E80002068FEF769FA09B0F0BD00BF5B6A000850
:104E9000B80C00205A0C0020826A0008024B1860EF
:104EA000024B1960704700BFFC0B0020B80C0020BB
:104EB000F0B591B008AA1546274B03F11806144621
:104EC00018685968083303C4B3422246F7D11868FA
:104ED0001B79206023712846FBF752F91F4C4FF0D5
:104EE000FF3382B229462068FEF736FA01224FF4DA
:104EF00000411B48FCF704FD4FF42F70FCF74CF801
:104F000000224FF400411648FCF7FAFC4FF42F70D2
:104F1000FCF742F801224FF400411148FCF7F0FC85
:104F200001AA16460F4B03F1180715461868596871
:104F3000083303C5BB422A46F7D1186828603046BB
:104F4000FBF71EF94FF0FF3382B231462068FEF7BF
:104F500003FA11B0F0BD00BFA86B0008B80C002028
:104F600000040240C56B000870B5012886B023D14B
:104F700001AA15461F4B03F110061446186859681C
:104F8000083303C4B3422246F7D119889B782180A5
:104F9000A3702846FBF7F4F882B217484FF0FF33AE
:104FA00029460068FEF7D8F901224FF40071134832
:104FB000FCF7A6FC06B070BD0028FBD101AA15467F
:104FC0000F4B03F11006144618685968083303C4E0
:104FD000B3422246F7D11B8828462380FBF7D0F83E
:104FE00082B205484FF0FF3329460068FEF7B4F956
:104FF0000022DAE71F6B0008B80C0020000802400E
:10500000326B00082DE9FF41002307461946304E58
:10501000304A337099540133642BFBD16A46E84619
:105020002D4B03F10805144618685968083303C46A
:10503000AB422246F7D1998818689B792060A180FD
:10504000A3714046FBF79CF8244D82B241464FF0D5
:10505000FF332868FEF780F93846FBF791F8204CBB
:1050600082B239464FF0FF332068FEF775F94FF0F2
:10507000FF3302221B492068FEF76EF901221A490C
:105080002068FEF7C4F90027DFF86880D8F8002010
:10509000FBB2934208DD4FF0FF330A221349286820
:1050A000FEF75AF900200BE034780137012C0AD1C1
:1050B0004FF0FF330A220E492868FEF74DF92046CB
:1050C00004B0BDE8F0816420FBF766FFDEE700BFB7
:1050D0004E0B002050080020F16C0008B80C002096
:1050E000FC0B0020826A00083D0B0020E76C0008E2
:1050F000DC6C000860000020F0B585B004466A460C
:105100006E46154B03F108071546186859680833B1
:1051100003C5BB422A46F7D118689B882860AB803C
:105120003046FBF72DF882B20C484FF0FF33314682
:105130000068FEF711F9043C54F8045F2846FBF7B9
:105140001FF8012801D8012004E02846FFF75AFF84
:105150000128F1D005B0F0BD776A0008B80C002036
:105160001FB5174A01AB1068516803C390681860F7
:1051700001A8FBF705F882B212484FF0FF3301A9EE
:105180000068FEF7E9F81048FFF7B6FF012803D0E2
:10519000C0B205B05DF804FB00230C490133581878
:1051A00010F8012C0A2AF9D10023094AC15C0A2906
:1051B00003D100210120D154EBE7D1540133F5E7AD
:1051C000ED6B0008B80C002048000020BA08002051
:1051D000BC0C00201FB5184A01AB1068516803C30E
:1051E0001189927A01A819809A70FAF7C9FF82B2E0
:1051F00012484FF0FF3301A90068FEF7ADF81048E0
:10520000FFF77AFF012803D0C0B205B05DF804FBB8
:1052100000230C490133581810F8012C0A2AF9D13F
:105220000023094AC15C0A2903D100210120D1547D
:10523000EBE7D1540133F5E7F96B0008B80C002017
:1052400050000020BA080020980C00201FB5174A13
:1052500001AB1068516803C39068186001A8FAF7A1
:105260008FFF82B212484FF0FF3301A90068FEF7AA
:1052700073F81048FFF740FF012803D0C0B205B013
:105280005DF804FB00230C490133581810F8012C79
:105290000A2AF9D10023094AC15C0A2903D1002155
:1052A0000120D154EBE7D1540133F5E7E16B00085D
:1052B000B80C002040000020BA080020000C00209C
:1052C0007FB56A466D461B4B03F108061446186805
:1052D0005968083303C4B3422246F7D118681B79D2
:1052E000206023712846FAF74BFF82B212484FF034
:1052F000FF3329460068FEF72FF81048FFF7FCFE41
:10530000012802D0C0B204B070BD00230C490133A3
:10531000581810F8012C0A2AF9D10023094AC15C57
:105320000A2903D100210120D154ECE7D1540133E3
:10533000F5E700BF046C0008B80C002058000020FE
:10534000BA080020180C002070B586B001AA1546D6
:10535000194B03F11006144618685968083303C442
:10536000B3422246F7D11B7828462370FAF708FF8C
:1053700082B212484FF0FF3329460068FDF7ECFF78
:105380000F48FFF7B9FE012802D0C0B206B070BDC9
:1053900000230C490133581810F8012C0A2AF9D1BE
:1053A0000023094AC15C0A2903D100210120D154FC
:1053B000ECE7D1540133F5E7DF6A0008B80C0020B0
:1053C00028000020BA080020E20B002070B586B04B
:1053D0006A466D461A4B03F1100614461868596860
:1053E000083303C4B3422246F7D118689B88206073
:1053F000A3802846FAF7C4FE82B212484FF0FF336A
:1054000029460068FDF7A8FF0F48FFF775FE012841
:1054100002D0C0B206B070BD00230C490133581849
:1054200010F8012C0A2AF9D10023094AC15C0A2983
:1054300003D100210120D154ECE7D1540133F5E729
:10544000096B0008B80C002038000020BA080020C2
:10545000A00B002070B586B06A466D461A4B03F16A
:105460001006144618685968083303C4B34222462C
:10547000F7D118689B882060A3802846FAF780FE41
:1054800082B212484FF0FF3329460068FDF764FFEF
:105490000F48FFF731FE012802D0C0B206B070BD40
:1054A00000230C490133581810F8012C0A2AF9D1AD
:1054B0000023094AC15C0A2903D100210120D154EB
:1054C000ECE7D1540133F5E7BA6A0008B80C0020C4
:1054D00020000020BA080020280C002070B5A0B0E1
:1054E00003AA1646534B03F1080514461868596879
:1054F000083303C4AB422246F7D1998818689B79D8
:105500002060A180A3713046FAF73AFE4A4D82B27C
:1055100007AC4FF0FF3331462868FDF71DFF4749C0
:10552000204600F0B4FD4649204600F0A1FD454963
:10553000204600F09DFD4449204600F099FD414978
:10554000204600F095FD4149204600F091FD40497C
:10555000204600F08DFD3D49204600F089FD394987
:10556000204600F085FD3B49204600F081FD35498D
:10557000204600F07DFD3249204600F079FD31499A
:10558000204600F075FD2E49204600F071FD2D49A2
:10559000204600F06DFD2D49204600F069FD2E4BA0
:1055A0002046196800F064FD2849204600F060FD9F
:1055B0002449204600F05CFD2449204600F058FDB7
:1055C000264B2046196800F053FD2049204600F084
:1055D0004FFD234B204602930194FAF7D1FD4FF083
:1055E000FF3382B221462868FDF7B6FE4FF0FF3345
:1055F00002221C492868FDF7AFFE01A8FFF77CFDD9
:10560000012802D0C0B220B070BD0023164901337A
:10561000581810F8012C0A2AF9D10023134AC15C4A
:105620000A2903D100210120D154ECE7D1540133E0
:10563000F5E700BF946A0008B80C0020856A0008EE
:105640002B6A0008B66700083C680008B8670008C5
:105650005A0C0020906A000810000020140000205E
:105660007C670008826A0008BA080020660C0020E7
:1056700070B586B06A466D46104B03F110061446AD
:1056800018685968083303C4B3422246F7D1998891
:1056900018689B792060A180A3712846FAF770FDF5
:1056A00082B207484FF0FF3329460068FDF754FEE9
:1056B0000448FFF721FDC0B206B070BDA36A000820
:1056C000B80C0020180000207FB56A466D46114BCB
:1056D00003F10806144618685968083303C4B34236
:1056E0002246F7D1998818689B792060A180A37120
:1056F0002846FAF745FD82B207484FF0FF332946A6
:105700000068FDF729FE0548FFF7F6FCC0B204B0BB
:1057100070BD00BFFA6A0008B80C002030000020FD
:10572000F0B585B006466A466D461C4B03F1080786
:10573000144618685968083303C4BB422246F7D19F
:10574000998818689B792060A180A3712846FAF790
:1057500017FD82B212484FF0FF3329460068FDF76B
:10576000FBFD3046FFF7C8FC012802D0C0B205B0EF
:10577000F0BD00230B490133581810F8012C0A2AF8
:10578000F9D10023084AC15C0A2903D10021012074
:10579000D154ECE7D1540133F5E700BFD06A0008DB
:1057A000B80C0020BA080020B00B002030B5054628
:1057B000002485B0A54201D105B030BDFFF7C4FD7E
:1057C000012804D11548FAF7DBFC092801D8013477
:1057D000F0E7134A01AB51681068128903C30F4800
:1057E0001A80FAF7CDFC0F4C82B24FF0FF330B4911
:1057F0002068FDF7B1FD01A8FAF7C2FC01A982B249
:105800004FF0FF332068FDF7A7FD4FF0FF33022272
:1058100005492068FDF7A0FDCEE700BFE20B0020A0
:10582000F06A0008B80C0020826A000838B5054606
:105830000024AC4205D0FFF70DFE012804F101045D
:10584000F7D138BD2DE9FF41FFF78AFC0546FFF788
:10585000C1FC0746FFF7FAFC0646FFF731FD012DB4
:10586000044640F098806B46834A844D1068516826
:1058700003C31189927A684619809A70FAF780FCFE
:105880004FF0FF3382B269462868FDF765FD7C481A
:10589000FAF776FC4FF0FF33794982B22868FDF7BA
:1058A0005BFD4FF0FF33022276492868FDF754FD77
:1058B000012F40F088806B46734A704D5168106824
:1058C000127A03C368461A70FAF75AFC4FF0FF3396
:1058D00082B269462868FDF73FFD6C48FAF750FC34
:1058E0004FF0FF33694982B22868FDF735FD4FF06C
:1058F000FF33022263492868FDF72EFD012E7ED179
:105900006B46634A5D4D51681068128903C368464F
:105910001A80FAF735FC4FF0FF3382B269462868E7
:10592000FDF71AFD5B48FAF72BFC4FF0FF3359499E
:1059300082B22868FDF710FD4FF0FF330222514973
:105940002868FDF709FD012C77D16B46524A4B4C74
:1059500051681068128903C368461A80FAF710FC70
:105960004FF0FF3382B269462068FDF7F5FC4B48E3
:10597000FAF706FC4FF0FF33484982B22068FDF782
:10598000EBFC4FF0FF3302223E492068FDF7E4FCB8
:1059900004B0BDE8F081002D8AD16A46E846404B4C
:1059A00003F1100E154618685968083303C573458E
:1059B0002A46F7D14046FAF7E3FB304D4FF0FF336C
:1059C00082B241466AE7002F98D16A466F46354B4E
:1059D00003F1080E154618685968083303C5734566
:1059E0002A46F7D118689B882860AB803846FAF7BA
:1059F000C7FB224D4FF0FF3382B2394674E7002EC9
:105A0000A1D16A466E46284B03F10807154618686F
:105A10005968083303C5BB422A46F7D199881868EC
:105A20009B792860A980AB713046FAF7A9FB134D2A
:105A30004FF0FF3382B231467BE7002CA8D16A4693
:105A40006D461A4B03F10806144618685968083366
:105A500003C4B3422246F7D1998818689B79206025
:105A6000A180A3712846FAF78BFB044C4FF0FF335B
:105A700082B2294682E700BF446B0008B80C0020C0
:105A8000180C0020826A00084F6B0008980C002058
:105A9000586B0008000C0020626B0008BC0C002052
:105AA0006C6B00087C6B00088A6B0008996B00081F
:105AB0000F4B84B05A6A42F000425A625A6A02F0AE
:105AC00000420192019A1A6A42F001021A621A6AAD
:105AD00002F001020292029A5A6A42F080525A621D
